{"abi":[{"inputs":[{"internalType":"string","name":"campaignTitle","type":"string"},{"internalType":"string","name":"description","type":"string"},{"internalType":"uint256","name":"minimum","type":"uint256"}],"name":"createCampaign","outputs":[],"stateMutability":"nonpayable","type":"function"},{"inputs":[{"internalType":"uint256","name":"","type":"uint256"}],"name":"deployedCampaigns","outputs":[{"internalType":"contract Campaign","name":"","type":"address"}],"stateMutability":"view","type":"function"},{"inputs":[],"name":"getDeployedCampaigns","outputs":[{"internalType":"contract Campaign[]","name":"","type":"address[]"}],"stateMutability":"view","type":"function"}],"devdoc":{"kind":"dev","methods":{},"version":1},"evm":{"assembly":"    /* \"Campaign.sol\":65:525  contract CampaignFactory {... */\n  mstore(0x40, 0x80)\n  callvalue\n  dup1\n  iszero\n  tag_1\n  jumpi\n  0x00\n  dup1\n  revert\ntag_1:\n  pop\n  dataSize(sub_0)\n  dup1\n  dataOffset(sub_0)\n  0x00\n  codecopy\n  0x00\n  return\nstop\n\nsub_0: assembly {\n        /* \"Campaign.sol\":65:525  contract CampaignFactory {... */\n      mstore(0x40, 0x80)\n      callvalue\n      dup1\n      iszero\n      tag_1\n      jumpi\n      0x00\n      dup1\n      revert\n    tag_1:\n      pop\n      jumpi(tag_2, lt(calldatasize, 0x04))\n      shr(0xe0, calldataload(0x00))\n      dup1\n      0x339d50a5\n      eq\n      tag_3\n      jumpi\n      dup1\n      0x4acb9d4f\n      eq\n      tag_4\n      jumpi\n      dup1\n      0xffa56a57\n      eq\n      tag_5\n      jumpi\n    tag_2:\n      0x00\n      dup1\n      revert\n        /* \"Campaign.sol\":97:132  Campaign[] public deployedCampaigns */\n    tag_3:\n      tag_6\n      0x04\n      dup1\n      calldatasize\n      sub\n      dup2\n      add\n      swap1\n      tag_7\n      swap2\n      swap1\n      tag_8\n      jump\t// in\n    tag_7:\n      tag_9\n      jump\t// in\n    tag_6:\n      mload(0x40)\n      tag_10\n      swap2\n      swap1\n      tag_11\n      jump\t// in\n    tag_10:\n      mload(0x40)\n      dup1\n      swap2\n      sub\n      swap1\n      return\n        /* \"Campaign.sol\":407:522  function getDeployedCampaigns() public view returns (Campaign[] memory) {... */\n    tag_4:\n      tag_12\n      tag_13\n      jump\t// in\n    tag_12:\n      mload(0x40)\n      tag_14\n      swap2\n      swap1\n      tag_15\n      jump\t// in\n    tag_14:\n      mload(0x40)\n      dup1\n      swap2\n      sub\n      swap1\n      return\n        /* \"Campaign.sol\":145:395  function createCampaign(string calldata campaignTitle,string calldata description,uint minimum) public {... */\n    tag_5:\n      tag_16\n      0x04\n      dup1\n      calldatasize\n      sub\n      dup2\n      add\n      swap1\n      tag_17\n      swap2\n      swap1\n      tag_18\n      jump\t// in\n    tag_17:\n      tag_19\n      jump\t// in\n    tag_16:\n      stop\n        /* \"Campaign.sol\":97:132  Campaign[] public deployedCampaigns */\n    tag_9:\n      0x00\n      dup2\n      dup2\n      sload\n      dup2\n      lt\n      tag_20\n      jumpi\n      0x00\n      dup1\n      revert\n    tag_20:\n      swap1\n      0x00\n      mstore\n      keccak256(0x00, 0x20)\n      add\n      0x00\n      swap2\n      pop\n      sload\n      swap1\n      0x0100\n      exp\n      swap1\n      div\n      0xffffffffffffffffffffffffffffffffffffffff\n      and\n      dup2\n      jump\t// out\n        /* \"Campaign.sol\":407:522  function getDeployedCampaigns() public view returns (Campaign[] memory) {... */\n    tag_13:\n        /* \"Campaign.sol\":460:477  Campaign[] memory */\n      0x60\n        /* \"Campaign.sol\":497:514  deployedCampaigns */\n      0x00\n        /* \"Campaign.sol\":490:514  return deployedCampaigns */\n      dup1\n      sload\n      dup1\n      0x20\n      mul\n      0x20\n      add\n      mload(0x40)\n      swap1\n      dup2\n      add\n      0x40\n      mstore\n      dup1\n      swap3\n      swap2\n      swap1\n      dup2\n      dup2\n      mstore\n      0x20\n      add\n      dup3\n      dup1\n      sload\n      dup1\n      iszero\n      tag_23\n      jumpi\n      0x20\n      mul\n      dup3\n      add\n      swap2\n      swap1\n      0x00\n      mstore\n      keccak256(0x00, 0x20)\n      swap1\n    tag_24:\n      dup2\n      0x00\n      swap1\n      sload\n      swap1\n      0x0100\n      exp\n      swap1\n      div\n      0xffffffffffffffffffffffffffffffffffffffff\n      and\n      0xffffffffffffffffffffffffffffffffffffffff\n      and\n      dup2\n      mstore\n      0x20\n      add\n      swap1\n      0x01\n      add\n      swap1\n      dup1\n      dup4\n      gt\n      tag_24\n      jumpi\n    tag_23:\n      pop\n      pop\n      pop\n      pop\n      pop\n      swap1\n      pop\n        /* \"Campaign.sol\":407:522  function getDeployedCampaigns() public view returns (Campaign[] memory) {... */\n      swap1\n      jump\t// out\n        /* \"Campaign.sol\":145:395  function createCampaign(string calldata campaignTitle,string calldata description,uint minimum) public {... */\n    tag_19:\n        /* \"Campaign.sol\":259:279  Campaign newCampaign */\n      0x00\n        /* \"Campaign.sol\":295:308  campaignTitle */\n      dup6\n      dup6\n        /* \"Campaign.sol\":309:320  description */\n      dup6\n      dup6\n        /* \"Campaign.sol\":321:328  minimum */\n      dup6\n        /* \"Campaign.sol\":330:340  msg.sender */\n      caller\n        /* \"Campaign.sol\":282:341  new Campaign(campaignTitle,description,minimum, msg.sender) */\n      mload(0x40)\n      tag_26\n      swap1\n      tag_27\n      jump\t// in\n    tag_26:\n      tag_28\n      swap7\n      swap6\n      swap5\n      swap4\n      swap3\n      swap2\n      swap1\n      tag_29\n      jump\t// in\n    tag_28:\n      mload(0x40)\n      dup1\n      swap2\n      sub\n      swap1\n      0x00\n      create\n      dup1\n      iszero\n      dup1\n      iszero\n      tag_30\n      jumpi\n      returndatasize\n      0x00\n      dup1\n      returndatacopy\n      revert(0x00, returndatasize)\n    tag_30:\n      pop\n        /* \"Campaign.sol\":259:341  Campaign newCampaign = new Campaign(campaignTitle,description,minimum, msg.sender) */\n      swap1\n      pop\n        /* \"Campaign.sol\":352:369  deployedCampaigns */\n      0x00\n        /* \"Campaign.sol\":375:386  newCampaign */\n      dup2\n        /* \"Campaign.sol\":352:387  deployedCampaigns.push(newCampaign) */\n      swap1\n      dup1\n      0x01\n      dup2\n      sload\n      add\n      dup1\n      dup3\n      sstore\n      dup1\n      swap2\n      pop\n      pop\n      0x01\n      swap1\n      sub\n      swap1\n      0x00\n      mstore\n      keccak256(0x00, 0x20)\n      add\n      0x00\n      swap1\n      swap2\n      swap1\n      swap2\n      swap1\n      swap2\n      0x0100\n      exp\n      dup2\n      sload\n      dup2\n      0xffffffffffffffffffffffffffffffffffffffff\n      mul\n      not\n      and\n      swap1\n      dup4\n      0xffffffffffffffffffffffffffffffffffffffff\n      and\n      mul\n      or\n      swap1\n      sstore\n      pop\n        /* \"Campaign.sol\":248:395  {... */\n      pop\n        /* \"Campaign.sol\":145:395  function createCampaign(string calldata campaignTitle,string calldata description,uint minimum) public {... */\n      pop\n      pop\n      pop\n      pop\n      pop\n      jump\t// out\n    tag_27:\n      dataSize(sub_0)\n      dup1\n      dataOffset(sub_0)\n      dup4\n      codecopy\n      add\n      swap1\n      jump\t// out\n        /* \"#utility.yul\":88:205   */\n    tag_33:\n        /* \"#utility.yul\":197:198   */\n      0x00\n        /* \"#utility.yul\":194:195   */\n      dup1\n        /* \"#utility.yul\":187:199   */\n      revert\n        /* \"#utility.yul\":211:328   */\n    tag_34:\n        /* \"#utility.yul\":320:321   */\n      0x00\n        /* \"#utility.yul\":317:318   */\n      dup1\n        /* \"#utility.yul\":310:322   */\n      revert\n        /* \"#utility.yul\":334:411   */\n    tag_35:\n        /* \"#utility.yul\":371:378   */\n      0x00\n        /* \"#utility.yul\":400:405   */\n      dup2\n        /* \"#utility.yul\":389:405   */\n      swap1\n      pop\n        /* \"#utility.yul\":334:411   */\n      swap2\n      swap1\n      pop\n      jump\t// out\n        /* \"#utility.yul\":417:539   */\n    tag_36:\n        /* \"#utility.yul\":490:514   */\n      tag_68\n        /* \"#utility.yul\":508:513   */\n      dup2\n        /* \"#utility.yul\":490:514   */\n      tag_35\n      jump\t// in\n    tag_68:\n        /* \"#utility.yul\":483:488   */\n      dup2\n        /* \"#utility.yul\":480:515   */\n      eq\n        /* \"#utility.yul\":470:533   */\n      tag_69\n      jumpi\n        /* \"#utility.yul\":529:530   */\n      0x00\n        /* \"#utility.yul\":526:527   */\n      dup1\n        /* \"#utility.yul\":519:531   */\n      revert\n        /* \"#utility.yul\":470:533   */\n    tag_69:\n        /* \"#utility.yul\":417:539   */\n      pop\n      jump\t// out\n        /* \"#utility.yul\":545:684   */\n    tag_37:\n        /* \"#utility.yul\":591:596   */\n      0x00\n        /* \"#utility.yul\":629:635   */\n      dup2\n        /* \"#utility.yul\":616:636   */\n      calldataload\n        /* \"#utility.yul\":607:636   */\n      swap1\n      pop\n        /* \"#utility.yul\":645:678   */\n      tag_71\n        /* \"#utility.yul\":672:677   */\n      dup2\n        /* \"#utility.yul\":645:678   */\n      tag_36\n      jump\t// in\n    tag_71:\n        /* \"#utility.yul\":545:684   */\n      swap3\n      swap2\n      pop\n      pop\n      jump\t// out\n        /* \"#utility.yul\":690:1019   */\n    tag_8:\n        /* \"#utility.yul\":749:755   */\n      0x00\n        /* \"#utility.yul\":798:800   */\n      0x20\n        /* \"#utility.yul\":786:795   */\n      dup3\n        /* \"#utility.yul\":777:784   */\n      dup5\n        /* \"#utility.yul\":773:796   */\n      sub\n        /* \"#utility.yul\":769:801   */\n      slt\n        /* \"#utility.yul\":766:885   */\n      iszero\n      tag_73\n      jumpi\n        /* \"#utility.yul\":804:883   */\n      tag_74\n      tag_33\n      jump\t// in\n    tag_74:\n        /* \"#utility.yul\":766:885   */\n    tag_73:\n        /* \"#utility.yul\":924:925   */\n      0x00\n        /* \"#utility.yul\":949:1002   */\n      tag_75\n        /* \"#utility.yul\":994:1001   */\n      dup5\n        /* \"#utility.yul\":985:991   */\n      dup3\n        /* \"#utility.yul\":974:983   */\n      dup6\n        /* \"#utility.yul\":970:992   */\n      add\n        /* \"#utility.yul\":949:1002   */\n      tag_37\n      jump\t// in\n    tag_75:\n        /* \"#utility.yul\":939:1002   */\n      swap2\n      pop\n        /* \"#utility.yul\":895:1012   */\n      pop\n        /* \"#utility.yul\":690:1019   */\n      swap3\n      swap2\n      pop\n      pop\n      jump\t// out\n        /* \"#utility.yul\":1025:1151   */\n    tag_38:\n        /* \"#utility.yul\":1062:1069   */\n      0x00\n        /* \"#utility.yul\":1102:1144   */\n      0xffffffffffffffffffffffffffffffffffffffff\n        /* \"#utility.yul\":1095:1100   */\n      dup3\n        /* \"#utility.yul\":1091:1145   */\n      and\n        /* \"#utility.yul\":1080:1145   */\n      swap1\n      pop\n        /* \"#utility.yul\":1025:1151   */\n      swap2\n      swap1\n      pop\n      jump\t// out\n        /* \"#utility.yul\":1157:1217   */\n    tag_39:\n        /* \"#utility.yul\":1185:1188   */\n      0x00\n        /* \"#utility.yul\":1206:1211   */\n      dup2\n        /* \"#utility.yul\":1199:1211   */\n      swap1\n      pop\n        /* \"#utility.yul\":1157:1217   */\n      swap2\n      swap1\n      pop\n      jump\t// out\n        /* \"#utility.yul\":1223:1365   */\n    tag_40:\n        /* \"#utility.yul\":1273:1282   */\n      0x00\n        /* \"#utility.yul\":1306:1359   */\n      tag_79\n        /* \"#utility.yul\":1324:1358   */\n      tag_80\n        /* \"#utility.yul\":1333:1357   */\n      tag_81\n        /* \"#utility.yul\":1351:1356   */\n      dup5\n        /* \"#utility.yul\":1333:1357   */\n      tag_38\n      jump\t// in\n    tag_81:\n        /* \"#utility.yul\":1324:1358   */\n      tag_39\n      jump\t// in\n    tag_80:\n        /* \"#utility.yul\":1306:1359   */\n      tag_38\n      jump\t// in\n    tag_79:\n        /* \"#utility.yul\":1293:1359   */\n      swap1\n      pop\n        /* \"#utility.yul\":1223:1365   */\n      swap2\n      swap1\n      pop\n      jump\t// out\n        /* \"#utility.yul\":1371:1497   */\n    tag_41:\n        /* \"#utility.yul\":1421:1430   */\n      0x00\n        /* \"#utility.yul\":1454:1491   */\n      tag_83\n        /* \"#utility.yul\":1485:1490   */\n      dup3\n        /* \"#utility.yul\":1454:1491   */\n      tag_40\n      jump\t// in\n    tag_83:\n        /* \"#utility.yul\":1441:1491   */\n      swap1\n      pop\n        /* \"#utility.yul\":1371:1497   */\n      swap2\n      swap1\n      pop\n      jump\t// out\n        /* \"#utility.yul\":1503:1645   */\n    tag_42:\n        /* \"#utility.yul\":1569:1578   */\n      0x00\n        /* \"#utility.yul\":1602:1639   */\n      tag_85\n        /* \"#utility.yul\":1633:1638   */\n      dup3\n        /* \"#utility.yul\":1602:1639   */\n      tag_41\n      jump\t// in\n    tag_85:\n        /* \"#utility.yul\":1589:1639   */\n      swap1\n      pop\n        /* \"#utility.yul\":1503:1645   */\n      swap2\n      swap1\n      pop\n      jump\t// out\n        /* \"#utility.yul\":1651:1814   */\n    tag_43:\n        /* \"#utility.yul\":1754:1807   */\n      tag_87\n        /* \"#utility.yul\":1801:1806   */\n      dup2\n        /* \"#utility.yul\":1754:1807   */\n      tag_42\n      jump\t// in\n    tag_87:\n        /* \"#utility.yul\":1749:1752   */\n      dup3\n        /* \"#utility.yul\":1742:1808   */\n      mstore\n        /* \"#utility.yul\":1651:1814   */\n      pop\n      pop\n      jump\t// out\n        /* \"#utility.yul\":1820:2074   */\n    tag_11:\n        /* \"#utility.yul\":1929:1933   */\n      0x00\n        /* \"#utility.yul\":1967:1969   */\n      0x20\n        /* \"#utility.yul\":1956:1965   */\n      dup3\n        /* \"#utility.yul\":1952:1970   */\n      add\n        /* \"#utility.yul\":1944:1970   */\n      swap1\n      pop\n        /* \"#utility.yul\":1980:2067   */\n      tag_89\n        /* \"#utility.yul\":2064:2065   */\n      0x00\n        /* \"#utility.yul\":2053:2062   */\n      dup4\n        /* \"#utility.yul\":2049:2066   */\n      add\n        /* \"#utility.yul\":2040:2046   */\n      dup5\n        /* \"#utility.yul\":1980:2067   */\n      tag_43\n      jump\t// in\n    tag_89:\n        /* \"#utility.yul\":1820:2074   */\n      swap3\n      swap2\n      pop\n      pop\n      jump\t// out\n        /* \"#utility.yul\":2080:2210   */\n    tag_44:\n        /* \"#utility.yul\":2163:2169   */\n      0x00\n        /* \"#utility.yul\":2197:2202   */\n      dup2\n        /* \"#utility.yul\":2191:2203   */\n      mload\n        /* \"#utility.yul\":2181:2203   */\n      swap1\n      pop\n        /* \"#utility.yul\":2080:2210   */\n      swap2\n      swap1\n      pop\n      jump\t// out\n        /* \"#utility.yul\":2216:2400   */\n    tag_45:\n        /* \"#utility.yul\":2315:2326   */\n      0x00\n        /* \"#utility.yul\":2349:2355   */\n      dup3\n        /* \"#utility.yul\":2344:2347   */\n      dup3\n        /* \"#utility.yul\":2337:2356   */\n      mstore\n        /* \"#utility.yul\":2389:2393   */\n      0x20\n        /* \"#utility.yul\":2384:2387   */\n      dup3\n        /* \"#utility.yul\":2380:2394   */\n      add\n        /* \"#utility.yul\":2365:2394   */\n      swap1\n      pop\n        /* \"#utility.yul\":2216:2400   */\n      swap3\n      swap2\n      pop\n      pop\n      jump\t// out\n        /* \"#utility.yul\":2406:2554   */\n    tag_46:\n        /* \"#utility.yul\":2489:2493   */\n      0x00\n        /* \"#utility.yul\":2512:2515   */\n      dup2\n        /* \"#utility.yul\":2504:2515   */\n      swap1\n      pop\n        /* \"#utility.yul\":2542:2546   */\n      0x20\n        /* \"#utility.yul\":2537:2540   */\n      dup3\n        /* \"#utility.yul\":2533:2547   */\n      add\n        /* \"#utility.yul\":2525:2547   */\n      swap1\n      pop\n        /* \"#utility.yul\":2406:2554   */\n      swap2\n      swap1\n      pop\n      jump\t// out\n        /* \"#utility.yul\":2560:2713   */\n    tag_47:\n        /* \"#utility.yul\":2653:2706   */\n      tag_94\n        /* \"#utility.yul\":2700:2705   */\n      dup2\n        /* \"#utility.yul\":2653:2706   */\n      tag_42\n      jump\t// in\n    tag_94:\n        /* \"#utility.yul\":2648:2651   */\n      dup3\n        /* \"#utility.yul\":2641:2707   */\n      mstore\n        /* \"#utility.yul\":2560:2713   */\n      pop\n      pop\n      jump\t// out\n        /* \"#utility.yul\":2719:2930   */\n    tag_48:\n        /* \"#utility.yul\":2804:2814   */\n      0x00\n        /* \"#utility.yul\":2825:2887   */\n      tag_96\n        /* \"#utility.yul\":2883:2886   */\n      dup4\n        /* \"#utility.yul\":2875:2881   */\n      dup4\n        /* \"#utility.yul\":2825:2887   */\n      tag_47\n      jump\t// in\n    tag_96:\n        /* \"#utility.yul\":2919:2923   */\n      0x20\n        /* \"#utility.yul\":2914:2917   */\n      dup4\n        /* \"#utility.yul\":2910:2924   */\n      add\n        /* \"#utility.yul\":2896:2924   */\n      swap1\n      pop\n        /* \"#utility.yul\":2719:2930   */\n      swap3\n      swap2\n      pop\n      pop\n      jump\t// out\n        /* \"#utility.yul\":2936:3065   */\n    tag_49:\n        /* \"#utility.yul\":3022:3026   */\n      0x00\n        /* \"#utility.yul\":3054:3058   */\n      0x20\n        /* \"#utility.yul\":3049:3052   */\n      dup3\n        /* \"#utility.yul\":3045:3059   */\n      add\n        /* \"#utility.yul\":3037:3059   */\n      swap1\n      pop\n        /* \"#utility.yul\":2936:3065   */\n      swap2\n      swap1\n      pop\n      jump\t// out\n        /* \"#utility.yul\":3111:3923   */\n    tag_50:\n        /* \"#utility.yul\":3246:3249   */\n      0x00\n        /* \"#utility.yul\":3275:3345   */\n      tag_99\n        /* \"#utility.yul\":3339:3344   */\n      dup3\n        /* \"#utility.yul\":3275:3345   */\n      tag_44\n      jump\t// in\n    tag_99:\n        /* \"#utility.yul\":3361:3447   */\n      tag_100\n        /* \"#utility.yul\":3440:3446   */\n      dup2\n        /* \"#utility.yul\":3435:3438   */\n      dup6\n        /* \"#utility.yul\":3361:3447   */\n      tag_45\n      jump\t// in\n    tag_100:\n        /* \"#utility.yul\":3354:3447   */\n      swap4\n      pop\n        /* \"#utility.yul\":3471:3543   */\n      tag_101\n        /* \"#utility.yul\":3537:3542   */\n      dup4\n        /* \"#utility.yul\":3471:3543   */\n      tag_46\n      jump\t// in\n    tag_101:\n        /* \"#utility.yul\":3566:3573   */\n      dup1\n        /* \"#utility.yul\":3597:3598   */\n      0x00\n        /* \"#utility.yul\":3582:3898   */\n    tag_102:\n        /* \"#utility.yul\":3607:3613   */\n      dup4\n        /* \"#utility.yul\":3604:3605   */\n      dup2\n        /* \"#utility.yul\":3601:3614   */\n      lt\n        /* \"#utility.yul\":3582:3898   */\n      iszero\n      tag_104\n      jumpi\n        /* \"#utility.yul\":3683:3689   */\n      dup2\n        /* \"#utility.yul\":3677:3690   */\n      mload\n        /* \"#utility.yul\":3710:3789   */\n      tag_105\n        /* \"#utility.yul\":3785:3788   */\n      dup9\n        /* \"#utility.yul\":3770:3783   */\n      dup3\n        /* \"#utility.yul\":3710:3789   */\n      tag_48\n      jump\t// in\n    tag_105:\n        /* \"#utility.yul\":3703:3789   */\n      swap8\n      pop\n        /* \"#utility.yul\":3812:3888   */\n      tag_106\n        /* \"#utility.yul\":3881:3887   */\n      dup4\n        /* \"#utility.yul\":3812:3888   */\n      tag_49\n      jump\t// in\n    tag_106:\n        /* \"#utility.yul\":3802:3888   */\n      swap3\n      pop\n        /* \"#utility.yul\":3642:3898   */\n      pop\n        /* \"#utility.yul\":3629:3630   */\n      0x01\n        /* \"#utility.yul\":3626:3627   */\n      dup2\n        /* \"#utility.yul\":3622:3631   */\n      add\n        /* \"#utility.yul\":3617:3631   */\n      swap1\n      pop\n        /* \"#utility.yul\":3582:3898   */\n      jump(tag_102)\n    tag_104:\n        /* \"#utility.yul\":3586:3600   */\n      pop\n        /* \"#utility.yul\":3914:3917   */\n      dup6\n        /* \"#utility.yul\":3907:3917   */\n      swap4\n      pop\n        /* \"#utility.yul\":3251:3923   */\n      pop\n      pop\n      pop\n        /* \"#utility.yul\":3111:3923   */\n      swap3\n      swap2\n      pop\n      pop\n      jump\t// out\n        /* \"#utility.yul\":3929:4334   */\n    tag_15:\n        /* \"#utility.yul\":4088:4092   */\n      0x00\n        /* \"#utility.yul\":4126:4128   */\n      0x20\n        /* \"#utility.yul\":4115:4124   */\n      dup3\n        /* \"#utility.yul\":4111:4129   */\n      add\n        /* \"#utility.yul\":4103:4129   */\n      swap1\n      pop\n        /* \"#utility.yul\":4175:4184   */\n      dup2\n        /* \"#utility.yul\":4169:4173   */\n      dup2\n        /* \"#utility.yul\":4165:4185   */\n      sub\n        /* \"#utility.yul\":4161:4162   */\n      0x00\n        /* \"#utility.yul\":4150:4159   */\n      dup4\n        /* \"#utility.yul\":4146:4163   */\n      add\n        /* \"#utility.yul\":4139:4186   */\n      mstore\n        /* \"#utility.yul\":4203:4327   */\n      tag_108\n        /* \"#utility.yul\":4322:4326   */\n      dup2\n        /* \"#utility.yul\":4313:4319   */\n      dup5\n        /* \"#utility.yul\":4203:4327   */\n      tag_50\n      jump\t// in\n    tag_108:\n        /* \"#utility.yul\":4195:4327   */\n      swap1\n      pop\n        /* \"#utility.yul\":3929:4334   */\n      swap3\n      swap2\n      pop\n      pop\n      jump\t// out\n        /* \"#utility.yul\":4340:4457   */\n    tag_51:\n        /* \"#utility.yul\":4449:4450   */\n      0x00\n        /* \"#utility.yul\":4446:4447   */\n      dup1\n        /* \"#utility.yul\":4439:4451   */\n      revert\n        /* \"#utility.yul\":4463:4580   */\n    tag_52:\n        /* \"#utility.yul\":4572:4573   */\n      0x00\n        /* \"#utility.yul\":4569:4570   */\n      dup1\n        /* \"#utility.yul\":4562:4574   */\n      revert\n        /* \"#utility.yul\":4586:4703   */\n    tag_53:\n        /* \"#utility.yul\":4695:4696   */\n      0x00\n        /* \"#utility.yul\":4692:4693   */\n      dup1\n        /* \"#utility.yul\":4685:4697   */\n      revert\n        /* \"#utility.yul\":4723:5276   */\n    tag_54:\n        /* \"#utility.yul\":4781:4789   */\n      0x00\n        /* \"#utility.yul\":4791:4797   */\n      dup1\n        /* \"#utility.yul\":4841:4844   */\n      dup4\n        /* \"#utility.yul\":4834:4838   */\n      0x1f\n        /* \"#utility.yul\":4826:4832   */\n      dup5\n        /* \"#utility.yul\":4822:4839   */\n      add\n        /* \"#utility.yul\":4818:4845   */\n      slt\n        /* \"#utility.yul\":4808:4930   */\n      tag_113\n      jumpi\n        /* \"#utility.yul\":4849:4928   */\n      tag_114\n      tag_51\n      jump\t// in\n    tag_114:\n        /* \"#utility.yul\":4808:4930   */\n    tag_113:\n        /* \"#utility.yul\":4962:4968   */\n      dup3\n        /* \"#utility.yul\":4949:4969   */\n      calldataload\n        /* \"#utility.yul\":4939:4969   */\n      swap1\n      pop\n        /* \"#utility.yul\":4992:5010   */\n      0xffffffffffffffff\n        /* \"#utility.yul\":4984:4990   */\n      dup2\n        /* \"#utility.yul\":4981:5011   */\n      gt\n        /* \"#utility.yul\":4978:5095   */\n      iszero\n      tag_115\n      jumpi\n        /* \"#utility.yul\":5014:5093   */\n      tag_116\n      tag_52\n      jump\t// in\n    tag_116:\n        /* \"#utility.yul\":4978:5095   */\n    tag_115:\n        /* \"#utility.yul\":5128:5132   */\n      0x20\n        /* \"#utility.yul\":5120:5126   */\n      dup4\n        /* \"#utility.yul\":5116:5133   */\n      add\n        /* \"#utility.yul\":5104:5133   */\n      swap2\n      pop\n        /* \"#utility.yul\":5182:5185   */\n      dup4\n        /* \"#utility.yul\":5174:5178   */\n      0x01\n        /* \"#utility.yul\":5166:5172   */\n      dup3\n        /* \"#utility.yul\":5162:5179   */\n      mul\n        /* \"#utility.yul\":5152:5160   */\n      dup4\n        /* \"#utility.yul\":5148:5180   */\n      add\n        /* \"#utility.yul\":5145:5186   */\n      gt\n        /* \"#utility.yul\":5142:5270   */\n      iszero\n      tag_117\n      jumpi\n        /* \"#utility.yul\":5189:5268   */\n      tag_118\n      tag_53\n      jump\t// in\n    tag_118:\n        /* \"#utility.yul\":5142:5270   */\n    tag_117:\n        /* \"#utility.yul\":4723:5276   */\n      swap3\n      pop\n      swap3\n      swap1\n      pop\n      jump\t// out\n        /* \"#utility.yul\":5282:6301   */\n    tag_18:\n        /* \"#utility.yul\":5383:5389   */\n      0x00\n        /* \"#utility.yul\":5391:5397   */\n      dup1\n        /* \"#utility.yul\":5399:5405   */\n      0x00\n        /* \"#utility.yul\":5407:5413   */\n      dup1\n        /* \"#utility.yul\":5415:5421   */\n      0x00\n        /* \"#utility.yul\":5464:5466   */\n      0x60\n        /* \"#utility.yul\":5452:5461   */\n      dup7\n        /* \"#utility.yul\":5443:5450   */\n      dup9\n        /* \"#utility.yul\":5439:5462   */\n      sub\n        /* \"#utility.yul\":5435:5467   */\n      slt\n        /* \"#utility.yul\":5432:5551   */\n      iszero\n      tag_120\n      jumpi\n        /* \"#utility.yul\":5470:5549   */\n      tag_121\n      tag_33\n      jump\t// in\n    tag_121:\n        /* \"#utility.yul\":5432:5551   */\n    tag_120:\n        /* \"#utility.yul\":5618:5619   */\n      0x00\n        /* \"#utility.yul\":5607:5616   */\n      dup7\n        /* \"#utility.yul\":5603:5620   */\n      add\n        /* \"#utility.yul\":5590:5621   */\n      calldataload\n        /* \"#utility.yul\":5648:5666   */\n      0xffffffffffffffff\n        /* \"#utility.yul\":5640:5646   */\n      dup2\n        /* \"#utility.yul\":5637:5667   */\n      gt\n        /* \"#utility.yul\":5634:5751   */\n      iszero\n      tag_122\n      jumpi\n        /* \"#utility.yul\":5670:5749   */\n      tag_123\n      tag_34\n      jump\t// in\n    tag_123:\n        /* \"#utility.yul\":5634:5751   */\n    tag_122:\n        /* \"#utility.yul\":5783:5848   */\n      tag_124\n        /* \"#utility.yul\":5840:5847   */\n      dup9\n        /* \"#utility.yul\":5831:5837   */\n      dup3\n        /* \"#utility.yul\":5820:5829   */\n      dup10\n        /* \"#utility.yul\":5816:5838   */\n      add\n        /* \"#utility.yul\":5783:5848   */\n      tag_54\n      jump\t// in\n    tag_124:\n        /* \"#utility.yul\":5765:5848   */\n      swap6\n      pop\n      swap6\n      pop\n        /* \"#utility.yul\":5561:5858   */\n      pop\n        /* \"#utility.yul\":5925:5927   */\n      0x20\n        /* \"#utility.yul\":5914:5923   */\n      dup7\n        /* \"#utility.yul\":5910:5928   */\n      add\n        /* \"#utility.yul\":5897:5929   */\n      calldataload\n        /* \"#utility.yul\":5956:5974   */\n      0xffffffffffffffff\n        /* \"#utility.yul\":5948:5954   */\n      dup2\n        /* \"#utility.yul\":5945:5975   */\n      gt\n        /* \"#utility.yul\":5942:6059   */\n      iszero\n      tag_125\n      jumpi\n        /* \"#utility.yul\":5978:6057   */\n      tag_126\n      tag_34\n      jump\t// in\n    tag_126:\n        /* \"#utility.yul\":5942:6059   */\n    tag_125:\n        /* \"#utility.yul\":6091:6156   */\n      tag_127\n        /* \"#utility.yul\":6148:6155   */\n      dup9\n        /* \"#utility.yul\":6139:6145   */\n      dup3\n        /* \"#utility.yul\":6128:6137   */\n      dup10\n        /* \"#utility.yul\":6124:6146   */\n      add\n        /* \"#utility.yul\":6091:6156   */\n      tag_54\n      jump\t// in\n    tag_127:\n        /* \"#utility.yul\":6073:6156   */\n      swap4\n      pop\n      swap4\n      pop\n        /* \"#utility.yul\":5868:6166   */\n      pop\n        /* \"#utility.yul\":6205:6207   */\n      0x40\n        /* \"#utility.yul\":6231:6284   */\n      tag_128\n        /* \"#utility.yul\":6276:6283   */\n      dup9\n        /* \"#utility.yul\":6267:6273   */\n      dup3\n        /* \"#utility.yul\":6256:6265   */\n      dup10\n        /* \"#utility.yul\":6252:6274   */\n      add\n        /* \"#utility.yul\":6231:6284   */\n      tag_37\n      jump\t// in\n    tag_128:\n        /* \"#utility.yul\":6221:6284   */\n      swap2\n      pop\n        /* \"#utility.yul\":6176:6294   */\n      pop\n        /* \"#utility.yul\":5282:6301   */\n      swap3\n      swap6\n      pop\n      swap3\n      swap6\n      swap1\n      swap4\n      pop\n      jump\t// out\n        /* \"#utility.yul\":6307:6476   */\n    tag_55:\n        /* \"#utility.yul\":6391:6402   */\n      0x00\n        /* \"#utility.yul\":6425:6431   */\n      dup3\n        /* \"#utility.yul\":6420:6423   */\n      dup3\n        /* \"#utility.yul\":6413:6432   */\n      mstore\n        /* \"#utility.yul\":6465:6469   */\n      0x20\n        /* \"#utility.yul\":6460:6463   */\n      dup3\n        /* \"#utility.yul\":6456:6470   */\n      add\n        /* \"#utility.yul\":6441:6470   */\n      swap1\n      pop\n        /* \"#utility.yul\":6307:6476   */\n      swap3\n      swap2\n      pop\n      pop\n      jump\t// out\n        /* \"#utility.yul\":6482:6636   */\n    tag_56:\n        /* \"#utility.yul\":6566:6572   */\n      dup3\n        /* \"#utility.yul\":6561:6564   */\n      dup2\n        /* \"#utility.yul\":6556:6559   */\n      dup4\n        /* \"#utility.yul\":6543:6573   */\n      calldatacopy\n        /* \"#utility.yul\":6628:6629   */\n      0x00\n        /* \"#utility.yul\":6619:6625   */\n      dup4\n        /* \"#utility.yul\":6614:6617   */\n      dup4\n        /* \"#utility.yul\":6610:6626   */\n      add\n        /* \"#utility.yul\":6603:6630   */\n      mstore\n        /* \"#utility.yul\":6482:6636   */\n      pop\n      pop\n      pop\n      jump\t// out\n        /* \"#utility.yul\":6642:6744   */\n    tag_57:\n        /* \"#utility.yul\":6683:6689   */\n      0x00\n        /* \"#utility.yul\":6734:6736   */\n      0x1f\n        /* \"#utility.yul\":6730:6737   */\n      not\n        /* \"#utility.yul\":6725:6727   */\n      0x1f\n        /* \"#utility.yul\":6718:6723   */\n      dup4\n        /* \"#utility.yul\":6714:6728   */\n      add\n        /* \"#utility.yul\":6710:6738   */\n      and\n        /* \"#utility.yul\":6700:6738   */\n      swap1\n      pop\n        /* \"#utility.yul\":6642:6744   */\n      swap2\n      swap1\n      pop\n      jump\t// out\n        /* \"#utility.yul\":6774:7078   */\n    tag_58:\n        /* \"#utility.yul\":6872:6875   */\n      0x00\n        /* \"#utility.yul\":6893:6964   */\n      tag_133\n        /* \"#utility.yul\":6957:6963   */\n      dup4\n        /* \"#utility.yul\":6952:6955   */\n      dup6\n        /* \"#utility.yul\":6893:6964   */\n      tag_55\n      jump\t// in\n    tag_133:\n        /* \"#utility.yul\":6886:6964   */\n      swap4\n      pop\n        /* \"#utility.yul\":6974:7017   */\n      tag_134\n        /* \"#utility.yul\":7010:7016   */\n      dup4\n        /* \"#utility.yul\":7005:7008   */\n      dup6\n        /* \"#utility.yul\":6998:7003   */\n      dup5\n        /* \"#utility.yul\":6974:7017   */\n      tag_56\n      jump\t// in\n    tag_134:\n        /* \"#utility.yul\":7042:7071   */\n      tag_135\n        /* \"#utility.yul\":7064:7070   */\n      dup4\n        /* \"#utility.yul\":7042:7071   */\n      tag_57\n      jump\t// in\n    tag_135:\n        /* \"#utility.yul\":7037:7040   */\n      dup5\n        /* \"#utility.yul\":7033:7072   */\n      add\n        /* \"#utility.yul\":7026:7072   */\n      swap1\n      pop\n        /* \"#utility.yul\":6774:7078   */\n      swap4\n      swap3\n      pop\n      pop\n      pop\n      jump\t// out\n        /* \"#utility.yul\":7084:7202   */\n    tag_59:\n        /* \"#utility.yul\":7171:7195   */\n      tag_137\n        /* \"#utility.yul\":7189:7194   */\n      dup2\n        /* \"#utility.yul\":7171:7195   */\n      tag_35\n      jump\t// in\n    tag_137:\n        /* \"#utility.yul\":7166:7169   */\n      dup3\n        /* \"#utility.yul\":7159:7196   */\n      mstore\n        /* \"#utility.yul\":7084:7202   */\n      pop\n      pop\n      jump\t// out\n        /* \"#utility.yul\":7208:7304   */\n    tag_60:\n        /* \"#utility.yul\":7245:7252   */\n      0x00\n        /* \"#utility.yul\":7274:7298   */\n      tag_139\n        /* \"#utility.yul\":7292:7297   */\n      dup3\n        /* \"#utility.yul\":7274:7298   */\n      tag_38\n      jump\t// in\n    tag_139:\n        /* \"#utility.yul\":7263:7298   */\n      swap1\n      pop\n        /* \"#utility.yul\":7208:7304   */\n      swap2\n      swap1\n      pop\n      jump\t// out\n        /* \"#utility.yul\":7310:7428   */\n    tag_61:\n        /* \"#utility.yul\":7397:7421   */\n      tag_141\n        /* \"#utility.yul\":7415:7420   */\n      dup2\n        /* \"#utility.yul\":7397:7421   */\n      tag_60\n      jump\t// in\n    tag_141:\n        /* \"#utility.yul\":7392:7395   */\n      dup3\n        /* \"#utility.yul\":7385:7422   */\n      mstore\n        /* \"#utility.yul\":7310:7428   */\n      pop\n      pop\n      jump\t// out\n        /* \"#utility.yul\":7434:8209   */\n    tag_29:\n        /* \"#utility.yul\":7671:7675   */\n      0x00\n        /* \"#utility.yul\":7709:7712   */\n      0x80\n        /* \"#utility.yul\":7698:7707   */\n      dup3\n        /* \"#utility.yul\":7694:7713   */\n      add\n        /* \"#utility.yul\":7686:7713   */\n      swap1\n      pop\n        /* \"#utility.yul\":7759:7768   */\n      dup2\n        /* \"#utility.yul\":7753:7757   */\n      dup2\n        /* \"#utility.yul\":7749:7769   */\n      sub\n        /* \"#utility.yul\":7745:7746   */\n      0x00\n        /* \"#utility.yul\":7734:7743   */\n      dup4\n        /* \"#utility.yul\":7730:7747   */\n      add\n        /* \"#utility.yul\":7723:7770   */\n      mstore\n        /* \"#utility.yul\":7787:7875   */\n      tag_143\n        /* \"#utility.yul\":7870:7874   */\n      dup2\n        /* \"#utility.yul\":7861:7867   */\n      dup9\n        /* \"#utility.yul\":7853:7859   */\n      dup11\n        /* \"#utility.yul\":7787:7875   */\n      tag_58\n      jump\t// in\n    tag_143:\n        /* \"#utility.yul\":7779:7875   */\n      swap1\n      pop\n        /* \"#utility.yul\":7922:7931   */\n      dup2\n        /* \"#utility.yul\":7916:7920   */\n      dup2\n        /* \"#utility.yul\":7912:7932   */\n      sub\n        /* \"#utility.yul\":7907:7909   */\n      0x20\n        /* \"#utility.yul\":7896:7905   */\n      dup4\n        /* \"#utility.yul\":7892:7910   */\n      add\n        /* \"#utility.yul\":7885:7933   */\n      mstore\n        /* \"#utility.yul\":7950:8038   */\n      tag_144\n        /* \"#utility.yul\":8033:8037   */\n      dup2\n        /* \"#utility.yul\":8024:8030   */\n      dup7\n        /* \"#utility.yul\":8016:8022   */\n      dup9\n        /* \"#utility.yul\":7950:8038   */\n      tag_58\n      jump\t// in\n    tag_144:\n        /* \"#utility.yul\":7942:8038   */\n      swap1\n      pop\n        /* \"#utility.yul\":8048:8120   */\n      tag_145\n        /* \"#utility.yul\":8116:8118   */\n      0x40\n        /* \"#utility.yul\":8105:8114   */\n      dup4\n        /* \"#utility.yul\":8101:8119   */\n      add\n        /* \"#utility.yul\":8092:8098   */\n      dup6\n        /* \"#utility.yul\":8048:8120   */\n      tag_59\n      jump\t// in\n    tag_145:\n        /* \"#utility.yul\":8130:8202   */\n      tag_146\n        /* \"#utility.yul\":8198:8200   */\n      0x60\n        /* \"#utility.yul\":8187:8196   */\n      dup4\n        /* \"#utility.yul\":8183:8201   */\n      add\n        /* \"#utility.yul\":8174:8180   */\n      dup5\n        /* \"#utility.yul\":8130:8202   */\n      tag_61\n      jump\t// in\n    tag_146:\n        /* \"#utility.yul\":7434:8209   */\n      swap8\n      swap7\n      pop\n      pop\n      pop\n      pop\n      pop\n      pop\n      pop\n      jump\t// out\n    stop\n\n    sub_0: assembly {\n            /* \"Campaign.sol\":530:3798  contract Campaign {... */\n          mstore(0x40, 0x80)\n            /* \"Campaign.sol\":1190:1430  constructor(string memory title,string memory description,uint minimum, address creator) {... */\n          callvalue\n          dup1\n          iszero\n          tag_1\n          jumpi\n          0x00\n          dup1\n          revert\n        tag_1:\n          pop\n          mload(0x40)\n          sub(codesize, bytecodeSize)\n          dup1\n          bytecodeSize\n          dup4\n          codecopy\n          dup2\n          dup2\n          add\n          0x40\n          mstore\n          dup2\n          add\n          swap1\n          tag_2\n          swap2\n          swap1\n          tag_3\n          jump\t// in\n        tag_2:\n            /* \"Campaign.sol\":1305:1310  title */\n          dup4\n            /* \"Campaign.sol\":1290:1303  campaignTitle */\n          0x01\n            /* \"Campaign.sol\":1290:1310  campaignTitle= title */\n          swap1\n          dup1\n          mload\n          swap1\n          0x20\n          add\n          swap1\n          tag_6\n          swap3\n          swap2\n          swap1\n          tag_7\n          jump\t// in\n        tag_6:\n          pop\n            /* \"Campaign.sol\":1343:1354  description */\n          dup3\n            /* \"Campaign.sol\":1321:1340  campaignDescription */\n          0x02\n            /* \"Campaign.sol\":1321:1354  campaignDescription = description */\n          swap1\n          dup1\n          mload\n          swap1\n          0x20\n          add\n          swap1\n          tag_8\n          swap3\n          swap2\n          swap1\n          tag_7\n          jump\t// in\n        tag_8:\n          pop\n            /* \"Campaign.sol\":1375:1382  creator */\n          dup1\n            /* \"Campaign.sol\":1365:1372  manager */\n          0x00\n          dup1\n            /* \"Campaign.sol\":1365:1382  manager = creator */\n          0x0100\n          exp\n          dup2\n          sload\n          dup2\n          0xffffffffffffffffffffffffffffffffffffffff\n          mul\n          not\n          and\n          swap1\n          dup4\n          0xffffffffffffffffffffffffffffffffffffffff\n          and\n          mul\n          or\n          swap1\n          sstore\n          pop\n            /* \"Campaign.sol\":1415:1422  minimum */\n          dup2\n            /* \"Campaign.sol\":1393:1412  minimumContribution */\n          0x03\n            /* \"Campaign.sol\":1393:1422  minimumContribution = minimum */\n          dup2\n          swap1\n          sstore\n          pop\n            /* \"Campaign.sol\":1190:1430  constructor(string memory title,string memory description,uint minimum, address creator) {... */\n          pop\n          pop\n          pop\n          pop\n            /* \"Campaign.sol\":530:3798  contract Campaign {... */\n          jump(tag_9)\n        tag_7:\n          dup3\n          dup1\n          sload\n          tag_10\n          swap1\n          tag_11\n          jump\t// in\n        tag_10:\n          swap1\n          0x00\n          mstore\n          keccak256(0x00, 0x20)\n          swap1\n          0x1f\n          add\n          0x20\n          swap1\n          div\n          dup2\n          add\n          swap3\n          dup3\n          tag_13\n          jumpi\n          0x00\n          dup6\n          sstore\n          jump(tag_12)\n        tag_13:\n          dup3\n          0x1f\n          lt\n          tag_14\n          jumpi\n          dup1\n          mload\n          not(0xff)\n          and\n          dup4\n          dup1\n          add\n          or\n          dup6\n          sstore\n          jump(tag_12)\n        tag_14:\n          dup3\n          dup1\n          add\n          0x01\n          add\n          dup6\n          sstore\n          dup3\n          iszero\n          tag_12\n          jumpi\n          swap2\n          dup3\n          add\n        tag_15:\n          dup3\n          dup2\n          gt\n          iszero\n          tag_16\n          jumpi\n          dup3\n          mload\n          dup3\n          sstore\n          swap2\n          0x20\n          add\n          swap2\n          swap1\n          0x01\n          add\n          swap1\n          jump(tag_15)\n        tag_16:\n        tag_12:\n          pop\n          swap1\n          pop\n          tag_17\n          swap2\n          swap1\n          tag_18\n          jump\t// in\n        tag_17:\n          pop\n          swap1\n          jump\t// out\n        tag_18:\n        tag_19:\n          dup1\n          dup3\n          gt\n          iszero\n          tag_20\n          jumpi\n          0x00\n          dup2\n          0x00\n          swap1\n          sstore\n          pop\n          0x01\n          add\n          jump(tag_19)\n        tag_20:\n          pop\n          swap1\n          jump\t// out\n            /* \"#utility.yul\":7:82   */\n        tag_21:\n            /* \"#utility.yul\":40:46   */\n          0x00\n            /* \"#utility.yul\":73:75   */\n          0x40\n            /* \"#utility.yul\":67:76   */\n          mload\n            /* \"#utility.yul\":57:76   */\n          swap1\n          pop\n            /* \"#utility.yul\":7:82   */\n          swap1\n          jump\t// out\n            /* \"#utility.yul\":88:205   */\n        tag_22:\n            /* \"#utility.yul\":197:198   */\n          0x00\n            /* \"#utility.yul\":194:195   */\n          dup1\n            /* \"#utility.yul\":187:199   */\n          revert\n            /* \"#utility.yul\":211:328   */\n        tag_23:\n            /* \"#utility.yul\":320:321   */\n          0x00\n            /* \"#utility.yul\":317:318   */\n          dup1\n            /* \"#utility.yul\":310:322   */\n          revert\n            /* \"#utility.yul\":334:451   */\n        tag_24:\n            /* \"#utility.yul\":443:444   */\n          0x00\n            /* \"#utility.yul\":440:441   */\n          dup1\n            /* \"#utility.yul\":433:445   */\n          revert\n            /* \"#utility.yul\":457:574   */\n        tag_25:\n            /* \"#utility.yul\":566:567   */\n          0x00\n            /* \"#utility.yul\":563:564   */\n          dup1\n            /* \"#utility.yul\":556:568   */\n          revert\n            /* \"#utility.yul\":580:682   */\n        tag_26:\n            /* \"#utility.yul\":621:627   */\n          0x00\n            /* \"#utility.yul\":672:674   */\n          0x1f\n            /* \"#utility.yul\":668:675   */\n          not\n            /* \"#utility.yul\":663:665   */\n          0x1f\n            /* \"#utility.yul\":656:661   */\n          dup4\n            /* \"#utility.yul\":652:666   */\n          add\n            /* \"#utility.yul\":648:676   */\n          and\n            /* \"#utility.yul\":638:676   */\n          swap1\n          pop\n            /* \"#utility.yul\":580:682   */\n          swap2\n          swap1\n          pop\n          jump\t// out\n            /* \"#utility.yul\":688:868   */\n        tag_27:\n            /* \"#utility.yul\":736:813   */\n          0x4e487b7100000000000000000000000000000000000000000000000000000000\n            /* \"#utility.yul\":733:734   */\n          0x00\n            /* \"#utility.yul\":726:814   */\n          mstore\n            /* \"#utility.yul\":833:837   */\n          0x41\n            /* \"#utility.yul\":830:831   */\n          0x04\n            /* \"#utility.yul\":823:838   */\n          mstore\n            /* \"#utility.yul\":857:861   */\n          0x24\n            /* \"#utility.yul\":854:855   */\n          0x00\n            /* \"#utility.yul\":847:862   */\n          revert\n            /* \"#utility.yul\":874:1155   */\n        tag_28:\n            /* \"#utility.yul\":957:984   */\n          tag_51\n            /* \"#utility.yul\":979:983   */\n          dup3\n            /* \"#utility.yul\":957:984   */\n          tag_26\n          jump\t// in\n        tag_51:\n            /* \"#utility.yul\":949:955   */\n          dup2\n            /* \"#utility.yul\":945:985   */\n          add\n            /* \"#utility.yul\":1087:1093   */\n          dup2\n            /* \"#utility.yul\":1075:1085   */\n          dup2\n            /* \"#utility.yul\":1072:1094   */\n          lt\n            /* \"#utility.yul\":1051:1069   */\n          0xffffffffffffffff\n            /* \"#utility.yul\":1039:1049   */\n          dup3\n            /* \"#utility.yul\":1036:1070   */\n          gt\n            /* \"#utility.yul\":1033:1095   */\n          or\n            /* \"#utility.yul\":1030:1118   */\n          iszero\n          tag_52\n          jumpi\n            /* \"#utility.yul\":1098:1116   */\n          tag_53\n          tag_27\n          jump\t// in\n        tag_53:\n            /* \"#utility.yul\":1030:1118   */\n        tag_52:\n            /* \"#utility.yul\":1138:1148   */\n          dup1\n            /* \"#utility.yul\":1134:1136   */\n          0x40\n            /* \"#utility.yul\":1127:1149   */\n          mstore\n            /* \"#utility.yul\":917:1155   */\n          pop\n            /* \"#utility.yul\":874:1155   */\n          pop\n          pop\n          jump\t// out\n            /* \"#utility.yul\":1161:1290   */\n        tag_29:\n            /* \"#utility.yul\":1195:1201   */\n          0x00\n            /* \"#utility.yul\":1222:1242   */\n          tag_55\n          tag_21\n          jump\t// in\n        tag_55:\n            /* \"#utility.yul\":1212:1242   */\n          swap1\n          pop\n            /* \"#utility.yul\":1251:1284   */\n          tag_56\n            /* \"#utility.yul\":1279:1283   */\n          dup3\n            /* \"#utility.yul\":1271:1277   */\n          dup3\n            /* \"#utility.yul\":1251:1284   */\n          tag_28\n          jump\t// in\n        tag_56:\n            /* \"#utility.yul\":1161:1290   */\n          swap2\n          swap1\n          pop\n          jump\t// out\n            /* \"#utility.yul\":1296:1604   */\n        tag_30:\n            /* \"#utility.yul\":1358:1362   */\n          0x00\n            /* \"#utility.yul\":1448:1466   */\n          0xffffffffffffffff\n            /* \"#utility.yul\":1440:1446   */\n          dup3\n            /* \"#utility.yul\":1437:1467   */\n          gt\n            /* \"#utility.yul\":1434:1490   */\n          iszero\n          tag_58\n          jumpi\n            /* \"#utility.yul\":1470:1488   */\n          tag_59\n          tag_27\n          jump\t// in\n        tag_59:\n            /* \"#utility.yul\":1434:1490   */\n        tag_58:\n            /* \"#utility.yul\":1508:1537   */\n          tag_60\n            /* \"#utility.yul\":1530:1536   */\n          dup3\n            /* \"#utility.yul\":1508:1537   */\n          tag_26\n          jump\t// in\n        tag_60:\n            /* \"#utility.yul\":1500:1537   */\n          swap1\n          pop\n            /* \"#utility.yul\":1592:1596   */\n          0x20\n            /* \"#utility.yul\":1586:1590   */\n          dup2\n            /* \"#utility.yul\":1582:1597   */\n          add\n            /* \"#utility.yul\":1574:1597   */\n          swap1\n          pop\n            /* \"#utility.yul\":1296:1604   */\n          swap2\n          swap1\n          pop\n          jump\t// out\n            /* \"#utility.yul\":1610:1917   */\n        tag_31:\n            /* \"#utility.yul\":1678:1679   */\n          0x00\n            /* \"#utility.yul\":1688:1801   */\n        tag_62:\n            /* \"#utility.yul\":1702:1708   */\n          dup4\n            /* \"#utility.yul\":1699:1700   */\n          dup2\n            /* \"#utility.yul\":1696:1709   */\n          lt\n            /* \"#utility.yul\":1688:1801   */\n          iszero\n          tag_64\n          jumpi\n            /* \"#utility.yul\":1787:1788   */\n          dup1\n            /* \"#utility.yul\":1782:1785   */\n          dup3\n            /* \"#utility.yul\":1778:1789   */\n          add\n            /* \"#utility.yul\":1772:1790   */\n          mload\n            /* \"#utility.yul\":1768:1769   */\n          dup2\n            /* \"#utility.yul\":1763:1766   */\n          dup5\n            /* \"#utility.yul\":1759:1770   */\n          add\n            /* \"#utility.yul\":1752:1791   */\n          mstore\n            /* \"#utility.yul\":1724:1726   */\n          0x20\n            /* \"#utility.yul\":1721:1722   */\n          dup2\n            /* \"#utility.yul\":1717:1727   */\n          add\n            /* \"#utility.yul\":1712:1727   */\n          swap1\n          pop\n            /* \"#utility.yul\":1688:1801   */\n          jump(tag_62)\n        tag_64:\n            /* \"#utility.yul\":1819:1825   */\n          dup4\n            /* \"#utility.yul\":1816:1817   */\n          dup2\n            /* \"#utility.yul\":1813:1826   */\n          gt\n            /* \"#utility.yul\":1810:1911   */\n          iszero\n          tag_65\n          jumpi\n            /* \"#utility.yul\":1899:1900   */\n          0x00\n            /* \"#utility.yul\":1890:1896   */\n          dup5\n            /* \"#utility.yul\":1885:1888   */\n          dup5\n            /* \"#utility.yul\":1881:1897   */\n          add\n            /* \"#utility.yul\":1874:1901   */\n          mstore\n            /* \"#utility.yul\":1810:1911   */\n        tag_65:\n            /* \"#utility.yul\":1659:1917   */\n          pop\n            /* \"#utility.yul\":1610:1917   */\n          pop\n          pop\n          pop\n          jump\t// out\n            /* \"#utility.yul\":1923:2344   */\n        tag_32:\n            /* \"#utility.yul\":2012:2017   */\n          0x00\n            /* \"#utility.yul\":2037:2103   */\n          tag_67\n            /* \"#utility.yul\":2053:2102   */\n          tag_68\n            /* \"#utility.yul\":2095:2101   */\n          dup5\n            /* \"#utility.yul\":2053:2102   */\n          tag_30\n          jump\t// in\n        tag_68:\n            /* \"#utility.yul\":2037:2103   */\n          tag_29\n          jump\t// in\n        tag_67:\n            /* \"#utility.yul\":2028:2103   */\n          swap1\n          pop\n            /* \"#utility.yul\":2126:2132   */\n          dup3\n            /* \"#utility.yul\":2119:2124   */\n          dup2\n            /* \"#utility.yul\":2112:2133   */\n          mstore\n            /* \"#utility.yul\":2164:2168   */\n          0x20\n            /* \"#utility.yul\":2157:2162   */\n          dup2\n            /* \"#utility.yul\":2153:2169   */\n          add\n            /* \"#utility.yul\":2202:2205   */\n          dup5\n            /* \"#utility.yul\":2193:2199   */\n          dup5\n            /* \"#utility.yul\":2188:2191   */\n          dup5\n            /* \"#utility.yul\":2184:2200   */\n          add\n            /* \"#utility.yul\":2181:2206   */\n          gt\n            /* \"#utility.yul\":2178:2290   */\n          iszero\n          tag_69\n          jumpi\n            /* \"#utility.yul\":2209:2288   */\n          tag_70\n          tag_25\n          jump\t// in\n        tag_70:\n            /* \"#utility.yul\":2178:2290   */\n        tag_69:\n            /* \"#utility.yul\":2299:2338   */\n          tag_71\n            /* \"#utility.yul\":2331:2337   */\n          dup5\n            /* \"#utility.yul\":2326:2329   */\n          dup3\n            /* \"#utility.yul\":2321:2324   */\n          dup6\n            /* \"#utility.yul\":2299:2338   */\n          tag_31\n          jump\t// in\n        tag_71:\n            /* \"#utility.yul\":2018:2344   */\n          pop\n            /* \"#utility.yul\":1923:2344   */\n          swap4\n          swap3\n          pop\n          pop\n          pop\n          jump\t// out\n            /* \"#utility.yul\":2364:2719   */\n        tag_33:\n            /* \"#utility.yul\":2431:2436   */\n          0x00\n            /* \"#utility.yul\":2480:2483   */\n          dup3\n            /* \"#utility.yul\":2473:2477   */\n          0x1f\n            /* \"#utility.yul\":2465:2471   */\n          dup4\n            /* \"#utility.yul\":2461:2478   */\n          add\n            /* \"#utility.yul\":2457:2484   */\n          slt\n            /* \"#utility.yul\":2447:2569   */\n          tag_73\n          jumpi\n            /* \"#utility.yul\":2488:2567   */\n          tag_74\n          tag_24\n          jump\t// in\n        tag_74:\n            /* \"#utility.yul\":2447:2569   */\n        tag_73:\n            /* \"#utility.yul\":2598:2604   */\n          dup2\n            /* \"#utility.yul\":2592:2605   */\n          mload\n            /* \"#utility.yul\":2623:2713   */\n          tag_75\n            /* \"#utility.yul\":2709:2712   */\n          dup5\n            /* \"#utility.yul\":2701:2707   */\n          dup3\n            /* \"#utility.yul\":2694:2698   */\n          0x20\n            /* \"#utility.yul\":2686:2692   */\n          dup7\n            /* \"#utility.yul\":2682:2699   */\n          add\n            /* \"#utility.yul\":2623:2713   */\n          tag_32\n          jump\t// in\n        tag_75:\n            /* \"#utility.yul\":2614:2713   */\n          swap2\n          pop\n            /* \"#utility.yul\":2437:2719   */\n          pop\n            /* \"#utility.yul\":2364:2719   */\n          swap3\n          swap2\n          pop\n          pop\n          jump\t// out\n            /* \"#utility.yul\":2725:2802   */\n        tag_34:\n            /* \"#utility.yul\":2762:2769   */\n          0x00\n            /* \"#utility.yul\":2791:2796   */\n          dup2\n            /* \"#utility.yul\":2780:2796   */\n          swap1\n          pop\n            /* \"#utility.yul\":2725:2802   */\n          swap2\n          swap1\n          pop\n          jump\t// out\n            /* \"#utility.yul\":2808:2930   */\n        tag_35:\n            /* \"#utility.yul\":2881:2905   */\n          tag_78\n            /* \"#utility.yul\":2899:2904   */\n          dup2\n            /* \"#utility.yul\":2881:2905   */\n          tag_34\n          jump\t// in\n        tag_78:\n            /* \"#utility.yul\":2874:2879   */\n          dup2\n            /* \"#utility.yul\":2871:2906   */\n          eq\n            /* \"#utility.yul\":2861:2924   */\n          tag_79\n          jumpi\n            /* \"#utility.yul\":2920:2921   */\n          0x00\n            /* \"#utility.yul\":2917:2918   */\n          dup1\n            /* \"#utility.yul\":2910:2922   */\n          revert\n            /* \"#utility.yul\":2861:2924   */\n        tag_79:\n            /* \"#utility.yul\":2808:2930   */\n          pop\n          jump\t// out\n            /* \"#utility.yul\":2936:3079   */\n        tag_36:\n            /* \"#utility.yul\":2993:2998   */\n          0x00\n            /* \"#utility.yul\":3024:3030   */\n          dup2\n            /* \"#utility.yul\":3018:3031   */\n          mload\n            /* \"#utility.yul\":3009:3031   */\n          swap1\n          pop\n            /* \"#utility.yul\":3040:3073   */\n          tag_81\n            /* \"#utility.yul\":3067:3072   */\n          dup2\n            /* \"#utility.yul\":3040:3073   */\n          tag_35\n          jump\t// in\n        tag_81:\n            /* \"#utility.yul\":2936:3079   */\n          swap3\n          swap2\n          pop\n          pop\n          jump\t// out\n            /* \"#utility.yul\":3085:3211   */\n        tag_37:\n            /* \"#utility.yul\":3122:3129   */\n          0x00\n            /* \"#utility.yul\":3162:3204   */\n          0xffffffffffffffffffffffffffffffffffffffff\n            /* \"#utility.yul\":3155:3160   */\n          dup3\n            /* \"#utility.yul\":3151:3205   */\n          and\n            /* \"#utility.yul\":3140:3205   */\n          swap1\n          pop\n            /* \"#utility.yul\":3085:3211   */\n          swap2\n          swap1\n          pop\n          jump\t// out\n            /* \"#utility.yul\":3217:3313   */\n        tag_38:\n            /* \"#utility.yul\":3254:3261   */\n          0x00\n            /* \"#utility.yul\":3283:3307   */\n          tag_84\n            /* \"#utility.yul\":3301:3306   */\n          dup3\n            /* \"#utility.yul\":3283:3307   */\n          tag_37\n          jump\t// in\n        tag_84:\n            /* \"#utility.yul\":3272:3307   */\n          swap1\n          pop\n            /* \"#utility.yul\":3217:3313   */\n          swap2\n          swap1\n          pop\n          jump\t// out\n            /* \"#utility.yul\":3319:3441   */\n        tag_39:\n            /* \"#utility.yul\":3392:3416   */\n          tag_86\n            /* \"#utility.yul\":3410:3415   */\n          dup2\n            /* \"#utility.yul\":3392:3416   */\n          tag_38\n          jump\t// in\n        tag_86:\n            /* \"#utility.yul\":3385:3390   */\n          dup2\n            /* \"#utility.yul\":3382:3417   */\n          eq\n            /* \"#utility.yul\":3372:3435   */\n          tag_87\n          jumpi\n            /* \"#utility.yul\":3431:3432   */\n          0x00\n            /* \"#utility.yul\":3428:3429   */\n          dup1\n            /* \"#utility.yul\":3421:3433   */\n          revert\n            /* \"#utility.yul\":3372:3435   */\n        tag_87:\n            /* \"#utility.yul\":3319:3441   */\n          pop\n          jump\t// out\n            /* \"#utility.yul\":3447:3590   */\n        tag_40:\n            /* \"#utility.yul\":3504:3509   */\n          0x00\n            /* \"#utility.yul\":3535:3541   */\n          dup2\n            /* \"#utility.yul\":3529:3542   */\n          mload\n            /* \"#utility.yul\":3520:3542   */\n          swap1\n          pop\n            /* \"#utility.yul\":3551:3584   */\n          tag_89\n            /* \"#utility.yul\":3578:3583   */\n          dup2\n            /* \"#utility.yul\":3551:3584   */\n          tag_39\n          jump\t// in\n        tag_89:\n            /* \"#utility.yul\":3447:3590   */\n          swap3\n          swap2\n          pop\n          pop\n          jump\t// out\n            /* \"#utility.yul\":3596:4762   */\n        tag_3:\n            /* \"#utility.yul\":3713:3719   */\n          0x00\n            /* \"#utility.yul\":3721:3727   */\n          dup1\n            /* \"#utility.yul\":3729:3735   */\n          0x00\n            /* \"#utility.yul\":3737:3743   */\n          dup1\n            /* \"#utility.yul\":3786:3789   */\n          0x80\n            /* \"#utility.yul\":3774:3783   */\n          dup6\n            /* \"#utility.yul\":3765:3772   */\n          dup8\n            /* \"#utility.yul\":3761:3784   */\n          sub\n            /* \"#utility.yul\":3757:3790   */\n          slt\n            /* \"#utility.yul\":3754:3874   */\n          iszero\n          tag_91\n          jumpi\n            /* \"#utility.yul\":3793:3872   */\n          tag_92\n          tag_22\n          jump\t// in\n        tag_92:\n            /* \"#utility.yul\":3754:3874   */\n        tag_91:\n            /* \"#utility.yul\":3934:3935   */\n          0x00\n            /* \"#utility.yul\":3923:3932   */\n          dup6\n            /* \"#utility.yul\":3919:3936   */\n          add\n            /* \"#utility.yul\":3913:3937   */\n          mload\n            /* \"#utility.yul\":3964:3982   */\n          0xffffffffffffffff\n            /* \"#utility.yul\":3956:3962   */\n          dup2\n            /* \"#utility.yul\":3953:3983   */\n          gt\n            /* \"#utility.yul\":3950:4067   */\n          iszero\n          tag_93\n          jumpi\n            /* \"#utility.yul\":3986:4065   */\n          tag_94\n          tag_23\n          jump\t// in\n        tag_94:\n            /* \"#utility.yul\":3950:4067   */\n        tag_93:\n            /* \"#utility.yul\":4091:4165   */\n          tag_95\n            /* \"#utility.yul\":4157:4164   */\n          dup8\n            /* \"#utility.yul\":4148:4154   */\n          dup3\n            /* \"#utility.yul\":4137:4146   */\n          dup9\n            /* \"#utility.yul\":4133:4155   */\n          add\n            /* \"#utility.yul\":4091:4165   */\n          tag_33\n          jump\t// in\n        tag_95:\n            /* \"#utility.yul\":4081:4165   */\n          swap5\n          pop\n            /* \"#utility.yul\":3884:4175   */\n          pop\n            /* \"#utility.yul\":4235:4237   */\n          0x20\n            /* \"#utility.yul\":4224:4233   */\n          dup6\n            /* \"#utility.yul\":4220:4238   */\n          add\n            /* \"#utility.yul\":4214:4239   */\n          mload\n            /* \"#utility.yul\":4266:4284   */\n          0xffffffffffffffff\n            /* \"#utility.yul\":4258:4264   */\n          dup2\n            /* \"#utility.yul\":4255:4285   */\n          gt\n            /* \"#utility.yul\":4252:4369   */\n          iszero\n          tag_96\n          jumpi\n            /* \"#utility.yul\":4288:4367   */\n          tag_97\n          tag_23\n          jump\t// in\n        tag_97:\n            /* \"#utility.yul\":4252:4369   */\n        tag_96:\n            /* \"#utility.yul\":4393:4467   */\n          tag_98\n            /* \"#utility.yul\":4459:4466   */\n          dup8\n            /* \"#utility.yul\":4450:4456   */\n          dup3\n            /* \"#utility.yul\":4439:4448   */\n          dup9\n            /* \"#utility.yul\":4435:4457   */\n          add\n            /* \"#utility.yul\":4393:4467   */\n          tag_33\n          jump\t// in\n        tag_98:\n            /* \"#utility.yul\":4383:4467   */\n          swap4\n          pop\n            /* \"#utility.yul\":4185:4477   */\n          pop\n            /* \"#utility.yul\":4516:4518   */\n          0x40\n            /* \"#utility.yul\":4542:4606   */\n          tag_99\n            /* \"#utility.yul\":4598:4605   */\n          dup8\n            /* \"#utility.yul\":4589:4595   */\n          dup3\n            /* \"#utility.yul\":4578:4587   */\n          dup9\n            /* \"#utility.yul\":4574:4596   */\n          add\n            /* \"#utility.yul\":4542:4606   */\n          tag_36\n          jump\t// in\n        tag_99:\n            /* \"#utility.yul\":4532:4606   */\n          swap3\n          pop\n            /* \"#utility.yul\":4487:4616   */\n          pop\n            /* \"#utility.yul\":4655:4657   */\n          0x60\n            /* \"#utility.yul\":4681:4745   */\n          tag_100\n            /* \"#utility.yul\":4737:4744   */\n          dup8\n            /* \"#utility.yul\":4728:4734   */\n          dup3\n            /* \"#utility.yul\":4717:4726   */\n          dup9\n            /* \"#utility.yul\":4713:4735   */\n          add\n            /* \"#utility.yul\":4681:4745   */\n          tag_40\n          jump\t// in\n        tag_100:\n            /* \"#utility.yul\":4671:4745   */\n          swap2\n          pop\n            /* \"#utility.yul\":4626:4755   */\n          pop\n            /* \"#utility.yul\":3596:4762   */\n          swap3\n          swap6\n          swap2\n          swap5\n          pop\n          swap3\n          pop\n          jump\t// out\n            /* \"#utility.yul\":4768:4948   */\n        tag_41:\n            /* \"#utility.yul\":4816:4893   */\n          0x4e487b7100000000000000000000000000000000000000000000000000000000\n            /* \"#utility.yul\":4813:4814   */\n          0x00\n            /* \"#utility.yul\":4806:4894   */\n          mstore\n            /* \"#utility.yul\":4913:4917   */\n          0x22\n            /* \"#utility.yul\":4910:4911   */\n          0x04\n            /* \"#utility.yul\":4903:4918   */\n          mstore\n            /* \"#utility.yul\":4937:4941   */\n          0x24\n            /* \"#utility.yul\":4934:4935   */\n          0x00\n            /* \"#utility.yul\":4927:4942   */\n          revert\n            /* \"#utility.yul\":4954:5274   */\n        tag_11:\n            /* \"#utility.yul\":4998:5004   */\n          0x00\n            /* \"#utility.yul\":5035:5036   */\n          0x02\n            /* \"#utility.yul\":5029:5033   */\n          dup3\n            /* \"#utility.yul\":5025:5037   */\n          div\n            /* \"#utility.yul\":5015:5037   */\n          swap1\n          pop\n            /* \"#utility.yul\":5082:5083   */\n          0x01\n            /* \"#utility.yul\":5076:5080   */\n          dup3\n            /* \"#utility.yul\":5072:5084   */\n          and\n            /* \"#utility.yul\":5103:5121   */\n          dup1\n            /* \"#utility.yul\":5093:5174   */\n          tag_103\n          jumpi\n            /* \"#utility.yul\":5159:5163   */\n          0x7f\n            /* \"#utility.yul\":5151:5157   */\n          dup3\n            /* \"#utility.yul\":5147:5164   */\n          and\n            /* \"#utility.yul\":5137:5164   */\n          swap2\n          pop\n            /* \"#utility.yul\":5093:5174   */\n        tag_103:\n            /* \"#utility.yul\":5221:5223   */\n          0x20\n            /* \"#utility.yul\":5213:5219   */\n          dup3\n            /* \"#utility.yul\":5210:5224   */\n          lt\n            /* \"#utility.yul\":5190:5208   */\n          dup2\n            /* \"#utility.yul\":5187:5225   */\n          sub\n            /* \"#utility.yul\":5184:5268   */\n          tag_104\n          jumpi\n            /* \"#utility.yul\":5240:5258   */\n          tag_105\n          tag_41\n          jump\t// in\n        tag_105:\n            /* \"#utility.yul\":5184:5268   */\n        tag_104:\n            /* \"#utility.yul\":5005:5274   */\n          pop\n            /* \"#utility.yul\":4954:5274   */\n          swap2\n          swap1\n          pop\n          jump\t// out\n            /* \"Campaign.sol\":530:3798  contract Campaign {... */\n        tag_9:\n          dataSize(sub_0)\n          dup1\n          dataOffset(sub_0)\n          0x00\n          codecopy\n          0x00\n          return\n        stop\n\n        sub_0: assembly {\n                /* \"Campaign.sol\":530:3798  contract Campaign {... */\n              mstore(0x40, 0x80)\n              jumpi(tag_1, lt(calldatasize, 0x04))\n              shr(0xe0, calldataload(0x00))\n              dup1\n              0x82fde093\n              gt\n              tag_15\n              jumpi\n              dup1\n              0x937e09b1\n              gt\n              tag_16\n              jumpi\n              dup1\n              0x937e09b1\n              eq\n              tag_11\n              jumpi\n              dup1\n              0x9fb42b1f\n              eq\n              tag_12\n              jumpi\n              dup1\n              0xd7bb99ba\n              eq\n              tag_13\n              jumpi\n              dup1\n              0xd7d1bbdb\n              eq\n              tag_14\n              jumpi\n              jump(tag_1)\n            tag_16:\n              dup1\n              0x82fde093\n              eq\n              tag_8\n              jumpi\n              dup1\n              0x835a6172\n              eq\n              tag_9\n              jumpi\n              dup1\n              0x8a9cfd55\n              eq\n              tag_10\n              jumpi\n              jump(tag_1)\n            tag_15:\n              dup1\n              0x03441006\n              eq\n              tag_2\n              jumpi\n              dup1\n              0x0a144391\n              eq\n              tag_3\n              jumpi\n              dup1\n              0x110842cb\n              eq\n              tag_4\n              jumpi\n              dup1\n              0x4051ddac\n              eq\n              tag_5\n              jumpi\n              dup1\n              0x40d9a6a6\n              eq\n              tag_6\n              jumpi\n              dup1\n              0x481c6a75\n              eq\n              tag_7\n              jumpi\n            tag_1:\n              0x00\n              dup1\n              revert\n                /* \"Campaign.sol\":3176:3487  function finalizeRequest(uint index) public restrictedToManager {... */\n            tag_2:\n              callvalue\n              dup1\n              iszero\n              tag_17\n              jumpi\n              0x00\n              dup1\n              revert\n            tag_17:\n              pop\n              tag_18\n              0x04\n              dup1\n              calldatasize\n              sub\n              dup2\n              add\n              swap1\n              tag_19\n              swap2\n              swap1\n              tag_20\n              jump\t// in\n            tag_19:\n              tag_21\n              jump\t// in\n            tag_18:\n              stop\n                /* \"Campaign.sol\":916:957  mapping(address => bool) public approvers */\n            tag_3:\n              callvalue\n              dup1\n              iszero\n              tag_22\n              jumpi\n              0x00\n              dup1\n              revert\n            tag_22:\n              pop\n              tag_23\n              0x04\n              dup1\n              calldatasize\n              sub\n              dup2\n              add\n              swap1\n              tag_24\n              swap2\n              swap1\n              tag_25\n              jump\t// in\n            tag_24:\n              tag_26\n              jump\t// in\n            tag_23:\n              mload(0x40)\n              tag_27\n              swap2\n              swap1\n              tag_28\n              jump\t// in\n            tag_27:\n              mload(0x40)\n              dup1\n              swap2\n              sub\n              swap1\n              return\n                /* \"Campaign.sol\":838:871  string public campaignDescription */\n            tag_4:\n              callvalue\n              dup1\n              iszero\n              tag_29\n              jumpi\n              0x00\n              dup1\n              revert\n            tag_29:\n              pop\n              tag_30\n              tag_31\n              jump\t// in\n            tag_30:\n              mload(0x40)\n              tag_32\n              swap2\n              swap1\n              tag_33\n              jump\t// in\n            tag_32:\n              mload(0x40)\n              dup1\n              swap2\n              sub\n              swap1\n              return\n                /* \"Campaign.sol\":3495:3795  function getSummary() public view returns(... */\n            tag_5:\n              callvalue\n              dup1\n              iszero\n              tag_34\n              jumpi\n              0x00\n              dup1\n              revert\n            tag_34:\n              pop\n              tag_35\n              tag_36\n              jump\t// in\n            tag_35:\n              mload(0x40)\n              tag_37\n              swap8\n              swap7\n              swap6\n              swap5\n              swap4\n              swap3\n              swap2\n              swap1\n              tag_38\n              jump\t// in\n            tag_37:\n              mload(0x40)\n              dup1\n              swap2\n              sub\n              swap1\n              return\n                /* \"Campaign.sol\":2129:2623  function fetchRequest(uint index) public view ... */\n            tag_6:\n              callvalue\n              dup1\n              iszero\n              tag_39\n              jumpi\n              0x00\n              dup1\n              revert\n            tag_39:\n              pop\n              tag_40\n              0x04\n              dup1\n              calldatasize\n              sub\n              dup2\n              add\n              swap1\n              tag_41\n              swap2\n              swap1\n              tag_20\n              jump\t// in\n            tag_41:\n              tag_42\n              jump\t// in\n            tag_40:\n              mload(0x40)\n              tag_43\n              swap6\n              swap5\n              swap4\n              swap3\n              swap2\n              swap1\n              tag_44\n              jump\t// in\n            tag_43:\n              mload(0x40)\n              dup1\n              swap2\n              sub\n              swap1\n              return\n                /* \"Campaign.sol\":775:797  address public manager */\n            tag_7:\n              callvalue\n              dup1\n              iszero\n              tag_45\n              jumpi\n              0x00\n              dup1\n              revert\n            tag_45:\n              pop\n              tag_46\n              tag_47\n              jump\t// in\n            tag_46:\n              mload(0x40)\n              tag_48\n              swap2\n              swap1\n              tag_49\n              jump\t// in\n            tag_48:\n              mload(0x40)\n              dup1\n              swap2\n              sub\n              swap1\n              return\n                /* \"Campaign.sol\":964:990  uint public approversCount */\n            tag_8:\n              callvalue\n              dup1\n              iszero\n              tag_50\n              jumpi\n              0x00\n              dup1\n              revert\n            tag_50:\n              pop\n              tag_51\n              tag_52\n              jump\t// in\n            tag_51:\n              mload(0x40)\n              tag_53\n              swap2\n              swap1\n              tag_54\n              jump\t// in\n            tag_53:\n              mload(0x40)\n              dup1\n              swap2\n              sub\n              swap1\n              return\n                /* \"Campaign.sol\":804:831  string public campaignTitle */\n            tag_9:\n              callvalue\n              dup1\n              iszero\n              tag_55\n              jumpi\n              0x00\n              dup1\n              revert\n            tag_55:\n              pop\n              tag_56\n              tag_57\n              jump\t// in\n            tag_56:\n              mload(0x40)\n              tag_58\n              swap2\n              swap1\n              tag_33\n              jump\t// in\n            tag_58:\n              mload(0x40)\n              dup1\n              swap2\n              sub\n              swap1\n              return\n                /* \"Campaign.sol\":1617:2121  function createRequest(string calldata description, uint value, address payable recipient) public restrictedToManager {... */\n            tag_10:\n              callvalue\n              dup1\n              iszero\n              tag_59\n              jumpi\n              0x00\n              dup1\n              revert\n            tag_59:\n              pop\n              tag_60\n              0x04\n              dup1\n              calldatasize\n              sub\n              dup2\n              add\n              swap1\n              tag_61\n              swap2\n              swap1\n              tag_62\n              jump\t// in\n            tag_61:\n              tag_63\n              jump\t// in\n            tag_60:\n              stop\n                /* \"Campaign.sol\":878:909  uint public minimumContribution */\n            tag_11:\n              callvalue\n              dup1\n              iszero\n              tag_64\n              jumpi\n              0x00\n              dup1\n              revert\n            tag_64:\n              pop\n              tag_65\n              tag_66\n              jump\t// in\n            tag_65:\n              mload(0x40)\n              tag_67\n              swap2\n              swap1\n              tag_54\n              jump\t// in\n            tag_67:\n              mload(0x40)\n              dup1\n              swap2\n              sub\n              swap1\n              return\n                /* \"Campaign.sol\":1003:1026  uint public numRequests */\n            tag_12:\n              callvalue\n              dup1\n              iszero\n              tag_68\n              jumpi\n              0x00\n              dup1\n              revert\n            tag_68:\n              pop\n              tag_69\n              tag_70\n              jump\t// in\n            tag_69:\n              mload(0x40)\n              tag_71\n              swap2\n              swap1\n              tag_54\n              jump\t// in\n            tag_71:\n              mload(0x40)\n              dup1\n              swap2\n              sub\n              swap1\n              return\n                /* \"Campaign.sol\":1442:1605  function contribute() public payable {... */\n            tag_13:\n              tag_72\n              tag_73\n              jump\t// in\n            tag_72:\n              stop\n                /* \"Campaign.sol\":2635:3164  function approveRequest(uint index) public {... */\n            tag_14:\n              callvalue\n              dup1\n              iszero\n              tag_74\n              jumpi\n              0x00\n              dup1\n              revert\n            tag_74:\n              pop\n              tag_75\n              0x04\n              dup1\n              calldatasize\n              sub\n              dup2\n              add\n              swap1\n              tag_76\n              swap2\n              swap1\n              tag_20\n              jump\t// in\n            tag_76:\n              tag_77\n              jump\t// in\n            tag_75:\n              stop\n                /* \"Campaign.sol\":3176:3487  function finalizeRequest(uint index) public restrictedToManager {... */\n            tag_21:\n                /* \"Campaign.sol\":1150:1157  manager */\n              0x00\n              dup1\n              sload\n              swap1\n              0x0100\n              exp\n              swap1\n              div\n              0xffffffffffffffffffffffffffffffffffffffff\n              and\n                /* \"Campaign.sol\":1136:1157  msg.sender == manager */\n              0xffffffffffffffffffffffffffffffffffffffff\n              and\n                /* \"Campaign.sol\":1136:1146  msg.sender */\n              caller\n                /* \"Campaign.sol\":1136:1157  msg.sender == manager */\n              0xffffffffffffffffffffffffffffffffffffffff\n              and\n              eq\n                /* \"Campaign.sol\":1128:1158  require(msg.sender == manager) */\n              tag_79\n              jumpi\n              0x00\n              dup1\n              revert\n            tag_79:\n                /* \"Campaign.sol\":3251:3274  Request storage request */\n              0x00\n                /* \"Campaign.sol\":3277:3285  requests */\n              0x07\n                /* \"Campaign.sol\":3277:3292  requests[index] */\n              0x00\n                /* \"Campaign.sol\":3286:3291  index */\n              dup4\n                /* \"Campaign.sol\":3277:3292  requests[index] */\n              dup2\n              mstore\n              0x20\n              add\n              swap1\n              dup2\n              mstore\n              0x20\n              add\n              0x00\n              keccak256\n                /* \"Campaign.sol\":3251:3292  Request storage request = requests[index] */\n              swap1\n              pop\n                /* \"Campaign.sol\":3312:3319  request */\n              dup1\n                /* \"Campaign.sol\":3312:3328  request.complete */\n              0x02\n              add\n              0x14\n              swap1\n              sload\n              swap1\n              0x0100\n              exp\n              swap1\n              div\n              0xff\n              and\n                /* \"Campaign.sol\":3311:3328  !request.complete */\n              iszero\n                /* \"Campaign.sol\":3303:3329  require(!request.complete) */\n              tag_81\n              jumpi\n              0x00\n              dup1\n              revert\n            tag_81:\n                /* \"Campaign.sol\":3390:3391  2 */\n              0x02\n                /* \"Campaign.sol\":3373:3387  approversCount */\n              sload(0x05)\n                /* \"Campaign.sol\":3373:3391  approversCount / 2 */\n              tag_82\n              swap2\n              swap1\n              tag_83\n              jump\t// in\n            tag_82:\n                /* \"Campaign.sol\":3348:3355  request */\n              dup2\n                /* \"Campaign.sol\":3348:3369  request.approvalCount */\n              0x04\n              add\n              sload\n                /* \"Campaign.sol\":3348:3392  request.approvalCount > (approversCount / 2) */\n              gt\n                /* \"Campaign.sol\":3340:3393  require(request.approvalCount > (approversCount / 2)) */\n              tag_84\n              jumpi\n              0x00\n              dup1\n              revert\n            tag_84:\n                /* \"Campaign.sol\":3404:3411  request */\n              dup1\n                /* \"Campaign.sol\":3404:3421  request.recipient */\n              0x02\n              add\n              0x00\n              swap1\n              sload\n              swap1\n              0x0100\n              exp\n              swap1\n              div\n              0xffffffffffffffffffffffffffffffffffffffff\n              and\n                /* \"Campaign.sol\":3404:3430  request.recipient.transfer */\n              0xffffffffffffffffffffffffffffffffffffffff\n              and\n                /* \"Campaign.sol\":3404:3445  request.recipient.transfer(request.value) */\n              0x08fc\n                /* \"Campaign.sol\":3431:3438  request */\n              dup3\n                /* \"Campaign.sol\":3431:3444  request.value */\n              0x01\n              add\n              sload\n                /* \"Campaign.sol\":3404:3445  request.recipient.transfer(request.value) */\n              swap1\n              dup2\n              iszero\n              mul\n              swap1\n              mload(0x40)\n              0x00\n              mload(0x40)\n              dup1\n              dup4\n              sub\n              dup2\n              dup6\n              dup9\n              dup9\n              call\n              swap4\n              pop\n              pop\n              pop\n              pop\n              iszero\n              dup1\n              iszero\n              tag_86\n              jumpi\n              returndatasize\n              0x00\n              dup1\n              returndatacopy\n              revert(0x00, returndatasize)\n            tag_86:\n              pop\n                /* \"Campaign.sol\":3475:3479  true */\n              0x01\n                /* \"Campaign.sol\":3456:3463  request */\n              dup2\n                /* \"Campaign.sol\":3456:3472  request.complete */\n              0x02\n              add\n              0x14\n                /* \"Campaign.sol\":3456:3479  request.complete = true */\n              0x0100\n              exp\n              dup2\n              sload\n              dup2\n              0xff\n              mul\n              not\n              and\n              swap1\n              dup4\n              iszero\n              iszero\n              mul\n              or\n              swap1\n              sstore\n              pop\n                /* \"Campaign.sol\":3240:3487  {... */\n              pop\n                /* \"Campaign.sol\":3176:3487  function finalizeRequest(uint index) public restrictedToManager {... */\n              pop\n              jump\t// out\n                /* \"Campaign.sol\":916:957  mapping(address => bool) public approvers */\n            tag_26:\n              mstore(0x20, 0x04)\n              dup1\n              0x00\n              mstore\n              keccak256(0x00, 0x40)\n              0x00\n              swap2\n              pop\n              sload\n              swap1\n              0x0100\n              exp\n              swap1\n              div\n              0xff\n              and\n              dup2\n              jump\t// out\n                /* \"Campaign.sol\":838:871  string public campaignDescription */\n            tag_31:\n              0x02\n              dup1\n              sload\n              tag_87\n              swap1\n              tag_88\n              jump\t// in\n            tag_87:\n              dup1\n              0x1f\n              add\n              0x20\n              dup1\n              swap2\n              div\n              mul\n              0x20\n              add\n              mload(0x40)\n              swap1\n              dup2\n              add\n              0x40\n              mstore\n              dup1\n              swap3\n              swap2\n              swap1\n              dup2\n              dup2\n              mstore\n              0x20\n              add\n              dup3\n              dup1\n              sload\n              tag_89\n              swap1\n              tag_88\n              jump\t// in\n            tag_89:\n              dup1\n              iszero\n              tag_90\n              jumpi\n              dup1\n              0x1f\n              lt\n              tag_91\n              jumpi\n              0x0100\n              dup1\n              dup4\n              sload\n              div\n              mul\n              dup4\n              mstore\n              swap2\n              0x20\n              add\n              swap2\n              jump(tag_90)\n            tag_91:\n              dup3\n              add\n              swap2\n              swap1\n              0x00\n              mstore\n              keccak256(0x00, 0x20)\n              swap1\n            tag_92:\n              dup2\n              sload\n              dup2\n              mstore\n              swap1\n              0x01\n              add\n              swap1\n              0x20\n              add\n              dup1\n              dup4\n              gt\n              tag_92\n              jumpi\n              dup3\n              swap1\n              sub\n              0x1f\n              and\n              dup3\n              add\n              swap2\n            tag_90:\n              pop\n              pop\n              pop\n              pop\n              pop\n              dup2\n              jump\t// out\n                /* \"Campaign.sol\":3495:3795  function getSummary() public view returns(... */\n            tag_36:\n                /* \"Campaign.sol\":3547:3554  address */\n              0x00\n                /* \"Campaign.sol\":3555:3568  string memory */\n              0x60\n                /* \"Campaign.sol\":3569:3582  string memory */\n              dup1\n                /* \"Campaign.sol\":3583:3587  uint */\n              0x00\n                /* \"Campaign.sol\":3588:3592  uint */\n              dup1\n                /* \"Campaign.sol\":3593:3597  uint */\n              0x00\n                /* \"Campaign.sol\":3598:3602  uint */\n              dup1\n                /* \"Campaign.sol\":3628:3635  manager */\n              0x00\n              dup1\n              sload\n              swap1\n              0x0100\n              exp\n              swap1\n              div\n              0xffffffffffffffffffffffffffffffffffffffff\n              and\n                /* \"Campaign.sol\":3642:3655  campaignTitle */\n              0x01\n                /* \"Campaign.sol\":3662:3681  campaignDescription */\n              0x02\n                /* \"Campaign.sol\":3688:3707  minimumContribution */\n              sload(0x03)\n                /* \"Campaign.sol\":3714:3728  approversCount */\n              sload(0x05)\n                /* \"Campaign.sol\":3735:3746  numRequests */\n              sload(0x06)\n                /* \"Campaign.sol\":3753:3774  address(this).balance */\n              selfbalance\n                /* \"Campaign.sol\":3620:3787  return (manager,... */\n              dup6\n              dup1\n              sload\n              tag_94\n              swap1\n              tag_88\n              jump\t// in\n            tag_94:\n              dup1\n              0x1f\n              add\n              0x20\n              dup1\n              swap2\n              div\n              mul\n              0x20\n              add\n              mload(0x40)\n              swap1\n              dup2\n              add\n              0x40\n              mstore\n              dup1\n              swap3\n              swap2\n              swap1\n              dup2\n              dup2\n              mstore\n              0x20\n              add\n              dup3\n              dup1\n              sload\n              tag_95\n              swap1\n              tag_88\n              jump\t// in\n            tag_95:\n              dup1\n              iszero\n              tag_96\n              jumpi\n              dup1\n              0x1f\n              lt\n              tag_97\n              jumpi\n              0x0100\n              dup1\n              dup4\n              sload\n              div\n              mul\n              dup4\n              mstore\n              swap2\n              0x20\n              add\n              swap2\n              jump(tag_96)\n            tag_97:\n              dup3\n              add\n              swap2\n              swap1\n              0x00\n              mstore\n              keccak256(0x00, 0x20)\n              swap1\n            tag_98:\n              dup2\n              sload\n              dup2\n              mstore\n              swap1\n              0x01\n              add\n              swap1\n              0x20\n              add\n              dup1\n              dup4\n              gt\n              tag_98\n              jumpi\n              dup3\n              swap1\n              sub\n              0x1f\n              and\n              dup3\n              add\n              swap2\n            tag_96:\n              pop\n              pop\n              pop\n              pop\n              pop\n              swap6\n              pop\n              dup5\n              dup1\n              sload\n              tag_99\n              swap1\n              tag_88\n              jump\t// in\n            tag_99:\n              dup1\n              0x1f\n              add\n              0x20\n              dup1\n              swap2\n              div\n              mul\n              0x20\n              add\n              mload(0x40)\n              swap1\n              dup2\n              add\n              0x40\n              mstore\n              dup1\n              swap3\n              swap2\n              swap1\n              dup2\n              dup2\n              mstore\n              0x20\n              add\n              dup3\n              dup1\n              sload\n              tag_100\n              swap1\n              tag_88\n              jump\t// in\n            tag_100:\n              dup1\n              iszero\n              tag_101\n              jumpi\n              dup1\n              0x1f\n              lt\n              tag_102\n              jumpi\n              0x0100\n              dup1\n              dup4\n              sload\n              div\n              mul\n              dup4\n              mstore\n              swap2\n              0x20\n              add\n              swap2\n              jump(tag_101)\n            tag_102:\n              dup3\n              add\n              swap2\n              swap1\n              0x00\n              mstore\n              keccak256(0x00, 0x20)\n              swap1\n            tag_103:\n              dup2\n              sload\n              dup2\n              mstore\n              swap1\n              0x01\n              add\n              swap1\n              0x20\n              add\n              dup1\n              dup4\n              gt\n              tag_103\n              jumpi\n              dup3\n              swap1\n              sub\n              0x1f\n              and\n              dup3\n              add\n              swap2\n            tag_101:\n              pop\n              pop\n              pop\n              pop\n              pop\n              swap5\n              pop\n              swap7\n              pop\n              swap7\n              pop\n              swap7\n              pop\n              swap7\n              pop\n              swap7\n              pop\n              swap7\n              pop\n              swap7\n              pop\n                /* \"Campaign.sol\":3495:3795  function getSummary() public view returns(... */\n              swap1\n              swap2\n              swap3\n              swap4\n              swap5\n              swap6\n              swap7\n              jump\t// out\n                /* \"Campaign.sol\":2129:2623  function fetchRequest(uint index) public view ... */\n            tag_42:\n                /* \"Campaign.sol\":2189:2202  string memory */\n              0x60\n                /* \"Campaign.sol\":2203:2207  uint */\n              0x00\n                /* \"Campaign.sol\":2208:2215  address */\n              dup1\n                /* \"Campaign.sol\":2216:2220  bool */\n              0x00\n                /* \"Campaign.sol\":2222:2226  uint */\n              dup1\n                /* \"Campaign.sol\":2395:2415  Request storage data */\n              0x00\n                /* \"Campaign.sol\":2418:2426  requests */\n              0x07\n                /* \"Campaign.sol\":2418:2433  requests[index] */\n              0x00\n                /* \"Campaign.sol\":2427:2432  index */\n              dup9\n                /* \"Campaign.sol\":2418:2433  requests[index] */\n              dup2\n              mstore\n              0x20\n              add\n              swap1\n              dup2\n              mstore\n              0x20\n              add\n              0x00\n              keccak256\n                /* \"Campaign.sol\":2395:2433  Request storage data = requests[index] */\n              swap1\n              pop\n                /* \"Campaign.sol\":2467:2471  data */\n              dup1\n                /* \"Campaign.sol\":2467:2483  data.description */\n              0x00\n              add\n                /* \"Campaign.sol\":2499:2503  data */\n              dup2\n                /* \"Campaign.sol\":2499:2509  data.value */\n              0x01\n              add\n              sload\n                /* \"Campaign.sol\":2525:2529  data */\n              dup3\n                /* \"Campaign.sol\":2525:2539  data.recipient */\n              0x02\n              add\n              0x00\n              swap1\n              sload\n              swap1\n              0x0100\n              exp\n              swap1\n              div\n              0xffffffffffffffffffffffffffffffffffffffff\n              and\n                /* \"Campaign.sol\":2555:2559  data */\n              dup4\n                /* \"Campaign.sol\":2555:2568  data.complete */\n              0x02\n              add\n              0x14\n              swap1\n              sload\n              swap1\n              0x0100\n              exp\n              swap1\n              div\n              0xff\n              and\n                /* \"Campaign.sol\":2584:2588  data */\n              dup5\n                /* \"Campaign.sol\":2584:2602  data.approvalCount */\n              0x04\n              add\n              sload\n                /* \"Campaign.sol\":2446:2613  return(... */\n              dup5\n              dup1\n              sload\n              tag_105\n              swap1\n              tag_88\n              jump\t// in\n            tag_105:\n              dup1\n              0x1f\n              add\n              0x20\n              dup1\n              swap2\n              div\n              mul\n              0x20\n              add\n              mload(0x40)\n              swap1\n              dup2\n              add\n              0x40\n              mstore\n              dup1\n              swap3\n              swap2\n              swap1\n              dup2\n              dup2\n              mstore\n              0x20\n              add\n              dup3\n              dup1\n              sload\n              tag_106\n              swap1\n              tag_88\n              jump\t// in\n            tag_106:\n              dup1\n              iszero\n              tag_107\n              jumpi\n              dup1\n              0x1f\n              lt\n              tag_108\n              jumpi\n              0x0100\n              dup1\n              dup4\n              sload\n              div\n              mul\n              dup4\n              mstore\n              swap2\n              0x20\n              add\n              swap2\n              jump(tag_107)\n            tag_108:\n              dup3\n              add\n              swap2\n              swap1\n              0x00\n              mstore\n              keccak256(0x00, 0x20)\n              swap1\n            tag_109:\n              dup2\n              sload\n              dup2\n              mstore\n              swap1\n              0x01\n              add\n              swap1\n              0x20\n              add\n              dup1\n              dup4\n              gt\n              tag_109\n              jumpi\n              dup3\n              swap1\n              sub\n              0x1f\n              and\n              dup3\n              add\n              swap2\n            tag_107:\n              pop\n              pop\n              pop\n              pop\n              pop\n              swap5\n              pop\n              swap6\n              pop\n              swap6\n              pop\n              swap6\n              pop\n              swap6\n              pop\n              swap6\n              pop\n              pop\n                /* \"Campaign.sol\":2129:2623  function fetchRequest(uint index) public view ... */\n              swap2\n              swap4\n              swap6\n              swap1\n              swap3\n              swap5\n              pop\n              jump\t// out\n                /* \"Campaign.sol\":775:797  address public manager */\n            tag_47:\n              0x00\n              dup1\n              sload\n              swap1\n              0x0100\n              exp\n              swap1\n              div\n              0xffffffffffffffffffffffffffffffffffffffff\n              and\n              dup2\n              jump\t// out\n                /* \"Campaign.sol\":964:990  uint public approversCount */\n            tag_52:\n              sload(0x05)\n              dup2\n              jump\t// out\n                /* \"Campaign.sol\":804:831  string public campaignTitle */\n            tag_57:\n              0x01\n              dup1\n              sload\n              tag_110\n              swap1\n              tag_88\n              jump\t// in\n            tag_110:\n              dup1\n              0x1f\n              add\n              0x20\n              dup1\n              swap2\n              div\n              mul\n              0x20\n              add\n              mload(0x40)\n              swap1\n              dup2\n              add\n              0x40\n              mstore\n              dup1\n              swap3\n              swap2\n              swap1\n              dup2\n              dup2\n              mstore\n              0x20\n              add\n              dup3\n              dup1\n              sload\n              tag_111\n              swap1\n              tag_88\n              jump\t// in\n            tag_111:\n              dup1\n              iszero\n              tag_112\n              jumpi\n              dup1\n              0x1f\n              lt\n              tag_113\n              jumpi\n              0x0100\n              dup1\n              dup4\n              sload\n              div\n              mul\n              dup4\n              mstore\n              swap2\n              0x20\n              add\n              swap2\n              jump(tag_112)\n            tag_113:\n              dup3\n              add\n              swap2\n              swap1\n              0x00\n              mstore\n              keccak256(0x00, 0x20)\n              swap1\n            tag_114:\n              dup2\n              sload\n              dup2\n              mstore\n              swap1\n              0x01\n              add\n              swap1\n              0x20\n              add\n              dup1\n              dup4\n              gt\n              tag_114\n              jumpi\n              dup3\n              swap1\n              sub\n              0x1f\n              and\n              dup3\n              add\n              swap2\n            tag_112:\n              pop\n              pop\n              pop\n              pop\n              pop\n              dup2\n              jump\t// out\n                /* \"Campaign.sol\":1617:2121  function createRequest(string calldata description, uint value, address payable recipient) public restrictedToManager {... */\n            tag_63:\n                /* \"Campaign.sol\":1150:1157  manager */\n              0x00\n              dup1\n              sload\n              swap1\n              0x0100\n              exp\n              swap1\n              div\n              0xffffffffffffffffffffffffffffffffffffffff\n              and\n                /* \"Campaign.sol\":1136:1157  msg.sender == manager */\n              0xffffffffffffffffffffffffffffffffffffffff\n              and\n                /* \"Campaign.sol\":1136:1146  msg.sender */\n              caller\n                /* \"Campaign.sol\":1136:1157  msg.sender == manager */\n              0xffffffffffffffffffffffffffffffffffffffff\n              and\n              eq\n                /* \"Campaign.sol\":1128:1158  require(msg.sender == manager) */\n              tag_116\n              jumpi\n              0x00\n              dup1\n              revert\n            tag_116:\n                /* \"Campaign.sol\":1797:1823  Request storage newRequest */\n              0x00\n                /* \"Campaign.sol\":1826:1834  requests */\n              0x07\n                /* \"Campaign.sol\":1826:1847  requests[numRequests] */\n              0x00\n                /* \"Campaign.sol\":1835:1846  numRequests */\n              sload(0x06)\n                /* \"Campaign.sol\":1826:1847  requests[numRequests] */\n              dup2\n              mstore\n              0x20\n              add\n              swap1\n              dup2\n              mstore\n              0x20\n              add\n              0x00\n              keccak256\n                /* \"Campaign.sol\":1797:1847  Request storage newRequest = requests[numRequests] */\n              swap1\n              pop\n                /* \"Campaign.sol\":1894:1905  numRequests */\n              0x06\n              0x00\n                /* \"Campaign.sol\":1894:1908  numRequests ++ */\n              dup2\n              sload\n              dup1\n              swap3\n              swap2\n              swap1\n              tag_118\n              swap1\n              tag_119\n              jump\t// in\n            tag_118:\n              swap2\n              swap1\n              pop\n              sstore\n              pop\n                /* \"Campaign.sol\":1988:1999  description */\n              dup5\n              dup5\n                /* \"Campaign.sol\":1963:1973  newRequest */\n              dup3\n                /* \"Campaign.sol\":1963:1985  newRequest.description */\n              0x00\n              add\n                /* \"Campaign.sol\":1963:1999  newRequest.description = description */\n              swap2\n              swap1\n              tag_120\n              swap3\n              swap2\n              swap1\n              tag_121\n              jump\t// in\n            tag_120:\n              pop\n                /* \"Campaign.sol\":2028:2033  value */\n              dup3\n                /* \"Campaign.sol\":2009:2019  newRequest */\n              dup2\n                /* \"Campaign.sol\":2009:2025  newRequest.value */\n              0x01\n              add\n                /* \"Campaign.sol\":2009:2033  newRequest.value = value */\n              dup2\n              swap1\n              sstore\n              pop\n                /* \"Campaign.sol\":2066:2075  recipient */\n              dup2\n                /* \"Campaign.sol\":2043:2053  newRequest */\n              dup2\n                /* \"Campaign.sol\":2043:2063  newRequest.recipient */\n              0x02\n              add\n              0x00\n                /* \"Campaign.sol\":2043:2075  newRequest.recipient = recipient */\n              0x0100\n              exp\n              dup2\n              sload\n              dup2\n              0xffffffffffffffffffffffffffffffffffffffff\n              mul\n              not\n              and\n              swap1\n              dup4\n              0xffffffffffffffffffffffffffffffffffffffff\n              and\n              mul\n              or\n              swap1\n              sstore\n              pop\n                /* \"Campaign.sol\":2112:2113  0 */\n              0x00\n                /* \"Campaign.sol\":2085:2095  newRequest */\n              dup2\n                /* \"Campaign.sol\":2085:2109  newRequest.approvalCount */\n              0x04\n              add\n                /* \"Campaign.sol\":2085:2113  newRequest.approvalCount = 0 */\n              dup2\n              swap1\n              sstore\n              pop\n                /* \"Campaign.sol\":1735:2121  {... */\n              pop\n                /* \"Campaign.sol\":1617:2121  function createRequest(string calldata description, uint value, address payable recipient) public restrictedToManager {... */\n              pop\n              pop\n              pop\n              pop\n              jump\t// out\n                /* \"Campaign.sol\":878:909  uint public minimumContribution */\n            tag_66:\n              sload(0x03)\n              dup2\n              jump\t// out\n                /* \"Campaign.sol\":1003:1026  uint public numRequests */\n            tag_70:\n              sload(0x06)\n              dup2\n              jump\t// out\n                /* \"Campaign.sol\":1442:1605  function contribute() public payable {... */\n            tag_73:\n                /* \"Campaign.sol\":1510:1529  minimumContribution */\n              sload(0x03)\n                /* \"Campaign.sol\":1498:1507  msg.value */\n              callvalue\n                /* \"Campaign.sol\":1498:1529  msg.value > minimumContribution */\n              gt\n                /* \"Campaign.sol\":1490:1530  require(msg.value > minimumContribution) */\n              tag_123\n              jumpi\n              0x00\n              dup1\n              revert\n            tag_123:\n                /* \"Campaign.sol\":1565:1569  true */\n              0x01\n                /* \"Campaign.sol\":1541:1550  approvers */\n              0x04\n                /* \"Campaign.sol\":1541:1562  approvers[msg.sender] */\n              0x00\n                /* \"Campaign.sol\":1551:1561  msg.sender */\n              caller\n                /* \"Campaign.sol\":1541:1562  approvers[msg.sender] */\n              0xffffffffffffffffffffffffffffffffffffffff\n              and\n              0xffffffffffffffffffffffffffffffffffffffff\n              and\n              dup2\n              mstore\n              0x20\n              add\n              swap1\n              dup2\n              mstore\n              0x20\n              add\n              0x00\n              keccak256\n              0x00\n                /* \"Campaign.sol\":1541:1569  approvers[msg.sender] = true */\n              0x0100\n              exp\n              dup2\n              sload\n              dup2\n              0xff\n              mul\n              not\n              and\n              swap1\n              dup4\n              iszero\n              iszero\n              mul\n              or\n              swap1\n              sstore\n              pop\n                /* \"Campaign.sol\":1580:1594  approversCount */\n              0x05\n              0x00\n                /* \"Campaign.sol\":1580:1597  approversCount ++ */\n              dup2\n              sload\n              dup1\n              swap3\n              swap2\n              swap1\n              tag_124\n              swap1\n              tag_119\n              jump\t// in\n            tag_124:\n              swap2\n              swap1\n              pop\n              sstore\n              pop\n                /* \"Campaign.sol\":1442:1605  function contribute() public payable {... */\n              jump\t// out\n                /* \"Campaign.sol\":2635:3164  function approveRequest(uint index) public {... */\n            tag_77:\n                /* \"Campaign.sol\":2744:2767  Request storage request */\n              0x00\n                /* \"Campaign.sol\":2770:2778  requests */\n              0x07\n                /* \"Campaign.sol\":2770:2785  requests[index] */\n              0x00\n                /* \"Campaign.sol\":2779:2784  index */\n              dup4\n                /* \"Campaign.sol\":2770:2785  requests[index] */\n              dup2\n              mstore\n              0x20\n              add\n              swap1\n              dup2\n              mstore\n              0x20\n              add\n              0x00\n              keccak256\n                /* \"Campaign.sol\":2744:2785  Request storage request = requests[index] */\n              swap1\n              pop\n                /* \"Campaign.sol\":2861:2870  approvers */\n              0x04\n                /* \"Campaign.sol\":2861:2882  approvers[msg.sender] */\n              0x00\n                /* \"Campaign.sol\":2871:2881  msg.sender */\n              caller\n                /* \"Campaign.sol\":2861:2882  approvers[msg.sender] */\n              0xffffffffffffffffffffffffffffffffffffffff\n              and\n              0xffffffffffffffffffffffffffffffffffffffff\n              and\n              dup2\n              mstore\n              0x20\n              add\n              swap1\n              dup2\n              mstore\n              0x20\n              add\n              0x00\n              keccak256\n              0x00\n              swap1\n              sload\n              swap1\n              0x0100\n              exp\n              swap1\n              div\n              0xff\n              and\n                /* \"Campaign.sol\":2853:2883  require(approvers[msg.sender]) */\n              tag_126\n              jumpi\n              0x00\n              dup1\n              revert\n            tag_126:\n                /* \"Campaign.sol\":2946:2953  request */\n              dup1\n                /* \"Campaign.sol\":2946:2963  request.approvals */\n              0x03\n              add\n                /* \"Campaign.sol\":2946:2975  request.approvals[msg.sender] */\n              0x00\n                /* \"Campaign.sol\":2964:2974  msg.sender */\n              caller\n                /* \"Campaign.sol\":2946:2975  request.approvals[msg.sender] */\n              0xffffffffffffffffffffffffffffffffffffffff\n              and\n              0xffffffffffffffffffffffffffffffffffffffff\n              and\n              dup2\n              mstore\n              0x20\n              add\n              swap1\n              dup2\n              mstore\n              0x20\n              add\n              0x00\n              keccak256\n              0x00\n              swap1\n              sload\n              swap1\n              0x0100\n              exp\n              swap1\n              div\n              0xff\n              and\n                /* \"Campaign.sol\":2945:2975  !request.approvals[msg.sender] */\n              iszero\n                /* \"Campaign.sol\":2937:2976  require(!request.approvals[msg.sender]) */\n              tag_127\n              jumpi\n              0x00\n              dup1\n              revert\n            tag_127:\n                /* \"Campaign.sol\":3080:3084  true */\n              0x01\n                /* \"Campaign.sol\":3048:3055  request */\n              dup2\n                /* \"Campaign.sol\":3048:3065  request.approvals */\n              0x03\n              add\n                /* \"Campaign.sol\":3048:3077  request.approvals[msg.sender] */\n              0x00\n                /* \"Campaign.sol\":3066:3076  msg.sender */\n              caller\n                /* \"Campaign.sol\":3048:3077  request.approvals[msg.sender] */\n              0xffffffffffffffffffffffffffffffffffffffff\n              and\n              0xffffffffffffffffffffffffffffffffffffffff\n              and\n              dup2\n              mstore\n              0x20\n              add\n              swap1\n              dup2\n              mstore\n              0x20\n              add\n              0x00\n              keccak256\n              0x00\n                /* \"Campaign.sol\":3048:3084  request.approvals[msg.sender] = true */\n              0x0100\n              exp\n              dup2\n              sload\n              dup2\n              0xff\n              mul\n              not\n              and\n              swap1\n              dup4\n              iszero\n              iszero\n              mul\n              or\n              swap1\n              sstore\n              pop\n                /* \"Campaign.sol\":3132:3139  request */\n              dup1\n                /* \"Campaign.sol\":3132:3153  request.approvalCount */\n              0x04\n              add\n              0x00\n                /* \"Campaign.sol\":3132:3156  request.approvalCount ++ */\n              dup2\n              sload\n              dup1\n              swap3\n              swap2\n              swap1\n              tag_128\n              swap1\n              tag_119\n              jump\t// in\n            tag_128:\n              swap2\n              swap1\n              pop\n              sstore\n              pop\n                /* \"Campaign.sol\":2678:3164  {... */\n              pop\n                /* \"Campaign.sol\":2635:3164  function approveRequest(uint index) public {... */\n              pop\n              jump\t// out\n            tag_121:\n              dup3\n              dup1\n              sload\n              tag_129\n              swap1\n              tag_88\n              jump\t// in\n            tag_129:\n              swap1\n              0x00\n              mstore\n              keccak256(0x00, 0x20)\n              swap1\n              0x1f\n              add\n              0x20\n              swap1\n              div\n              dup2\n              add\n              swap3\n              dup3\n              tag_131\n              jumpi\n              0x00\n              dup6\n              sstore\n              jump(tag_130)\n            tag_131:\n              dup3\n              0x1f\n              lt\n              tag_132\n              jumpi\n              dup1\n              calldataload\n              not(0xff)\n              and\n              dup4\n              dup1\n              add\n              or\n              dup6\n              sstore\n              jump(tag_130)\n            tag_132:\n              dup3\n              dup1\n              add\n              0x01\n              add\n              dup6\n              sstore\n              dup3\n              iszero\n              tag_130\n              jumpi\n              swap2\n              dup3\n              add\n            tag_133:\n              dup3\n              dup2\n              gt\n              iszero\n              tag_134\n              jumpi\n              dup3\n              calldataload\n              dup3\n              sstore\n              swap2\n              0x20\n              add\n              swap2\n              swap1\n              0x01\n              add\n              swap1\n              jump(tag_133)\n            tag_134:\n            tag_130:\n              pop\n              swap1\n              pop\n              tag_135\n              swap2\n              swap1\n              tag_136\n              jump\t// in\n            tag_135:\n              pop\n              swap1\n              jump\t// out\n            tag_136:\n            tag_137:\n              dup1\n              dup3\n              gt\n              iszero\n              tag_138\n              jumpi\n              0x00\n              dup2\n              0x00\n              swap1\n              sstore\n              pop\n              0x01\n              add\n              jump(tag_137)\n            tag_138:\n              pop\n              swap1\n              jump\t// out\n                /* \"#utility.yul\":88:205   */\n            tag_140:\n                /* \"#utility.yul\":197:198   */\n              0x00\n                /* \"#utility.yul\":194:195   */\n              dup1\n                /* \"#utility.yul\":187:199   */\n              revert\n                /* \"#utility.yul\":211:328   */\n            tag_141:\n                /* \"#utility.yul\":320:321   */\n              0x00\n                /* \"#utility.yul\":317:318   */\n              dup1\n                /* \"#utility.yul\":310:322   */\n              revert\n                /* \"#utility.yul\":334:411   */\n            tag_142:\n                /* \"#utility.yul\":371:378   */\n              0x00\n                /* \"#utility.yul\":400:405   */\n              dup2\n                /* \"#utility.yul\":389:405   */\n              swap1\n              pop\n                /* \"#utility.yul\":334:411   */\n              swap2\n              swap1\n              pop\n              jump\t// out\n                /* \"#utility.yul\":417:539   */\n            tag_143:\n                /* \"#utility.yul\":490:514   */\n              tag_174\n                /* \"#utility.yul\":508:513   */\n              dup2\n                /* \"#utility.yul\":490:514   */\n              tag_142\n              jump\t// in\n            tag_174:\n                /* \"#utility.yul\":483:488   */\n              dup2\n                /* \"#utility.yul\":480:515   */\n              eq\n                /* \"#utility.yul\":470:533   */\n              tag_175\n              jumpi\n                /* \"#utility.yul\":529:530   */\n              0x00\n                /* \"#utility.yul\":526:527   */\n              dup1\n                /* \"#utility.yul\":519:531   */\n              revert\n                /* \"#utility.yul\":470:533   */\n            tag_175:\n                /* \"#utility.yul\":417:539   */\n              pop\n              jump\t// out\n                /* \"#utility.yul\":545:684   */\n            tag_144:\n                /* \"#utility.yul\":591:596   */\n              0x00\n                /* \"#utility.yul\":629:635   */\n              dup2\n                /* \"#utility.yul\":616:636   */\n              calldataload\n                /* \"#utility.yul\":607:636   */\n              swap1\n              pop\n                /* \"#utility.yul\":645:678   */\n              tag_177\n                /* \"#utility.yul\":672:677   */\n              dup2\n                /* \"#utility.yul\":645:678   */\n              tag_143\n              jump\t// in\n            tag_177:\n                /* \"#utility.yul\":545:684   */\n              swap3\n              swap2\n              pop\n              pop\n              jump\t// out\n                /* \"#utility.yul\":690:1019   */\n            tag_20:\n                /* \"#utility.yul\":749:755   */\n              0x00\n                /* \"#utility.yul\":798:800   */\n              0x20\n                /* \"#utility.yul\":786:795   */\n              dup3\n                /* \"#utility.yul\":777:784   */\n              dup5\n                /* \"#utility.yul\":773:796   */\n              sub\n                /* \"#utility.yul\":769:801   */\n              slt\n                /* \"#utility.yul\":766:885   */\n              iszero\n              tag_179\n              jumpi\n                /* \"#utility.yul\":804:883   */\n              tag_180\n              tag_140\n              jump\t// in\n            tag_180:\n                /* \"#utility.yul\":766:885   */\n            tag_179:\n                /* \"#utility.yul\":924:925   */\n              0x00\n                /* \"#utility.yul\":949:1002   */\n              tag_181\n                /* \"#utility.yul\":994:1001   */\n              dup5\n                /* \"#utility.yul\":985:991   */\n              dup3\n                /* \"#utility.yul\":974:983   */\n              dup6\n                /* \"#utility.yul\":970:992   */\n              add\n                /* \"#utility.yul\":949:1002   */\n              tag_144\n              jump\t// in\n            tag_181:\n                /* \"#utility.yul\":939:1002   */\n              swap2\n              pop\n                /* \"#utility.yul\":895:1012   */\n              pop\n                /* \"#utility.yul\":690:1019   */\n              swap3\n              swap2\n              pop\n              pop\n              jump\t// out\n                /* \"#utility.yul\":1025:1151   */\n            tag_145:\n                /* \"#utility.yul\":1062:1069   */\n              0x00\n                /* \"#utility.yul\":1102:1144   */\n              0xffffffffffffffffffffffffffffffffffffffff\n                /* \"#utility.yul\":1095:1100   */\n              dup3\n                /* \"#utility.yul\":1091:1145   */\n              and\n                /* \"#utility.yul\":1080:1145   */\n              swap1\n              pop\n                /* \"#utility.yul\":1025:1151   */\n              swap2\n              swap1\n              pop\n              jump\t// out\n                /* \"#utility.yul\":1157:1253   */\n            tag_146:\n                /* \"#utility.yul\":1194:1201   */\n              0x00\n                /* \"#utility.yul\":1223:1247   */\n              tag_184\n                /* \"#utility.yul\":1241:1246   */\n              dup3\n                /* \"#utility.yul\":1223:1247   */\n              tag_145\n              jump\t// in\n            tag_184:\n                /* \"#utility.yul\":1212:1247   */\n              swap1\n              pop\n                /* \"#utility.yul\":1157:1253   */\n              swap2\n              swap1\n              pop\n              jump\t// out\n                /* \"#utility.yul\":1259:1381   */\n            tag_147:\n                /* \"#utility.yul\":1332:1356   */\n              tag_186\n                /* \"#utility.yul\":1350:1355   */\n              dup2\n                /* \"#utility.yul\":1332:1356   */\n              tag_146\n              jump\t// in\n            tag_186:\n                /* \"#utility.yul\":1325:1330   */\n              dup2\n                /* \"#utility.yul\":1322:1357   */\n              eq\n                /* \"#utility.yul\":1312:1375   */\n              tag_187\n              jumpi\n                /* \"#utility.yul\":1371:1372   */\n              0x00\n                /* \"#utility.yul\":1368:1369   */\n              dup1\n                /* \"#utility.yul\":1361:1373   */\n              revert\n                /* \"#utility.yul\":1312:1375   */\n            tag_187:\n                /* \"#utility.yul\":1259:1381   */\n              pop\n              jump\t// out\n                /* \"#utility.yul\":1387:1526   */\n            tag_148:\n                /* \"#utility.yul\":1433:1438   */\n              0x00\n                /* \"#utility.yul\":1471:1477   */\n              dup2\n                /* \"#utility.yul\":1458:1478   */\n              calldataload\n                /* \"#utility.yul\":1449:1478   */\n              swap1\n              pop\n                /* \"#utility.yul\":1487:1520   */\n              tag_189\n                /* \"#utility.yul\":1514:1519   */\n              dup2\n                /* \"#utility.yul\":1487:1520   */\n              tag_147\n              jump\t// in\n            tag_189:\n                /* \"#utility.yul\":1387:1526   */\n              swap3\n              swap2\n              pop\n              pop\n              jump\t// out\n                /* \"#utility.yul\":1532:1861   */\n            tag_25:\n                /* \"#utility.yul\":1591:1597   */\n              0x00\n                /* \"#utility.yul\":1640:1642   */\n              0x20\n                /* \"#utility.yul\":1628:1637   */\n              dup3\n                /* \"#utility.yul\":1619:1626   */\n              dup5\n                /* \"#utility.yul\":1615:1638   */\n              sub\n                /* \"#utility.yul\":1611:1643   */\n              slt\n                /* \"#utility.yul\":1608:1727   */\n              iszero\n              tag_191\n              jumpi\n                /* \"#utility.yul\":1646:1725   */\n              tag_192\n              tag_140\n              jump\t// in\n            tag_192:\n                /* \"#utility.yul\":1608:1727   */\n            tag_191:\n                /* \"#utility.yul\":1766:1767   */\n              0x00\n                /* \"#utility.yul\":1791:1844   */\n              tag_193\n                /* \"#utility.yul\":1836:1843   */\n              dup5\n                /* \"#utility.yul\":1827:1833   */\n              dup3\n                /* \"#utility.yul\":1816:1825   */\n              dup6\n                /* \"#utility.yul\":1812:1834   */\n              add\n                /* \"#utility.yul\":1791:1844   */\n              tag_148\n              jump\t// in\n            tag_193:\n                /* \"#utility.yul\":1781:1844   */\n              swap2\n              pop\n                /* \"#utility.yul\":1737:1854   */\n              pop\n                /* \"#utility.yul\":1532:1861   */\n              swap3\n              swap2\n              pop\n              pop\n              jump\t// out\n                /* \"#utility.yul\":1867:1957   */\n            tag_149:\n                /* \"#utility.yul\":1901:1908   */\n              0x00\n                /* \"#utility.yul\":1944:1949   */\n              dup2\n                /* \"#utility.yul\":1937:1950   */\n              iszero\n                /* \"#utility.yul\":1930:1951   */\n              iszero\n                /* \"#utility.yul\":1919:1951   */\n              swap1\n              pop\n                /* \"#utility.yul\":1867:1957   */\n              swap2\n              swap1\n              pop\n              jump\t// out\n                /* \"#utility.yul\":1963:2072   */\n            tag_150:\n                /* \"#utility.yul\":2044:2065   */\n              tag_196\n                /* \"#utility.yul\":2059:2064   */\n              dup2\n                /* \"#utility.yul\":2044:2065   */\n              tag_149\n              jump\t// in\n            tag_196:\n                /* \"#utility.yul\":2039:2042   */\n              dup3\n                /* \"#utility.yul\":2032:2066   */\n              mstore\n                /* \"#utility.yul\":1963:2072   */\n              pop\n              pop\n              jump\t// out\n                /* \"#utility.yul\":2078:2288   */\n            tag_28:\n                /* \"#utility.yul\":2165:2169   */\n              0x00\n                /* \"#utility.yul\":2203:2205   */\n              0x20\n                /* \"#utility.yul\":2192:2201   */\n              dup3\n                /* \"#utility.yul\":2188:2206   */\n              add\n                /* \"#utility.yul\":2180:2206   */\n              swap1\n              pop\n                /* \"#utility.yul\":2216:2281   */\n              tag_198\n                /* \"#utility.yul\":2278:2279   */\n              0x00\n                /* \"#utility.yul\":2267:2276   */\n              dup4\n                /* \"#utility.yul\":2263:2280   */\n              add\n                /* \"#utility.yul\":2254:2260   */\n              dup5\n                /* \"#utility.yul\":2216:2281   */\n              tag_150\n              jump\t// in\n            tag_198:\n                /* \"#utility.yul\":2078:2288   */\n              swap3\n              swap2\n              pop\n              pop\n              jump\t// out\n                /* \"#utility.yul\":2294:2393   */\n            tag_151:\n                /* \"#utility.yul\":2346:2352   */\n              0x00\n                /* \"#utility.yul\":2380:2385   */\n              dup2\n                /* \"#utility.yul\":2374:2386   */\n              mload\n                /* \"#utility.yul\":2364:2386   */\n              swap1\n              pop\n                /* \"#utility.yul\":2294:2393   */\n              swap2\n              swap1\n              pop\n              jump\t// out\n                /* \"#utility.yul\":2399:2568   */\n            tag_152:\n                /* \"#utility.yul\":2483:2494   */\n              0x00\n                /* \"#utility.yul\":2517:2523   */\n              dup3\n                /* \"#utility.yul\":2512:2515   */\n              dup3\n                /* \"#utility.yul\":2505:2524   */\n              mstore\n                /* \"#utility.yul\":2557:2561   */\n              0x20\n                /* \"#utility.yul\":2552:2555   */\n              dup3\n                /* \"#utility.yul\":2548:2562   */\n              add\n                /* \"#utility.yul\":2533:2562   */\n              swap1\n              pop\n                /* \"#utility.yul\":2399:2568   */\n              swap3\n              swap2\n              pop\n              pop\n              jump\t// out\n                /* \"#utility.yul\":2574:2881   */\n            tag_153:\n                /* \"#utility.yul\":2642:2643   */\n              0x00\n                /* \"#utility.yul\":2652:2765   */\n            tag_202:\n                /* \"#utility.yul\":2666:2672   */\n              dup4\n                /* \"#utility.yul\":2663:2664   */\n              dup2\n                /* \"#utility.yul\":2660:2673   */\n              lt\n                /* \"#utility.yul\":2652:2765   */\n              iszero\n              tag_204\n              jumpi\n                /* \"#utility.yul\":2751:2752   */\n              dup1\n                /* \"#utility.yul\":2746:2749   */\n              dup3\n                /* \"#utility.yul\":2742:2753   */\n              add\n                /* \"#utility.yul\":2736:2754   */\n              mload\n                /* \"#utility.yul\":2732:2733   */\n              dup2\n                /* \"#utility.yul\":2727:2730   */\n              dup5\n                /* \"#utility.yul\":2723:2734   */\n              add\n                /* \"#utility.yul\":2716:2755   */\n              mstore\n                /* \"#utility.yul\":2688:2690   */\n              0x20\n                /* \"#utility.yul\":2685:2686   */\n              dup2\n                /* \"#utility.yul\":2681:2691   */\n              add\n                /* \"#utility.yul\":2676:2691   */\n              swap1\n              pop\n                /* \"#utility.yul\":2652:2765   */\n              jump(tag_202)\n            tag_204:\n                /* \"#utility.yul\":2783:2789   */\n              dup4\n                /* \"#utility.yul\":2780:2781   */\n              dup2\n                /* \"#utility.yul\":2777:2790   */\n              gt\n                /* \"#utility.yul\":2774:2875   */\n              iszero\n              tag_205\n              jumpi\n                /* \"#utility.yul\":2863:2864   */\n              0x00\n                /* \"#utility.yul\":2854:2860   */\n              dup5\n                /* \"#utility.yul\":2849:2852   */\n              dup5\n                /* \"#utility.yul\":2845:2861   */\n              add\n                /* \"#utility.yul\":2838:2865   */\n              mstore\n                /* \"#utility.yul\":2774:2875   */\n            tag_205:\n                /* \"#utility.yul\":2623:2881   */\n              pop\n                /* \"#utility.yul\":2574:2881   */\n              pop\n              pop\n              pop\n              jump\t// out\n                /* \"#utility.yul\":2887:2989   */\n            tag_154:\n                /* \"#utility.yul\":2928:2934   */\n              0x00\n                /* \"#utility.yul\":2979:2981   */\n              0x1f\n                /* \"#utility.yul\":2975:2982   */\n              not\n                /* \"#utility.yul\":2970:2972   */\n              0x1f\n                /* \"#utility.yul\":2963:2968   */\n              dup4\n                /* \"#utility.yul\":2959:2973   */\n              add\n                /* \"#utility.yul\":2955:2983   */\n              and\n                /* \"#utility.yul\":2945:2983   */\n              swap1\n              pop\n                /* \"#utility.yul\":2887:2989   */\n              swap2\n              swap1\n              pop\n              jump\t// out\n                /* \"#utility.yul\":2995:3359   */\n            tag_155:\n                /* \"#utility.yul\":3083:3086   */\n              0x00\n                /* \"#utility.yul\":3111:3150   */\n              tag_208\n                /* \"#utility.yul\":3144:3149   */\n              dup3\n                /* \"#utility.yul\":3111:3150   */\n              tag_151\n              jump\t// in\n            tag_208:\n                /* \"#utility.yul\":3166:3237   */\n              tag_209\n                /* \"#utility.yul\":3230:3236   */\n              dup2\n                /* \"#utility.yul\":3225:3228   */\n              dup6\n                /* \"#utility.yul\":3166:3237   */\n              tag_152\n              jump\t// in\n            tag_209:\n                /* \"#utility.yul\":3159:3237   */\n              swap4\n              pop\n                /* \"#utility.yul\":3246:3298   */\n              tag_210\n                /* \"#utility.yul\":3291:3297   */\n              dup2\n                /* \"#utility.yul\":3286:3289   */\n              dup6\n                /* \"#utility.yul\":3279:3283   */\n              0x20\n                /* \"#utility.yul\":3272:3277   */\n              dup7\n                /* \"#utility.yul\":3268:3284   */\n              add\n                /* \"#utility.yul\":3246:3298   */\n              tag_153\n              jump\t// in\n            tag_210:\n                /* \"#utility.yul\":3323:3352   */\n              tag_211\n                /* \"#utility.yul\":3345:3351   */\n              dup2\n                /* \"#utility.yul\":3323:3352   */\n              tag_154\n              jump\t// in\n            tag_211:\n                /* \"#utility.yul\":3318:3321   */\n              dup5\n                /* \"#utility.yul\":3314:3353   */\n              add\n                /* \"#utility.yul\":3307:3353   */\n              swap2\n              pop\n                /* \"#utility.yul\":3087:3359   */\n              pop\n                /* \"#utility.yul\":2995:3359   */\n              swap3\n              swap2\n              pop\n              pop\n              jump\t// out\n                /* \"#utility.yul\":3365:3678   */\n            tag_33:\n                /* \"#utility.yul\":3478:3482   */\n              0x00\n                /* \"#utility.yul\":3516:3518   */\n              0x20\n                /* \"#utility.yul\":3505:3514   */\n              dup3\n                /* \"#utility.yul\":3501:3519   */\n              add\n                /* \"#utility.yul\":3493:3519   */\n              swap1\n              pop\n                /* \"#utility.yul\":3565:3574   */\n              dup2\n                /* \"#utility.yul\":3559:3563   */\n              dup2\n                /* \"#utility.yul\":3555:3575   */\n              sub\n                /* \"#utility.yul\":3551:3552   */\n              0x00\n                /* \"#utility.yul\":3540:3549   */\n              dup4\n                /* \"#utility.yul\":3536:3553   */\n              add\n                /* \"#utility.yul\":3529:3576   */\n              mstore\n                /* \"#utility.yul\":3593:3671   */\n              tag_213\n                /* \"#utility.yul\":3666:3670   */\n              dup2\n                /* \"#utility.yul\":3657:3663   */\n              dup5\n                /* \"#utility.yul\":3593:3671   */\n              tag_155\n              jump\t// in\n            tag_213:\n                /* \"#utility.yul\":3585:3671   */\n              swap1\n              pop\n                /* \"#utility.yul\":3365:3678   */\n              swap3\n              swap2\n              pop\n              pop\n              jump\t// out\n                /* \"#utility.yul\":3684:3802   */\n            tag_156:\n                /* \"#utility.yul\":3771:3795   */\n              tag_215\n                /* \"#utility.yul\":3789:3794   */\n              dup2\n                /* \"#utility.yul\":3771:3795   */\n              tag_146\n              jump\t// in\n            tag_215:\n                /* \"#utility.yul\":3766:3769   */\n              dup3\n                /* \"#utility.yul\":3759:3796   */\n              mstore\n                /* \"#utility.yul\":3684:3802   */\n              pop\n              pop\n              jump\t// out\n                /* \"#utility.yul\":3808:3926   */\n            tag_157:\n                /* \"#utility.yul\":3895:3919   */\n              tag_217\n                /* \"#utility.yul\":3913:3918   */\n              dup2\n                /* \"#utility.yul\":3895:3919   */\n              tag_142\n              jump\t// in\n            tag_217:\n                /* \"#utility.yul\":3890:3893   */\n              dup3\n                /* \"#utility.yul\":3883:3920   */\n              mstore\n                /* \"#utility.yul\":3808:3926   */\n              pop\n              pop\n              jump\t// out\n                /* \"#utility.yul\":3932:5000   */\n            tag_38:\n                /* \"#utility.yul\":4233:4237   */\n              0x00\n                /* \"#utility.yul\":4271:4274   */\n              0xe0\n                /* \"#utility.yul\":4260:4269   */\n              dup3\n                /* \"#utility.yul\":4256:4275   */\n              add\n                /* \"#utility.yul\":4248:4275   */\n              swap1\n              pop\n                /* \"#utility.yul\":4285:4356   */\n              tag_219\n                /* \"#utility.yul\":4353:4354   */\n              0x00\n                /* \"#utility.yul\":4342:4351   */\n              dup4\n                /* \"#utility.yul\":4338:4355   */\n              add\n                /* \"#utility.yul\":4329:4335   */\n              dup11\n                /* \"#utility.yul\":4285:4356   */\n              tag_156\n              jump\t// in\n            tag_219:\n                /* \"#utility.yul\":4403:4412   */\n              dup2\n                /* \"#utility.yul\":4397:4401   */\n              dup2\n                /* \"#utility.yul\":4393:4413   */\n              sub\n                /* \"#utility.yul\":4388:4390   */\n              0x20\n                /* \"#utility.yul\":4377:4386   */\n              dup4\n                /* \"#utility.yul\":4373:4391   */\n              add\n                /* \"#utility.yul\":4366:4414   */\n              mstore\n                /* \"#utility.yul\":4431:4509   */\n              tag_220\n                /* \"#utility.yul\":4504:4508   */\n              dup2\n                /* \"#utility.yul\":4495:4501   */\n              dup10\n                /* \"#utility.yul\":4431:4509   */\n              tag_155\n              jump\t// in\n            tag_220:\n                /* \"#utility.yul\":4423:4509   */\n              swap1\n              pop\n                /* \"#utility.yul\":4556:4565   */\n              dup2\n                /* \"#utility.yul\":4550:4554   */\n              dup2\n                /* \"#utility.yul\":4546:4566   */\n              sub\n                /* \"#utility.yul\":4541:4543   */\n              0x40\n                /* \"#utility.yul\":4530:4539   */\n              dup4\n                /* \"#utility.yul\":4526:4544   */\n              add\n                /* \"#utility.yul\":4519:4567   */\n              mstore\n                /* \"#utility.yul\":4584:4662   */\n              tag_221\n                /* \"#utility.yul\":4657:4661   */\n              dup2\n                /* \"#utility.yul\":4648:4654   */\n              dup9\n                /* \"#utility.yul\":4584:4662   */\n              tag_155\n              jump\t// in\n            tag_221:\n                /* \"#utility.yul\":4576:4662   */\n              swap1\n              pop\n                /* \"#utility.yul\":4672:4744   */\n              tag_222\n                /* \"#utility.yul\":4740:4742   */\n              0x60\n                /* \"#utility.yul\":4729:4738   */\n              dup4\n                /* \"#utility.yul\":4725:4743   */\n              add\n                /* \"#utility.yul\":4716:4722   */\n              dup8\n                /* \"#utility.yul\":4672:4744   */\n              tag_157\n              jump\t// in\n            tag_222:\n                /* \"#utility.yul\":4754:4827   */\n              tag_223\n                /* \"#utility.yul\":4822:4825   */\n              0x80\n                /* \"#utility.yul\":4811:4820   */\n              dup4\n                /* \"#utility.yul\":4807:4826   */\n              add\n                /* \"#utility.yul\":4798:4804   */\n              dup7\n                /* \"#utility.yul\":4754:4827   */\n              tag_157\n              jump\t// in\n            tag_223:\n                /* \"#utility.yul\":4837:4910   */\n              tag_224\n                /* \"#utility.yul\":4905:4908   */\n              0xa0\n                /* \"#utility.yul\":4894:4903   */\n              dup4\n                /* \"#utility.yul\":4890:4909   */\n              add\n                /* \"#utility.yul\":4881:4887   */\n              dup6\n                /* \"#utility.yul\":4837:4910   */\n              tag_157\n              jump\t// in\n            tag_224:\n                /* \"#utility.yul\":4920:4993   */\n              tag_225\n                /* \"#utility.yul\":4988:4991   */\n              0xc0\n                /* \"#utility.yul\":4977:4986   */\n              dup4\n                /* \"#utility.yul\":4973:4992   */\n              add\n                /* \"#utility.yul\":4964:4970   */\n              dup5\n                /* \"#utility.yul\":4920:4993   */\n              tag_157\n              jump\t// in\n            tag_225:\n                /* \"#utility.yul\":3932:5000   */\n              swap9\n              swap8\n              pop\n              pop\n              pop\n              pop\n              pop\n              pop\n              pop\n              pop\n              jump\t// out\n                /* \"#utility.yul\":5006:5749   */\n            tag_44:\n                /* \"#utility.yul\":5225:5229   */\n              0x00\n                /* \"#utility.yul\":5263:5266   */\n              0xa0\n                /* \"#utility.yul\":5252:5261   */\n              dup3\n                /* \"#utility.yul\":5248:5267   */\n              add\n                /* \"#utility.yul\":5240:5267   */\n              swap1\n              pop\n                /* \"#utility.yul\":5313:5322   */\n              dup2\n                /* \"#utility.yul\":5307:5311   */\n              dup2\n                /* \"#utility.yul\":5303:5323   */\n              sub\n                /* \"#utility.yul\":5299:5300   */\n              0x00\n                /* \"#utility.yul\":5288:5297   */\n              dup4\n                /* \"#utility.yul\":5284:5301   */\n              add\n                /* \"#utility.yul\":5277:5324   */\n              mstore\n                /* \"#utility.yul\":5341:5419   */\n              tag_227\n                /* \"#utility.yul\":5414:5418   */\n              dup2\n                /* \"#utility.yul\":5405:5411   */\n              dup9\n                /* \"#utility.yul\":5341:5419   */\n              tag_155\n              jump\t// in\n            tag_227:\n                /* \"#utility.yul\":5333:5419   */\n              swap1\n              pop\n                /* \"#utility.yul\":5429:5501   */\n              tag_228\n                /* \"#utility.yul\":5497:5499   */\n              0x20\n                /* \"#utility.yul\":5486:5495   */\n              dup4\n                /* \"#utility.yul\":5482:5500   */\n              add\n                /* \"#utility.yul\":5473:5479   */\n              dup8\n                /* \"#utility.yul\":5429:5501   */\n              tag_157\n              jump\t// in\n            tag_228:\n                /* \"#utility.yul\":5511:5583   */\n              tag_229\n                /* \"#utility.yul\":5579:5581   */\n              0x40\n                /* \"#utility.yul\":5568:5577   */\n              dup4\n                /* \"#utility.yul\":5564:5582   */\n              add\n                /* \"#utility.yul\":5555:5561   */\n              dup7\n                /* \"#utility.yul\":5511:5583   */\n              tag_156\n              jump\t// in\n            tag_229:\n                /* \"#utility.yul\":5593:5659   */\n              tag_230\n                /* \"#utility.yul\":5655:5657   */\n              0x60\n                /* \"#utility.yul\":5644:5653   */\n              dup4\n                /* \"#utility.yul\":5640:5658   */\n              add\n                /* \"#utility.yul\":5631:5637   */\n              dup6\n                /* \"#utility.yul\":5593:5659   */\n              tag_150\n              jump\t// in\n            tag_230:\n                /* \"#utility.yul\":5669:5742   */\n              tag_231\n                /* \"#utility.yul\":5737:5740   */\n              0x80\n                /* \"#utility.yul\":5726:5735   */\n              dup4\n                /* \"#utility.yul\":5722:5741   */\n              add\n                /* \"#utility.yul\":5713:5719   */\n              dup5\n                /* \"#utility.yul\":5669:5742   */\n              tag_157\n              jump\t// in\n            tag_231:\n                /* \"#utility.yul\":5006:5749   */\n              swap7\n              swap6\n              pop\n              pop\n              pop\n              pop\n              pop\n              pop\n              jump\t// out\n                /* \"#utility.yul\":5755:5977   */\n            tag_49:\n                /* \"#utility.yul\":5848:5852   */\n              0x00\n                /* \"#utility.yul\":5886:5888   */\n              0x20\n                /* \"#utility.yul\":5875:5884   */\n              dup3\n                /* \"#utility.yul\":5871:5889   */\n              add\n                /* \"#utility.yul\":5863:5889   */\n              swap1\n              pop\n                /* \"#utility.yul\":5899:5970   */\n              tag_233\n                /* \"#utility.yul\":5967:5968   */\n              0x00\n                /* \"#utility.yul\":5956:5965   */\n              dup4\n                /* \"#utility.yul\":5952:5969   */\n              add\n                /* \"#utility.yul\":5943:5949   */\n              dup5\n                /* \"#utility.yul\":5899:5970   */\n              tag_156\n              jump\t// in\n            tag_233:\n                /* \"#utility.yul\":5755:5977   */\n              swap3\n              swap2\n              pop\n              pop\n              jump\t// out\n                /* \"#utility.yul\":5983:6205   */\n            tag_54:\n                /* \"#utility.yul\":6076:6080   */\n              0x00\n                /* \"#utility.yul\":6114:6116   */\n              0x20\n                /* \"#utility.yul\":6103:6112   */\n              dup3\n                /* \"#utility.yul\":6099:6117   */\n              add\n                /* \"#utility.yul\":6091:6117   */\n              swap1\n              pop\n                /* \"#utility.yul\":6127:6198   */\n              tag_235\n                /* \"#utility.yul\":6195:6196   */\n              0x00\n                /* \"#utility.yul\":6184:6193   */\n              dup4\n                /* \"#utility.yul\":6180:6197   */\n              add\n                /* \"#utility.yul\":6171:6177   */\n              dup5\n                /* \"#utility.yul\":6127:6198   */\n              tag_157\n              jump\t// in\n            tag_235:\n                /* \"#utility.yul\":5983:6205   */\n              swap3\n              swap2\n              pop\n              pop\n              jump\t// out\n                /* \"#utility.yul\":6211:6328   */\n            tag_158:\n                /* \"#utility.yul\":6320:6321   */\n              0x00\n                /* \"#utility.yul\":6317:6318   */\n              dup1\n                /* \"#utility.yul\":6310:6322   */\n              revert\n                /* \"#utility.yul\":6334:6451   */\n            tag_159:\n                /* \"#utility.yul\":6443:6444   */\n              0x00\n                /* \"#utility.yul\":6440:6441   */\n              dup1\n                /* \"#utility.yul\":6433:6445   */\n              revert\n                /* \"#utility.yul\":6457:6574   */\n            tag_160:\n                /* \"#utility.yul\":6566:6567   */\n              0x00\n                /* \"#utility.yul\":6563:6564   */\n              dup1\n                /* \"#utility.yul\":6556:6568   */\n              revert\n                /* \"#utility.yul\":6594:7147   */\n            tag_161:\n                /* \"#utility.yul\":6652:6660   */\n              0x00\n                /* \"#utility.yul\":6662:6668   */\n              dup1\n                /* \"#utility.yul\":6712:6715   */\n              dup4\n                /* \"#utility.yul\":6705:6709   */\n              0x1f\n                /* \"#utility.yul\":6697:6703   */\n              dup5\n                /* \"#utility.yul\":6693:6710   */\n              add\n                /* \"#utility.yul\":6689:6716   */\n              slt\n                /* \"#utility.yul\":6679:6801   */\n              tag_240\n              jumpi\n                /* \"#utility.yul\":6720:6799   */\n              tag_241\n              tag_158\n              jump\t// in\n            tag_241:\n                /* \"#utility.yul\":6679:6801   */\n            tag_240:\n                /* \"#utility.yul\":6833:6839   */\n              dup3\n                /* \"#utility.yul\":6820:6840   */\n              calldataload\n                /* \"#utility.yul\":6810:6840   */\n              swap1\n              pop\n                /* \"#utility.yul\":6863:6881   */\n              0xffffffffffffffff\n                /* \"#utility.yul\":6855:6861   */\n              dup2\n                /* \"#utility.yul\":6852:6882   */\n              gt\n                /* \"#utility.yul\":6849:6966   */\n              iszero\n              tag_242\n              jumpi\n                /* \"#utility.yul\":6885:6964   */\n              tag_243\n              tag_159\n              jump\t// in\n            tag_243:\n                /* \"#utility.yul\":6849:6966   */\n            tag_242:\n                /* \"#utility.yul\":6999:7003   */\n              0x20\n                /* \"#utility.yul\":6991:6997   */\n              dup4\n                /* \"#utility.yul\":6987:7004   */\n              add\n                /* \"#utility.yul\":6975:7004   */\n              swap2\n              pop\n                /* \"#utility.yul\":7053:7056   */\n              dup4\n                /* \"#utility.yul\":7045:7049   */\n              0x01\n                /* \"#utility.yul\":7037:7043   */\n              dup3\n                /* \"#utility.yul\":7033:7050   */\n              mul\n                /* \"#utility.yul\":7023:7031   */\n              dup4\n                /* \"#utility.yul\":7019:7051   */\n              add\n                /* \"#utility.yul\":7016:7057   */\n              gt\n                /* \"#utility.yul\":7013:7141   */\n              iszero\n              tag_244\n              jumpi\n                /* \"#utility.yul\":7060:7139   */\n              tag_245\n              tag_160\n              jump\t// in\n            tag_245:\n                /* \"#utility.yul\":7013:7141   */\n            tag_244:\n                /* \"#utility.yul\":6594:7147   */\n              swap3\n              pop\n              swap3\n              swap1\n              pop\n              jump\t// out\n                /* \"#utility.yul\":7153:7257   */\n            tag_162:\n                /* \"#utility.yul\":7198:7205   */\n              0x00\n                /* \"#utility.yul\":7227:7251   */\n              tag_247\n                /* \"#utility.yul\":7245:7250   */\n              dup3\n                /* \"#utility.yul\":7227:7251   */\n              tag_145\n              jump\t// in\n            tag_247:\n                /* \"#utility.yul\":7216:7251   */\n              swap1\n              pop\n                /* \"#utility.yul\":7153:7257   */\n              swap2\n              swap1\n              pop\n              jump\t// out\n                /* \"#utility.yul\":7263:7401   */\n            tag_163:\n                /* \"#utility.yul\":7344:7376   */\n              tag_249\n                /* \"#utility.yul\":7370:7375   */\n              dup2\n                /* \"#utility.yul\":7344:7376   */\n              tag_162\n              jump\t// in\n            tag_249:\n                /* \"#utility.yul\":7337:7342   */\n              dup2\n                /* \"#utility.yul\":7334:7377   */\n              eq\n                /* \"#utility.yul\":7324:7395   */\n              tag_250\n              jumpi\n                /* \"#utility.yul\":7391:7392   */\n              0x00\n                /* \"#utility.yul\":7388:7389   */\n              dup1\n                /* \"#utility.yul\":7381:7393   */\n              revert\n                /* \"#utility.yul\":7324:7395   */\n            tag_250:\n                /* \"#utility.yul\":7263:7401   */\n              pop\n              jump\t// out\n                /* \"#utility.yul\":7407:7562   */\n            tag_164:\n                /* \"#utility.yul\":7461:7466   */\n              0x00\n                /* \"#utility.yul\":7499:7505   */\n              dup2\n                /* \"#utility.yul\":7486:7506   */\n              calldataload\n                /* \"#utility.yul\":7477:7506   */\n              swap1\n              pop\n                /* \"#utility.yul\":7515:7556   */\n              tag_252\n                /* \"#utility.yul\":7550:7555   */\n              dup2\n                /* \"#utility.yul\":7515:7556   */\n              tag_163\n              jump\t// in\n            tag_252:\n                /* \"#utility.yul\":7407:7562   */\n              swap3\n              swap2\n              pop\n              pop\n              jump\t// out\n                /* \"#utility.yul\":7568:8403   */\n            tag_62:\n                /* \"#utility.yul\":7665:7671   */\n              0x00\n                /* \"#utility.yul\":7673:7679   */\n              dup1\n                /* \"#utility.yul\":7681:7687   */\n              0x00\n                /* \"#utility.yul\":7689:7695   */\n              dup1\n                /* \"#utility.yul\":7738:7740   */\n              0x60\n                /* \"#utility.yul\":7726:7735   */\n              dup6\n                /* \"#utility.yul\":7717:7724   */\n              dup8\n                /* \"#utility.yul\":7713:7736   */\n              sub\n                /* \"#utility.yul\":7709:7741   */\n              slt\n                /* \"#utility.yul\":7706:7825   */\n              iszero\n              tag_254\n              jumpi\n                /* \"#utility.yul\":7744:7823   */\n              tag_255\n              tag_140\n              jump\t// in\n            tag_255:\n                /* \"#utility.yul\":7706:7825   */\n            tag_254:\n                /* \"#utility.yul\":7892:7893   */\n              0x00\n                /* \"#utility.yul\":7881:7890   */\n              dup6\n                /* \"#utility.yul\":7877:7894   */\n              add\n                /* \"#utility.yul\":7864:7895   */\n              calldataload\n                /* \"#utility.yul\":7922:7940   */\n              0xffffffffffffffff\n                /* \"#utility.yul\":7914:7920   */\n              dup2\n                /* \"#utility.yul\":7911:7941   */\n              gt\n                /* \"#utility.yul\":7908:8025   */\n              iszero\n              tag_256\n              jumpi\n                /* \"#utility.yul\":7944:8023   */\n              tag_257\n              tag_141\n              jump\t// in\n            tag_257:\n                /* \"#utility.yul\":7908:8025   */\n            tag_256:\n                /* \"#utility.yul\":8057:8122   */\n              tag_258\n                /* \"#utility.yul\":8114:8121   */\n              dup8\n                /* \"#utility.yul\":8105:8111   */\n              dup3\n                /* \"#utility.yul\":8094:8103   */\n              dup9\n                /* \"#utility.yul\":8090:8112   */\n              add\n                /* \"#utility.yul\":8057:8122   */\n              tag_161\n              jump\t// in\n            tag_258:\n                /* \"#utility.yul\":8039:8122   */\n              swap5\n              pop\n              swap5\n              pop\n                /* \"#utility.yul\":7835:8132   */\n              pop\n                /* \"#utility.yul\":8171:8173   */\n              0x20\n                /* \"#utility.yul\":8197:8250   */\n              tag_259\n                /* \"#utility.yul\":8242:8249   */\n              dup8\n                /* \"#utility.yul\":8233:8239   */\n              dup3\n                /* \"#utility.yul\":8222:8231   */\n              dup9\n                /* \"#utility.yul\":8218:8240   */\n              add\n                /* \"#utility.yul\":8197:8250   */\n              tag_144\n              jump\t// in\n            tag_259:\n                /* \"#utility.yul\":8187:8250   */\n              swap3\n              pop\n                /* \"#utility.yul\":8142:8260   */\n              pop\n                /* \"#utility.yul\":8299:8301   */\n              0x40\n                /* \"#utility.yul\":8325:8386   */\n              tag_260\n                /* \"#utility.yul\":8378:8385   */\n              dup8\n                /* \"#utility.yul\":8369:8375   */\n              dup3\n                /* \"#utility.yul\":8358:8367   */\n              dup9\n                /* \"#utility.yul\":8354:8376   */\n              add\n                /* \"#utility.yul\":8325:8386   */\n              tag_164\n              jump\t// in\n            tag_260:\n                /* \"#utility.yul\":8315:8386   */\n              swap2\n              pop\n                /* \"#utility.yul\":8270:8396   */\n              pop\n                /* \"#utility.yul\":7568:8403   */\n              swap3\n              swap6\n              swap2\n              swap5\n              pop\n              swap3\n              pop\n              jump\t// out\n                /* \"#utility.yul\":8409:8589   */\n            tag_165:\n                /* \"#utility.yul\":8457:8534   */\n              0x4e487b7100000000000000000000000000000000000000000000000000000000\n                /* \"#utility.yul\":8454:8455   */\n              0x00\n                /* \"#utility.yul\":8447:8535   */\n              mstore\n                /* \"#utility.yul\":8554:8558   */\n              0x12\n                /* \"#utility.yul\":8551:8552   */\n              0x04\n                /* \"#utility.yul\":8544:8559   */\n              mstore\n                /* \"#utility.yul\":8578:8582   */\n              0x24\n                /* \"#utility.yul\":8575:8576   */\n              0x00\n                /* \"#utility.yul\":8568:8583   */\n              revert\n                /* \"#utility.yul\":8595:8775   */\n            tag_166:\n                /* \"#utility.yul\":8643:8720   */\n              0x4e487b7100000000000000000000000000000000000000000000000000000000\n                /* \"#utility.yul\":8640:8641   */\n              0x00\n                /* \"#utility.yul\":8633:8721   */\n              mstore\n                /* \"#utility.yul\":8740:8744   */\n              0x11\n                /* \"#utility.yul\":8737:8738   */\n              0x04\n                /* \"#utility.yul\":8730:8745   */\n              mstore\n                /* \"#utility.yul\":8764:8768   */\n              0x24\n                /* \"#utility.yul\":8761:8762   */\n              0x00\n                /* \"#utility.yul\":8754:8769   */\n              revert\n                /* \"#utility.yul\":8781:8966   */\n            tag_83:\n                /* \"#utility.yul\":8821:8822   */\n              0x00\n                /* \"#utility.yul\":8838:8858   */\n              tag_264\n                /* \"#utility.yul\":8856:8857   */\n              dup3\n                /* \"#utility.yul\":8838:8858   */\n              tag_142\n              jump\t// in\n            tag_264:\n                /* \"#utility.yul\":8833:8858   */\n              swap2\n              pop\n                /* \"#utility.yul\":8872:8892   */\n              tag_265\n                /* \"#utility.yul\":8890:8891   */\n              dup4\n                /* \"#utility.yul\":8872:8892   */\n              tag_142\n              jump\t// in\n            tag_265:\n                /* \"#utility.yul\":8867:8892   */\n              swap3\n              pop\n                /* \"#utility.yul\":8911:8912   */\n              dup3\n                /* \"#utility.yul\":8901:8936   */\n              tag_266\n              jumpi\n                /* \"#utility.yul\":8916:8934   */\n              tag_267\n              tag_165\n              jump\t// in\n            tag_267:\n                /* \"#utility.yul\":8901:8936   */\n            tag_266:\n                /* \"#utility.yul\":8958:8959   */\n              dup3\n                /* \"#utility.yul\":8955:8956   */\n              dup3\n                /* \"#utility.yul\":8951:8960   */\n              div\n                /* \"#utility.yul\":8946:8960   */\n              swap1\n              pop\n                /* \"#utility.yul\":8781:8966   */\n              swap3\n              swap2\n              pop\n              pop\n              jump\t// out\n                /* \"#utility.yul\":8972:9152   */\n            tag_167:\n                /* \"#utility.yul\":9020:9097   */\n              0x4e487b7100000000000000000000000000000000000000000000000000000000\n                /* \"#utility.yul\":9017:9018   */\n              0x00\n                /* \"#utility.yul\":9010:9098   */\n              mstore\n                /* \"#utility.yul\":9117:9121   */\n              0x22\n                /* \"#utility.yul\":9114:9115   */\n              0x04\n                /* \"#utility.yul\":9107:9122   */\n              mstore\n                /* \"#utility.yul\":9141:9145   */\n              0x24\n                /* \"#utility.yul\":9138:9139   */\n              0x00\n                /* \"#utility.yul\":9131:9146   */\n              revert\n                /* \"#utility.yul\":9158:9478   */\n            tag_88:\n                /* \"#utility.yul\":9202:9208   */\n              0x00\n                /* \"#utility.yul\":9239:9240   */\n              0x02\n                /* \"#utility.yul\":9233:9237   */\n              dup3\n                /* \"#utility.yul\":9229:9241   */\n              div\n                /* \"#utility.yul\":9219:9241   */\n              swap1\n              pop\n                /* \"#utility.yul\":9286:9287   */\n              0x01\n                /* \"#utility.yul\":9280:9284   */\n              dup3\n                /* \"#utility.yul\":9276:9288   */\n              and\n                /* \"#utility.yul\":9307:9325   */\n              dup1\n                /* \"#utility.yul\":9297:9378   */\n              tag_270\n              jumpi\n                /* \"#utility.yul\":9363:9367   */\n              0x7f\n                /* \"#utility.yul\":9355:9361   */\n              dup3\n                /* \"#utility.yul\":9351:9368   */\n              and\n                /* \"#utility.yul\":9341:9368   */\n              swap2\n              pop\n                /* \"#utility.yul\":9297:9378   */\n            tag_270:\n                /* \"#utility.yul\":9425:9427   */\n              0x20\n                /* \"#utility.yul\":9417:9423   */\n              dup3\n                /* \"#utility.yul\":9414:9428   */\n              lt\n                /* \"#utility.yul\":9394:9412   */\n              dup2\n                /* \"#utility.yul\":9391:9429   */\n              sub\n                /* \"#utility.yul\":9388:9472   */\n              tag_271\n              jumpi\n                /* \"#utility.yul\":9444:9462   */\n              tag_272\n              tag_167\n              jump\t// in\n            tag_272:\n                /* \"#utility.yul\":9388:9472   */\n            tag_271:\n                /* \"#utility.yul\":9209:9478   */\n              pop\n                /* \"#utility.yul\":9158:9478   */\n              swap2\n              swap1\n              pop\n              jump\t// out\n                /* \"#utility.yul\":9484:9717   */\n            tag_119:\n                /* \"#utility.yul\":9523:9526   */\n              0x00\n                /* \"#utility.yul\":9546:9570   */\n              tag_274\n                /* \"#utility.yul\":9564:9569   */\n              dup3\n                /* \"#utility.yul\":9546:9570   */\n              tag_142\n              jump\t// in\n            tag_274:\n                /* \"#utility.yul\":9537:9570   */\n              swap2\n              pop\n                /* \"#utility.yul\":9592:9658   */\n              0xffffffffffffffffffffffffffffffffffffffffffffffffffffffffffffffff\n                /* \"#utility.yul\":9585:9590   */\n              dup3\n                /* \"#utility.yul\":9582:9659   */\n              sub\n                /* \"#utility.yul\":9579:9682   */\n              tag_275\n              jumpi\n                /* \"#utility.yul\":9662:9680   */\n              tag_276\n              tag_166\n              jump\t// in\n            tag_276:\n                /* \"#utility.yul\":9579:9682   */\n            tag_275:\n                /* \"#utility.yul\":9709:9710   */\n              0x01\n                /* \"#utility.yul\":9702:9707   */\n              dup3\n                /* \"#utility.yul\":9698:9711   */\n              add\n                /* \"#utility.yul\":9691:9711   */\n              swap1\n              pop\n                /* \"#utility.yul\":9484:9717   */\n              swap2\n              swap1\n              pop\n              jump\t// out\n\n            auxdata: 0xa2646970667358221220c42841fa598c5838f48f08ae8394b0a6a766dace0a94b008e7e5dc149619c5b364736f6c634300080d0033\n        }\n    }\n\n    auxdata: 0xa2646970667358221220afe359c12aee5689e9b6e06200e4f9561932c4eaa8d54576caa1c5b6acef047264736f6c634300080d0033\n}\n","bytecode":{"linkReferences":{},"object":"608060405234801561001057600080fd5b50611c78806100206000396000f3fe60806040523480156200001157600080fd5b5060043610620000465760003560e01c8063339d50a5146200004b5780634acb9d4f1462000081578063ffa56a5714620000a3575b600080fd5b62000069600480360381019062000063919062000298565b620000c3565b60405162000078919062000355565b60405180910390f35b6200008b62000103565b6040516200009a919062000440565b60405180910390f35b620000c16004803603810190620000bb9190620004d2565b62000193565b005b60008181548110620000d457600080fd5b906000526020600020016000915054906101000a900473ffffffffffffffffffffffffffffffffffffffff1681565b606060008054806020026020016040519081016040528092919081815260200182805480156200018957602002820191906000526020600020905b8160009054906101000a900473ffffffffffffffffffffffffffffffffffffffff1673ffffffffffffffffffffffffffffffffffffffff16815260200190600101908083116200013e575b5050505050905090565b6000858585858533604051620001a99062000245565b620001ba9695949392919062000610565b604051809103906000f080158015620001d7573d6000803e3d6000fd5b5090506000819080600181540180825580915050600190039060005260206000200160009091909190916101000a81548173ffffffffffffffffffffffffffffffffffffffff021916908373ffffffffffffffffffffffffffffffffffffffff160217905550505050505050565b6115d3806200067083390190565b600080fd5b600080fd5b6000819050919050565b62000272816200025d565b81146200027e57600080fd5b50565b600081359050620002928162000267565b92915050565b600060208284031215620002b157620002b062000253565b5b6000620002c18482850162000281565b91505092915050565b600073ffffffffffffffffffffffffffffffffffffffff82169050919050565b6000819050919050565b6000620003156200030f6200030984620002ca565b620002ea565b620002ca565b9050919050565b60006200032982620002f4565b9050919050565b60006200033d826200031c565b9050919050565b6200034f8162000330565b82525050565b60006020820190506200036c600083018462000344565b92915050565b600081519050919050565b600082825260208201905092915050565b6000819050602082019050919050565b620003a98162000330565b82525050565b6000620003bd83836200039e565b60208301905092915050565b6000602082019050919050565b6000620003e38262000372565b620003ef81856200037d565b9350620003fc836200038e565b8060005b8381101562000433578151620004178882620003af565b97506200042483620003c9565b92505060018101905062000400565b5085935050505092915050565b600060208201905081810360008301526200045c8184620003d6565b905092915050565b600080fd5b600080fd5b600080fd5b60008083601f8401126200048c576200048b62000464565b5b8235905067ffffffffffffffff811115620004ac57620004ab62000469565b5b602083019150836001820283011115620004cb57620004ca6200046e565b5b9250929050565b600080600080600060608688031215620004f157620004f062000253565b5b600086013567ffffffffffffffff81111562000512576200051162000258565b5b620005208882890162000473565b9550955050602086013567ffffffffffffffff81111562000546576200054562000258565b5b620005548882890162000473565b93509350506040620005698882890162000281565b9150509295509295909350565b600082825260208201905092915050565b82818337600083830152505050565b6000601f19601f8301169050919050565b6000620005b5838562000576565b9350620005c483858462000587565b620005cf8362000596565b840190509392505050565b620005e5816200025d565b82525050565b6000620005f882620002ca565b9050919050565b6200060a81620005eb565b82525050565b600060808201905081810360008301526200062d81888a620005a7565b9050818103602083015262000644818688620005a7565b9050620006556040830185620005da565b620006646060830184620005ff565b97965050505050505056fe60806040523480156200001157600080fd5b50604051620015d3380380620015d38339818101604052810190620000379190620003a7565b83600190805190602001906200004f929190620000ba565b50826002908051906020019062000068929190620000ba565b50806000806101000a81548173ffffffffffffffffffffffffffffffffffffffff021916908373ffffffffffffffffffffffffffffffffffffffff1602179055508160038190555050505050620004bb565b828054620000c89062000486565b90600052602060002090601f016020900481019282620000ec576000855562000138565b82601f106200010757805160ff191683800117855562000138565b8280016001018555821562000138579182015b82811115620001375782518255916020019190600101906200011a565b5b5090506200014791906200014b565b5090565b5b80821115620001665760008160009055506001016200014c565b5090565b6000604051905090565b600080fd5b600080fd5b600080fd5b600080fd5b6000601f19601f8301169050919050565b7f4e487b7100000000000000000000000000000000000000000000000000000000600052604160045260246000fd5b620001d38262000188565b810181811067ffffffffffffffff82111715620001f557620001f462000199565b5b80604052505050565b60006200020a6200016a565b9050620002188282620001c8565b919050565b600067ffffffffffffffff8211156200023b576200023a62000199565b5b620002468262000188565b9050602081019050919050565b60005b838110156200027357808201518184015260208101905062000256565b8381111562000283576000848401525b50505050565b6000620002a06200029a846200021d565b620001fe565b905082815260208101848484011115620002bf57620002be62000183565b5b620002cc84828562000253565b509392505050565b600082601f830112620002ec57620002eb6200017e565b5b8151620002fe84826020860162000289565b91505092915050565b6000819050919050565b6200031c8162000307565b81146200032857600080fd5b50565b6000815190506200033c8162000311565b92915050565b600073ffffffffffffffffffffffffffffffffffffffff82169050919050565b60006200036f8262000342565b9050919050565b620003818162000362565b81146200038d57600080fd5b50565b600081519050620003a18162000376565b92915050565b60008060008060808587031215620003c457620003c362000174565b5b600085015167ffffffffffffffff811115620003e557620003e462000179565b5b620003f387828801620002d4565b945050602085015167ffffffffffffffff81111562000417576200041662000179565b5b6200042587828801620002d4565b935050604062000438878288016200032b565b92505060606200044b8782880162000390565b91505092959194509250565b7f4e487b7100000000000000000000000000000000000000000000000000000000600052602260045260246000fd5b600060028204905060018216806200049f57607f821691505b602082108103620004b557620004b462000457565b5b50919050565b61110880620004cb6000396000f3fe6080604052600436106100c25760003560e01c806382fde0931161007f578063937e09b111610059578063937e09b1146102745780639fb42b1f1461029f578063d7bb99ba146102ca578063d7d1bbdb146102d4576100c2565b806382fde093146101f5578063835a6172146102205780638a9cfd551461024b576100c2565b806303441006146100c75780630a144391146100f0578063110842cb1461012d5780634051ddac1461015857806340d9a6a614610189578063481c6a75146101ca575b600080fd5b3480156100d357600080fd5b506100ee60048036038101906100e99190610bb0565b6102fd565b005b3480156100fc57600080fd5b5061011760048036038101906101129190610c3b565b610436565b6040516101249190610c83565b60405180910390f35b34801561013957600080fd5b50610142610456565b60405161014f9190610d37565b60405180910390f35b34801561016457600080fd5b5061016d6104e4565b6040516101809796959493929190610d77565b60405180910390f35b34801561019557600080fd5b506101b060048036038101906101ab9190610bb0565b61064d565b6040516101c1959493929190610df4565b60405180910390f35b3480156101d657600080fd5b506101df610751565b6040516101ec9190610e4e565b60405180910390f35b34801561020157600080fd5b5061020a610775565b6040516102179190610e69565b60405180910390f35b34801561022c57600080fd5b5061023561077b565b6040516102429190610d37565b60405180910390f35b34801561025757600080fd5b50610272600480360381019061026d9190610f27565b610809565b005b34801561028057600080fd5b50610289610903565b6040516102969190610e69565b60405180910390f35b3480156102ab57600080fd5b506102b4610909565b6040516102c19190610e69565b60405180910390f35b6102d261090f565b005b3480156102e057600080fd5b506102fb60048036038101906102f69190610bb0565b61098f565b005b60008054906101000a900473ffffffffffffffffffffffffffffffffffffffff1673ffffffffffffffffffffffffffffffffffffffff163373ffffffffffffffffffffffffffffffffffffffff161461035557600080fd5b60006007600083815260200190815260200160002090508060020160149054906101000a900460ff161561038857600080fd5b60026005546103979190610ff9565b8160040154116103a657600080fd5b8060020160009054906101000a900473ffffffffffffffffffffffffffffffffffffffff1673ffffffffffffffffffffffffffffffffffffffff166108fc82600101549081150290604051600060405180830381858888f19350505050158015610414573d6000803e3d6000fd5b5060018160020160146101000a81548160ff0219169083151502179055505050565b60046020528060005260406000206000915054906101000a900460ff1681565b6002805461046390611059565b80601f016020809104026020016040519081016040528092919081815260200182805461048f90611059565b80156104dc5780601f106104b1576101008083540402835291602001916104dc565b820191906000526020600020905b8154815290600101906020018083116104bf57829003601f168201915b505050505081565b600060608060008060008060008054906101000a900473ffffffffffffffffffffffffffffffffffffffff16600160026003546005546006544785805461052a90611059565b80601f016020809104026020016040519081016040528092919081815260200182805461055690611059565b80156105a35780601f10610578576101008083540402835291602001916105a3565b820191906000526020600020905b81548152906001019060200180831161058657829003601f168201915b505050505095508480546105b690611059565b80601f01602080910402602001604051908101604052809291908181526020018280546105e290611059565b801561062f5780601f106106045761010080835404028352916020019161062f565b820191906000526020600020905b81548152906001019060200180831161061257829003601f168201915b50505050509450965096509650965096509650965090919293949596565b606060008060008060006007600088815260200190815260200160002090508060000181600101548260020160009054906101000a900473ffffffffffffffffffffffffffffffffffffffff168360020160149054906101000a900460ff1684600401548480546106bd90611059565b80601f01602080910402602001604051908101604052809291908181526020018280546106e990611059565b80156107365780601f1061070b57610100808354040283529160200191610736565b820191906000526020600020905b81548152906001019060200180831161071957829003601f168201915b50505050509450955095509550955095505091939590929450565b60008054906101000a900473ffffffffffffffffffffffffffffffffffffffff1681565b60055481565b6001805461078890611059565b80601f01602080910402602001604051908101604052809291908181526020018280546107b490611059565b80156108015780601f106107d657610100808354040283529160200191610801565b820191906000526020600020905b8154815290600101906020018083116107e457829003601f168201915b505050505081565b60008054906101000a900473ffffffffffffffffffffffffffffffffffffffff1673ffffffffffffffffffffffffffffffffffffffff163373ffffffffffffffffffffffffffffffffffffffff161461086157600080fd5b600060076000600654815260200190815260200160002090506006600081548092919061088d9061108a565b919050555084848260000191906108a5929190610acd565b50828160010181905550818160020160006101000a81548173ffffffffffffffffffffffffffffffffffffffff021916908373ffffffffffffffffffffffffffffffffffffffff160217905550600081600401819055505050505050565b60035481565b60065481565b600354341161091d57600080fd5b6001600460003373ffffffffffffffffffffffffffffffffffffffff1673ffffffffffffffffffffffffffffffffffffffff16815260200190815260200160002060006101000a81548160ff021916908315150217905550600560008154809291906109889061108a565b9190505550565b6000600760008381526020019081526020016000209050600460003373ffffffffffffffffffffffffffffffffffffffff1673ffffffffffffffffffffffffffffffffffffffff16815260200190815260200160002060009054906101000a900460ff166109fc57600080fd5b8060030160003373ffffffffffffffffffffffffffffffffffffffff1673ffffffffffffffffffffffffffffffffffffffff16815260200190815260200160002060009054906101000a900460ff1615610a5557600080fd5b60018160030160003373ffffffffffffffffffffffffffffffffffffffff1673ffffffffffffffffffffffffffffffffffffffff16815260200190815260200160002060006101000a81548160ff021916908315150217905550806004016000815480929190610ac49061108a565b91905055505050565b828054610ad990611059565b90600052602060002090601f016020900481019282610afb5760008555610b42565b82601f10610b1457803560ff1916838001178555610b42565b82800160010185558215610b42579182015b82811115610b41578235825591602001919060010190610b26565b5b509050610b4f9190610b53565b5090565b5b80821115610b6c576000816000905550600101610b54565b5090565b600080fd5b600080fd5b6000819050919050565b610b8d81610b7a565b8114610b9857600080fd5b50565b600081359050610baa81610b84565b92915050565b600060208284031215610bc657610bc5610b70565b5b6000610bd484828501610b9b565b91505092915050565b600073ffffffffffffffffffffffffffffffffffffffff82169050919050565b6000610c0882610bdd565b9050919050565b610c1881610bfd565b8114610c2357600080fd5b50565b600081359050610c3581610c0f565b92915050565b600060208284031215610c5157610c50610b70565b5b6000610c5f84828501610c26565b91505092915050565b60008115159050919050565b610c7d81610c68565b82525050565b6000602082019050610c986000830184610c74565b92915050565b600081519050919050565b600082825260208201905092915050565b60005b83811015610cd8578082015181840152602081019050610cbd565b83811115610ce7576000848401525b50505050565b6000601f19601f8301169050919050565b6000610d0982610c9e565b610d138185610ca9565b9350610d23818560208601610cba565b610d2c81610ced565b840191505092915050565b60006020820190508181036000830152610d518184610cfe565b905092915050565b610d6281610bfd565b82525050565b610d7181610b7a565b82525050565b600060e082019050610d8c600083018a610d59565b8181036020830152610d9e8189610cfe565b90508181036040830152610db28188610cfe565b9050610dc16060830187610d68565b610dce6080830186610d68565b610ddb60a0830185610d68565b610de860c0830184610d68565b98975050505050505050565b600060a0820190508181036000830152610e0e8188610cfe565b9050610e1d6020830187610d68565b610e2a6040830186610d59565b610e376060830185610c74565b610e446080830184610d68565b9695505050505050565b6000602082019050610e636000830184610d59565b92915050565b6000602082019050610e7e6000830184610d68565b92915050565b600080fd5b600080fd5b600080fd5b60008083601f840112610ea957610ea8610e84565b5b8235905067ffffffffffffffff811115610ec657610ec5610e89565b5b602083019150836001820283011115610ee257610ee1610e8e565b5b9250929050565b6000610ef482610bdd565b9050919050565b610f0481610ee9565b8114610f0f57600080fd5b50565b600081359050610f2181610efb565b92915050565b60008060008060608587031215610f4157610f40610b70565b5b600085013567ffffffffffffffff811115610f5f57610f5e610b75565b5b610f6b87828801610e93565b94509450506020610f7e87828801610b9b565b9250506040610f8f87828801610f12565b91505092959194509250565b7f4e487b7100000000000000000000000000000000000000000000000000000000600052601260045260246000fd5b7f4e487b7100000000000000000000000000000000000000000000000000000000600052601160045260246000fd5b600061100482610b7a565b915061100f83610b7a565b92508261101f5761101e610f9b565b5b828204905092915050565b7f4e487b7100000000000000000000000000000000000000000000000000000000600052602260045260246000fd5b6000600282049050600182168061107157607f821691505b6020821081036110845761108361102a565b5b50919050565b600061109582610b7a565b91507fffffffffffffffffffffffffffffffffffffffffffffffffffffffffffffffff82036110c7576110c6610fca565b5b60018201905091905056fea2646970667358221220c42841fa598c5838f48f08ae8394b0a6a766dace0a94b008e7e5dc149619c5b364736f6c634300080d0033a2646970667358221220afe359c12aee5689e9b6e06200e4f9561932c4eaa8d54576caa1c5b6acef047264736f6c634300080d0033","opcodes":"PUSH1 0x80 PUSH1 0x40 MSTORE CALLVALUE DUP1 ISZERO PUSH2 0x10 JUMPI PUSH1 0x0 DUP1 REVERT JUMPDEST POP PUSH2 0x1C78 DUP1 PUSH2 0x20 PUSH1 0x0 CODECOPY PUSH1 0x0 RETURN INVALID PUSH1 0x80 PUSH1 0x40 MSTORE CALLVALUE DUP1 ISZERO PUSH3 0x11 JUMPI PUSH1 0x0 DUP1 REVERT JUMPDEST POP PUSH1 0x4 CALLDATASIZE LT PUSH3 0x46 JUMPI PUSH1 0x0 CALLDATALOAD PUSH1 0xE0 SHR DUP1 PUSH4 0x339D50A5 EQ PUSH3 0x4B JUMPI DUP1 PUSH4 0x4ACB9D4F EQ PUSH3 0x81 JUMPI DUP1 PUSH4 0xFFA56A57 EQ PUSH3 0xA3 JUMPI JUMPDEST PUSH1 0x0 DUP1 REVERT JUMPDEST PUSH3 0x69 PUSH1 0x4 DUP1 CALLDATASIZE SUB DUP2 ADD SWAP1 PUSH3 0x63 SWAP2 SWAP1 PUSH3 0x298 JUMP JUMPDEST PUSH3 0xC3 JUMP JUMPDEST PUSH1 0x40 MLOAD PUSH3 0x78 SWAP2 SWAP1 PUSH3 0x355 JUMP JUMPDEST PUSH1 0x40 MLOAD DUP1 SWAP2 SUB SWAP1 RETURN JUMPDEST PUSH3 0x8B PUSH3 0x103 JUMP JUMPDEST PUSH1 0x40 MLOAD PUSH3 0x9A SWAP2 SWAP1 PUSH3 0x440 JUMP JUMPDEST PUSH1 0x40 MLOAD DUP1 SWAP2 SUB SWAP1 RETURN JUMPDEST PUSH3 0xC1 PUSH1 0x4 DUP1 CALLDATASIZE SUB DUP2 ADD SWAP1 PUSH3 0xBB SWAP2 SWAP1 PUSH3 0x4D2 JUMP JUMPDEST PUSH3 0x193 JUMP JUMPDEST STOP JUMPDEST PUSH1 0x0 DUP2 DUP2 SLOAD DUP2 LT PUSH3 0xD4 JUMPI PUSH1 0x0 DUP1 REVERT JUMPDEST SWAP1 PUSH1 0x0 MSTORE PUSH1 0x20 PUSH1 0x0 KECCAK256 ADD PUSH1 0x0 SWAP2 POP SLOAD SWAP1 PUSH2 0x100 EXP SWAP1 DIV PUSH20 0xFFFFFFFFFFFFFFFFFFFFFFFFFFFFFFFFFFFFFFFF AND DUP2 JUMP JUMPDEST PUSH1 0x60 PUSH1 0x0 DUP1 SLOAD DUP1 PUSH1 0x20 MUL PUSH1 0x20 ADD PUSH1 0x40 MLOAD SWAP1 DUP2 ADD PUSH1 0x40 MSTORE DUP1 SWAP3 SWAP2 SWAP1 DUP2 DUP2 MSTORE PUSH1 0x20 ADD DUP3 DUP1 SLOAD DUP1 ISZERO PUSH3 0x189 JUMPI PUSH1 0x20 MUL DUP3 ADD SWAP2 SWAP1 PUSH1 0x0 MSTORE PUSH1 0x20 PUSH1 0x0 KECCAK256 SWAP1 JUMPDEST DUP2 PUSH1 0x0 SWAP1 SLOAD SWAP1 PUSH2 0x100 EXP SWAP1 DIV PUSH20 0xFFFFFFFFFFFFFFFFFFFFFFFFFFFFFFFFFFFFFFFF AND PUSH20 0xFFFFFFFFFFFFFFFFFFFFFFFFFFFFFFFFFFFFFFFF AND DUP2 MSTORE PUSH1 0x20 ADD SWAP1 PUSH1 0x1 ADD SWAP1 DUP1 DUP4 GT PUSH3 0x13E JUMPI JUMPDEST POP POP POP POP POP SWAP1 POP SWAP1 JUMP JUMPDEST PUSH1 0x0 DUP6 DUP6 DUP6 DUP6 DUP6 CALLER PUSH1 0x40 MLOAD PUSH3 0x1A9 SWAP1 PUSH3 0x245 JUMP JUMPDEST PUSH3 0x1BA SWAP7 SWAP6 SWAP5 SWAP4 SWAP3 SWAP2 SWAP1 PUSH3 0x610 JUMP JUMPDEST PUSH1 0x40 MLOAD DUP1 SWAP2 SUB SWAP1 PUSH1 0x0 CREATE DUP1 ISZERO DUP1 ISZERO PUSH3 0x1D7 JUMPI RETURNDATASIZE PUSH1 0x0 DUP1 RETURNDATACOPY RETURNDATASIZE PUSH1 0x0 REVERT JUMPDEST POP SWAP1 POP PUSH1 0x0 DUP2 SWAP1 DUP1 PUSH1 0x1 DUP2 SLOAD ADD DUP1 DUP3 SSTORE DUP1 SWAP2 POP POP PUSH1 0x1 SWAP1 SUB SWAP1 PUSH1 0x0 MSTORE PUSH1 0x20 PUSH1 0x0 KECCAK256 ADD PUSH1 0x0 SWAP1 SWAP2 SWAP1 SWAP2 SWAP1 SWAP2 PUSH2 0x100 EXP DUP2 SLOAD DUP2 PUSH20 0xFFFFFFFFFFFFFFFFFFFFFFFFFFFFFFFFFFFFFFFF MUL NOT AND SWAP1 DUP4 PUSH20 0xFFFFFFFFFFFFFFFFFFFFFFFFFFFFFFFFFFFFFFFF AND MUL OR SWAP1 SSTORE POP POP POP POP POP POP POP JUMP JUMPDEST PUSH2 0x15D3 DUP1 PUSH3 0x670 DUP4 CODECOPY ADD SWAP1 JUMP JUMPDEST PUSH1 0x0 DUP1 REVERT JUMPDEST PUSH1 0x0 DUP1 REVERT JUMPDEST PUSH1 0x0 DUP2 SWAP1 POP SWAP2 SWAP1 POP JUMP JUMPDEST PUSH3 0x272 DUP2 PUSH3 0x25D JUMP JUMPDEST DUP2 EQ PUSH3 0x27E JUMPI PUSH1 0x0 DUP1 REVERT JUMPDEST POP JUMP JUMPDEST PUSH1 0x0 DUP2 CALLDATALOAD SWAP1 POP PUSH3 0x292 DUP2 PUSH3 0x267 JUMP JUMPDEST SWAP3 SWAP2 POP POP JUMP JUMPDEST PUSH1 0x0 PUSH1 0x20 DUP3 DUP5 SUB SLT ISZERO PUSH3 0x2B1 JUMPI PUSH3 0x2B0 PUSH3 0x253 JUMP JUMPDEST JUMPDEST PUSH1 0x0 PUSH3 0x2C1 DUP5 DUP3 DUP6 ADD PUSH3 0x281 JUMP JUMPDEST SWAP2 POP POP SWAP3 SWAP2 POP POP JUMP JUMPDEST PUSH1 0x0 PUSH20 0xFFFFFFFFFFFFFFFFFFFFFFFFFFFFFFFFFFFFFFFF DUP3 AND SWAP1 POP SWAP2 SWAP1 POP JUMP JUMPDEST PUSH1 0x0 DUP2 SWAP1 POP SWAP2 SWAP1 POP JUMP JUMPDEST PUSH1 0x0 PUSH3 0x315 PUSH3 0x30F PUSH3 0x309 DUP5 PUSH3 0x2CA JUMP JUMPDEST PUSH3 0x2EA JUMP JUMPDEST PUSH3 0x2CA JUMP JUMPDEST SWAP1 POP SWAP2 SWAP1 POP JUMP JUMPDEST PUSH1 0x0 PUSH3 0x329 DUP3 PUSH3 0x2F4 JUMP JUMPDEST SWAP1 POP SWAP2 SWAP1 POP JUMP JUMPDEST PUSH1 0x0 PUSH3 0x33D DUP3 PUSH3 0x31C JUMP JUMPDEST SWAP1 POP SWAP2 SWAP1 POP JUMP JUMPDEST PUSH3 0x34F DUP2 PUSH3 0x330 JUMP JUMPDEST DUP3 MSTORE POP POP JUMP JUMPDEST PUSH1 0x0 PUSH1 0x20 DUP3 ADD SWAP1 POP PUSH3 0x36C PUSH1 0x0 DUP4 ADD DUP5 PUSH3 0x344 JUMP JUMPDEST SWAP3 SWAP2 POP POP JUMP JUMPDEST PUSH1 0x0 DUP2 MLOAD SWAP1 POP SWAP2 SWAP1 POP JUMP JUMPDEST PUSH1 0x0 DUP3 DUP3 MSTORE PUSH1 0x20 DUP3 ADD SWAP1 POP SWAP3 SWAP2 POP POP JUMP JUMPDEST PUSH1 0x0 DUP2 SWAP1 POP PUSH1 0x20 DUP3 ADD SWAP1 POP SWAP2 SWAP1 POP JUMP JUMPDEST PUSH3 0x3A9 DUP2 PUSH3 0x330 JUMP JUMPDEST DUP3 MSTORE POP POP JUMP JUMPDEST PUSH1 0x0 PUSH3 0x3BD DUP4 DUP4 PUSH3 0x39E JUMP JUMPDEST PUSH1 0x20 DUP4 ADD SWAP1 POP SWAP3 SWAP2 POP POP JUMP JUMPDEST PUSH1 0x0 PUSH1 0x20 DUP3 ADD SWAP1 POP SWAP2 SWAP1 POP JUMP JUMPDEST PUSH1 0x0 PUSH3 0x3E3 DUP3 PUSH3 0x372 JUMP JUMPDEST PUSH3 0x3EF DUP2 DUP6 PUSH3 0x37D JUMP JUMPDEST SWAP4 POP PUSH3 0x3FC DUP4 PUSH3 0x38E JUMP JUMPDEST DUP1 PUSH1 0x0 JUMPDEST DUP4 DUP2 LT ISZERO PUSH3 0x433 JUMPI DUP2 MLOAD PUSH3 0x417 DUP9 DUP3 PUSH3 0x3AF JUMP JUMPDEST SWAP8 POP PUSH3 0x424 DUP4 PUSH3 0x3C9 JUMP JUMPDEST SWAP3 POP POP PUSH1 0x1 DUP2 ADD SWAP1 POP PUSH3 0x400 JUMP JUMPDEST POP DUP6 SWAP4 POP POP POP POP SWAP3 SWAP2 POP POP JUMP JUMPDEST PUSH1 0x0 PUSH1 0x20 DUP3 ADD SWAP1 POP DUP2 DUP2 SUB PUSH1 0x0 DUP4 ADD MSTORE PUSH3 0x45C DUP2 DUP5 PUSH3 0x3D6 JUMP JUMPDEST SWAP1 POP SWAP3 SWAP2 POP POP JUMP JUMPDEST PUSH1 0x0 DUP1 REVERT JUMPDEST PUSH1 0x0 DUP1 REVERT JUMPDEST PUSH1 0x0 DUP1 REVERT JUMPDEST PUSH1 0x0 DUP1 DUP4 PUSH1 0x1F DUP5 ADD SLT PUSH3 0x48C JUMPI PUSH3 0x48B PUSH3 0x464 JUMP JUMPDEST JUMPDEST DUP3 CALLDATALOAD SWAP1 POP PUSH8 0xFFFFFFFFFFFFFFFF DUP2 GT ISZERO PUSH3 0x4AC JUMPI PUSH3 0x4AB PUSH3 0x469 JUMP JUMPDEST JUMPDEST PUSH1 0x20 DUP4 ADD SWAP2 POP DUP4 PUSH1 0x1 DUP3 MUL DUP4 ADD GT ISZERO PUSH3 0x4CB JUMPI PUSH3 0x4CA PUSH3 0x46E JUMP JUMPDEST JUMPDEST SWAP3 POP SWAP3 SWAP1 POP JUMP JUMPDEST PUSH1 0x0 DUP1 PUSH1 0x0 DUP1 PUSH1 0x0 PUSH1 0x60 DUP7 DUP9 SUB SLT ISZERO PUSH3 0x4F1 JUMPI PUSH3 0x4F0 PUSH3 0x253 JUMP JUMPDEST JUMPDEST PUSH1 0x0 DUP7 ADD CALLDATALOAD PUSH8 0xFFFFFFFFFFFFFFFF DUP2 GT ISZERO PUSH3 0x512 JUMPI PUSH3 0x511 PUSH3 0x258 JUMP JUMPDEST JUMPDEST PUSH3 0x520 DUP9 DUP3 DUP10 ADD PUSH3 0x473 JUMP JUMPDEST SWAP6 POP SWAP6 POP POP PUSH1 0x20 DUP7 ADD CALLDATALOAD PUSH8 0xFFFFFFFFFFFFFFFF DUP2 GT ISZERO PUSH3 0x546 JUMPI PUSH3 0x545 PUSH3 0x258 JUMP JUMPDEST JUMPDEST PUSH3 0x554 DUP9 DUP3 DUP10 ADD PUSH3 0x473 JUMP JUMPDEST SWAP4 POP SWAP4 POP POP PUSH1 0x40 PUSH3 0x569 DUP9 DUP3 DUP10 ADD PUSH3 0x281 JUMP JUMPDEST SWAP2 POP POP SWAP3 SWAP6 POP SWAP3 SWAP6 SWAP1 SWAP4 POP JUMP JUMPDEST PUSH1 0x0 DUP3 DUP3 MSTORE PUSH1 0x20 DUP3 ADD SWAP1 POP SWAP3 SWAP2 POP POP JUMP JUMPDEST DUP3 DUP2 DUP4 CALLDATACOPY PUSH1 0x0 DUP4 DUP4 ADD MSTORE POP POP POP JUMP JUMPDEST PUSH1 0x0 PUSH1 0x1F NOT PUSH1 0x1F DUP4 ADD AND SWAP1 POP SWAP2 SWAP1 POP JUMP JUMPDEST PUSH1 0x0 PUSH3 0x5B5 DUP4 DUP6 PUSH3 0x576 JUMP JUMPDEST SWAP4 POP PUSH3 0x5C4 DUP4 DUP6 DUP5 PUSH3 0x587 JUMP JUMPDEST PUSH3 0x5CF DUP4 PUSH3 0x596 JUMP JUMPDEST DUP5 ADD SWAP1 POP SWAP4 SWAP3 POP POP POP JUMP JUMPDEST PUSH3 0x5E5 DUP2 PUSH3 0x25D JUMP JUMPDEST DUP3 MSTORE POP POP JUMP JUMPDEST PUSH1 0x0 PUSH3 0x5F8 DUP3 PUSH3 0x2CA JUMP JUMPDEST SWAP1 POP SWAP2 SWAP1 POP JUMP JUMPDEST PUSH3 0x60A DUP2 PUSH3 0x5EB JUMP JUMPDEST DUP3 MSTORE POP POP JUMP JUMPDEST PUSH1 0x0 PUSH1 0x80 DUP3 ADD SWAP1 POP DUP2 DUP2 SUB PUSH1 0x0 DUP4 ADD MSTORE PUSH3 0x62D DUP2 DUP9 DUP11 PUSH3 0x5A7 JUMP JUMPDEST SWAP1 POP DUP2 DUP2 SUB PUSH1 0x20 DUP4 ADD MSTORE PUSH3 0x644 DUP2 DUP7 DUP9 PUSH3 0x5A7 JUMP JUMPDEST SWAP1 POP PUSH3 0x655 PUSH1 0x40 DUP4 ADD DUP6 PUSH3 0x5DA JUMP JUMPDEST PUSH3 0x664 PUSH1 0x60 DUP4 ADD DUP5 PUSH3 0x5FF JUMP JUMPDEST SWAP8 SWAP7 POP POP POP POP POP POP POP JUMP INVALID PUSH1 0x80 PUSH1 0x40 MSTORE CALLVALUE DUP1 ISZERO PUSH3 0x11 JUMPI PUSH1 0x0 DUP1 REVERT JUMPDEST POP PUSH1 0x40 MLOAD PUSH3 0x15D3 CODESIZE SUB DUP1 PUSH3 0x15D3 DUP4 CODECOPY DUP2 DUP2 ADD PUSH1 0x40 MSTORE DUP2 ADD SWAP1 PUSH3 0x37 SWAP2 SWAP1 PUSH3 0x3A7 JUMP JUMPDEST DUP4 PUSH1 0x1 SWAP1 DUP1 MLOAD SWAP1 PUSH1 0x20 ADD SWAP1 PUSH3 0x4F SWAP3 SWAP2 SWAP1 PUSH3 0xBA JUMP JUMPDEST POP DUP3 PUSH1 0x2 SWAP1 DUP1 MLOAD SWAP1 PUSH1 0x20 ADD SWAP1 PUSH3 0x68 SWAP3 SWAP2 SWAP1 PUSH3 0xBA JUMP JUMPDEST POP DUP1 PUSH1 0x0 DUP1 PUSH2 0x100 EXP DUP2 SLOAD DUP2 PUSH20 0xFFFFFFFFFFFFFFFFFFFFFFFFFFFFFFFFFFFFFFFF MUL NOT AND SWAP1 DUP4 PUSH20 0xFFFFFFFFFFFFFFFFFFFFFFFFFFFFFFFFFFFFFFFF AND MUL OR SWAP1 SSTORE POP DUP2 PUSH1 0x3 DUP2 SWAP1 SSTORE POP POP POP POP POP PUSH3 0x4BB JUMP JUMPDEST DUP3 DUP1 SLOAD PUSH3 0xC8 SWAP1 PUSH3 0x486 JUMP JUMPDEST SWAP1 PUSH1 0x0 MSTORE PUSH1 0x20 PUSH1 0x0 KECCAK256 SWAP1 PUSH1 0x1F ADD PUSH1 0x20 SWAP1 DIV DUP2 ADD SWAP3 DUP3 PUSH3 0xEC JUMPI PUSH1 0x0 DUP6 SSTORE PUSH3 0x138 JUMP JUMPDEST DUP3 PUSH1 0x1F LT PUSH3 0x107 JUMPI DUP1 MLOAD PUSH1 0xFF NOT AND DUP4 DUP1 ADD OR DUP6 SSTORE PUSH3 0x138 JUMP JUMPDEST DUP3 DUP1 ADD PUSH1 0x1 ADD DUP6 SSTORE DUP3 ISZERO PUSH3 0x138 JUMPI SWAP2 DUP3 ADD JUMPDEST DUP3 DUP2 GT ISZERO PUSH3 0x137 JUMPI DUP3 MLOAD DUP3 SSTORE SWAP2 PUSH1 0x20 ADD SWAP2 SWAP1 PUSH1 0x1 ADD SWAP1 PUSH3 0x11A JUMP JUMPDEST JUMPDEST POP SWAP1 POP PUSH3 0x147 SWAP2 SWAP1 PUSH3 0x14B JUMP JUMPDEST POP SWAP1 JUMP JUMPDEST JUMPDEST DUP1 DUP3 GT ISZERO PUSH3 0x166 JUMPI PUSH1 0x0 DUP2 PUSH1 0x0 SWAP1 SSTORE POP PUSH1 0x1 ADD PUSH3 0x14C JUMP JUMPDEST POP SWAP1 JUMP JUMPDEST PUSH1 0x0 PUSH1 0x40 MLOAD SWAP1 POP SWAP1 JUMP JUMPDEST PUSH1 0x0 DUP1 REVERT JUMPDEST PUSH1 0x0 DUP1 REVERT JUMPDEST PUSH1 0x0 DUP1 REVERT JUMPDEST PUSH1 0x0 DUP1 REVERT JUMPDEST PUSH1 0x0 PUSH1 0x1F NOT PUSH1 0x1F DUP4 ADD AND SWAP1 POP SWAP2 SWAP1 POP JUMP JUMPDEST PUSH32 0x4E487B7100000000000000000000000000000000000000000000000000000000 PUSH1 0x0 MSTORE PUSH1 0x41 PUSH1 0x4 MSTORE PUSH1 0x24 PUSH1 0x0 REVERT JUMPDEST PUSH3 0x1D3 DUP3 PUSH3 0x188 JUMP JUMPDEST DUP2 ADD DUP2 DUP2 LT PUSH8 0xFFFFFFFFFFFFFFFF DUP3 GT OR ISZERO PUSH3 0x1F5 JUMPI PUSH3 0x1F4 PUSH3 0x199 JUMP JUMPDEST JUMPDEST DUP1 PUSH1 0x40 MSTORE POP POP POP JUMP JUMPDEST PUSH1 0x0 PUSH3 0x20A PUSH3 0x16A JUMP JUMPDEST SWAP1 POP PUSH3 0x218 DUP3 DUP3 PUSH3 0x1C8 JUMP JUMPDEST SWAP2 SWAP1 POP JUMP JUMPDEST PUSH1 0x0 PUSH8 0xFFFFFFFFFFFFFFFF DUP3 GT ISZERO PUSH3 0x23B JUMPI PUSH3 0x23A PUSH3 0x199 JUMP JUMPDEST JUMPDEST PUSH3 0x246 DUP3 PUSH3 0x188 JUMP JUMPDEST SWAP1 POP PUSH1 0x20 DUP2 ADD SWAP1 POP SWAP2 SWAP1 POP JUMP JUMPDEST PUSH1 0x0 JUMPDEST DUP4 DUP2 LT ISZERO PUSH3 0x273 JUMPI DUP1 DUP3 ADD MLOAD DUP2 DUP5 ADD MSTORE PUSH1 0x20 DUP2 ADD SWAP1 POP PUSH3 0x256 JUMP JUMPDEST DUP4 DUP2 GT ISZERO PUSH3 0x283 JUMPI PUSH1 0x0 DUP5 DUP5 ADD MSTORE JUMPDEST POP POP POP POP JUMP JUMPDEST PUSH1 0x0 PUSH3 0x2A0 PUSH3 0x29A DUP5 PUSH3 0x21D JUMP JUMPDEST PUSH3 0x1FE JUMP JUMPDEST SWAP1 POP DUP3 DUP2 MSTORE PUSH1 0x20 DUP2 ADD DUP5 DUP5 DUP5 ADD GT ISZERO PUSH3 0x2BF JUMPI PUSH3 0x2BE PUSH3 0x183 JUMP JUMPDEST JUMPDEST PUSH3 0x2CC DUP5 DUP3 DUP6 PUSH3 0x253 JUMP JUMPDEST POP SWAP4 SWAP3 POP POP POP JUMP JUMPDEST PUSH1 0x0 DUP3 PUSH1 0x1F DUP4 ADD SLT PUSH3 0x2EC JUMPI PUSH3 0x2EB PUSH3 0x17E JUMP JUMPDEST JUMPDEST DUP2 MLOAD PUSH3 0x2FE DUP5 DUP3 PUSH1 0x20 DUP7 ADD PUSH3 0x289 JUMP JUMPDEST SWAP2 POP POP SWAP3 SWAP2 POP POP JUMP JUMPDEST PUSH1 0x0 DUP2 SWAP1 POP SWAP2 SWAP1 POP JUMP JUMPDEST PUSH3 0x31C DUP2 PUSH3 0x307 JUMP JUMPDEST DUP2 EQ PUSH3 0x328 JUMPI PUSH1 0x0 DUP1 REVERT JUMPDEST POP JUMP JUMPDEST PUSH1 0x0 DUP2 MLOAD SWAP1 POP PUSH3 0x33C DUP2 PUSH3 0x311 JUMP JUMPDEST SWAP3 SWAP2 POP POP JUMP JUMPDEST PUSH1 0x0 PUSH20 0xFFFFFFFFFFFFFFFFFFFFFFFFFFFFFFFFFFFFFFFF DUP3 AND SWAP1 POP SWAP2 SWAP1 POP JUMP JUMPDEST PUSH1 0x0 PUSH3 0x36F DUP3 PUSH3 0x342 JUMP JUMPDEST SWAP1 POP SWAP2 SWAP1 POP JUMP JUMPDEST PUSH3 0x381 DUP2 PUSH3 0x362 JUMP JUMPDEST DUP2 EQ PUSH3 0x38D JUMPI PUSH1 0x0 DUP1 REVERT JUMPDEST POP JUMP JUMPDEST PUSH1 0x0 DUP2 MLOAD SWAP1 POP PUSH3 0x3A1 DUP2 PUSH3 0x376 JUMP JUMPDEST SWAP3 SWAP2 POP POP JUMP JUMPDEST PUSH1 0x0 DUP1 PUSH1 0x0 DUP1 PUSH1 0x80 DUP6 DUP8 SUB SLT ISZERO PUSH3 0x3C4 JUMPI PUSH3 0x3C3 PUSH3 0x174 JUMP JUMPDEST JUMPDEST PUSH1 0x0 DUP6 ADD MLOAD PUSH8 0xFFFFFFFFFFFFFFFF DUP2 GT ISZERO PUSH3 0x3E5 JUMPI PUSH3 0x3E4 PUSH3 0x179 JUMP JUMPDEST JUMPDEST PUSH3 0x3F3 DUP8 DUP3 DUP9 ADD PUSH3 0x2D4 JUMP JUMPDEST SWAP5 POP POP PUSH1 0x20 DUP6 ADD MLOAD PUSH8 0xFFFFFFFFFFFFFFFF DUP2 GT ISZERO PUSH3 0x417 JUMPI PUSH3 0x416 PUSH3 0x179 JUMP JUMPDEST JUMPDEST PUSH3 0x425 DUP8 DUP3 DUP9 ADD PUSH3 0x2D4 JUMP JUMPDEST SWAP4 POP POP PUSH1 0x40 PUSH3 0x438 DUP8 DUP3 DUP9 ADD PUSH3 0x32B JUMP JUMPDEST SWAP3 POP POP PUSH1 0x60 PUSH3 0x44B DUP8 DUP3 DUP9 ADD PUSH3 0x390 JUMP JUMPDEST SWAP2 POP POP SWAP3 SWAP6 SWAP2 SWAP5 POP SWAP3 POP JUMP JUMPDEST PUSH32 0x4E487B7100000000000000000000000000000000000000000000000000000000 PUSH1 0x0 MSTORE PUSH1 0x22 PUSH1 0x4 MSTORE PUSH1 0x24 PUSH1 0x0 REVERT JUMPDEST PUSH1 0x0 PUSH1 0x2 DUP3 DIV SWAP1 POP PUSH1 0x1 DUP3 AND DUP1 PUSH3 0x49F JUMPI PUSH1 0x7F DUP3 AND SWAP2 POP JUMPDEST PUSH1 0x20 DUP3 LT DUP2 SUB PUSH3 0x4B5 JUMPI PUSH3 0x4B4 PUSH3 0x457 JUMP JUMPDEST JUMPDEST POP SWAP2 SWAP1 POP JUMP JUMPDEST PUSH2 0x1108 DUP1 PUSH3 0x4CB PUSH1 0x0 CODECOPY PUSH1 0x0 RETURN INVALID PUSH1 0x80 PUSH1 0x40 MSTORE PUSH1 0x4 CALLDATASIZE LT PUSH2 0xC2 JUMPI PUSH1 0x0 CALLDATALOAD PUSH1 0xE0 SHR DUP1 PUSH4 0x82FDE093 GT PUSH2 0x7F JUMPI DUP1 PUSH4 0x937E09B1 GT PUSH2 0x59 JUMPI DUP1 PUSH4 0x937E09B1 EQ PUSH2 0x274 JUMPI DUP1 PUSH4 0x9FB42B1F EQ PUSH2 0x29F JUMPI DUP1 PUSH4 0xD7BB99BA EQ PUSH2 0x2CA JUMPI DUP1 PUSH4 0xD7D1BBDB EQ PUSH2 0x2D4 JUMPI PUSH2 0xC2 JUMP JUMPDEST DUP1 PUSH4 0x82FDE093 EQ PUSH2 0x1F5 JUMPI DUP1 PUSH4 0x835A6172 EQ PUSH2 0x220 JUMPI DUP1 PUSH4 0x8A9CFD55 EQ PUSH2 0x24B JUMPI PUSH2 0xC2 JUMP JUMPDEST DUP1 PUSH4 0x3441006 EQ PUSH2 0xC7 JUMPI DUP1 PUSH4 0xA144391 EQ PUSH2 0xF0 JUMPI DUP1 PUSH4 0x110842CB EQ PUSH2 0x12D JUMPI DUP1 PUSH4 0x4051DDAC EQ PUSH2 0x158 JUMPI DUP1 PUSH4 0x40D9A6A6 EQ PUSH2 0x189 JUMPI DUP1 PUSH4 0x481C6A75 EQ PUSH2 0x1CA JUMPI JUMPDEST PUSH1 0x0 DUP1 REVERT JUMPDEST CALLVALUE DUP1 ISZERO PUSH2 0xD3 JUMPI PUSH1 0x0 DUP1 REVERT JUMPDEST POP PUSH2 0xEE PUSH1 0x4 DUP1 CALLDATASIZE SUB DUP2 ADD SWAP1 PUSH2 0xE9 SWAP2 SWAP1 PUSH2 0xBB0 JUMP JUMPDEST PUSH2 0x2FD JUMP JUMPDEST STOP JUMPDEST CALLVALUE DUP1 ISZERO PUSH2 0xFC JUMPI PUSH1 0x0 DUP1 REVERT JUMPDEST POP PUSH2 0x117 PUSH1 0x4 DUP1 CALLDATASIZE SUB DUP2 ADD SWAP1 PUSH2 0x112 SWAP2 SWAP1 PUSH2 0xC3B JUMP JUMPDEST PUSH2 0x436 JUMP JUMPDEST PUSH1 0x40 MLOAD PUSH2 0x124 SWAP2 SWAP1 PUSH2 0xC83 JUMP JUMPDEST PUSH1 0x40 MLOAD DUP1 SWAP2 SUB SWAP1 RETURN JUMPDEST CALLVALUE DUP1 ISZERO PUSH2 0x139 JUMPI PUSH1 0x0 DUP1 REVERT JUMPDEST POP PUSH2 0x142 PUSH2 0x456 JUMP JUMPDEST PUSH1 0x40 MLOAD PUSH2 0x14F SWAP2 SWAP1 PUSH2 0xD37 JUMP JUMPDEST PUSH1 0x40 MLOAD DUP1 SWAP2 SUB SWAP1 RETURN JUMPDEST CALLVALUE DUP1 ISZERO PUSH2 0x164 JUMPI PUSH1 0x0 DUP1 REVERT JUMPDEST POP PUSH2 0x16D PUSH2 0x4E4 JUMP JUMPDEST PUSH1 0x40 MLOAD PUSH2 0x180 SWAP8 SWAP7 SWAP6 SWAP5 SWAP4 SWAP3 SWAP2 SWAP1 PUSH2 0xD77 JUMP JUMPDEST PUSH1 0x40 MLOAD DUP1 SWAP2 SUB SWAP1 RETURN JUMPDEST CALLVALUE DUP1 ISZERO PUSH2 0x195 JUMPI PUSH1 0x0 DUP1 REVERT JUMPDEST POP PUSH2 0x1B0 PUSH1 0x4 DUP1 CALLDATASIZE SUB DUP2 ADD SWAP1 PUSH2 0x1AB SWAP2 SWAP1 PUSH2 0xBB0 JUMP JUMPDEST PUSH2 0x64D JUMP JUMPDEST PUSH1 0x40 MLOAD PUSH2 0x1C1 SWAP6 SWAP5 SWAP4 SWAP3 SWAP2 SWAP1 PUSH2 0xDF4 JUMP JUMPDEST PUSH1 0x40 MLOAD DUP1 SWAP2 SUB SWAP1 RETURN JUMPDEST CALLVALUE DUP1 ISZERO PUSH2 0x1D6 JUMPI PUSH1 0x0 DUP1 REVERT JUMPDEST POP PUSH2 0x1DF PUSH2 0x751 JUMP JUMPDEST PUSH1 0x40 MLOAD PUSH2 0x1EC SWAP2 SWAP1 PUSH2 0xE4E JUMP JUMPDEST PUSH1 0x40 MLOAD DUP1 SWAP2 SUB SWAP1 RETURN JUMPDEST CALLVALUE DUP1 ISZERO PUSH2 0x201 JUMPI PUSH1 0x0 DUP1 REVERT JUMPDEST POP PUSH2 0x20A PUSH2 0x775 JUMP JUMPDEST PUSH1 0x40 MLOAD PUSH2 0x217 SWAP2 SWAP1 PUSH2 0xE69 JUMP JUMPDEST PUSH1 0x40 MLOAD DUP1 SWAP2 SUB SWAP1 RETURN JUMPDEST CALLVALUE DUP1 ISZERO PUSH2 0x22C JUMPI PUSH1 0x0 DUP1 REVERT JUMPDEST POP PUSH2 0x235 PUSH2 0x77B JUMP JUMPDEST PUSH1 0x40 MLOAD PUSH2 0x242 SWAP2 SWAP1 PUSH2 0xD37 JUMP JUMPDEST PUSH1 0x40 MLOAD DUP1 SWAP2 SUB SWAP1 RETURN JUMPDEST CALLVALUE DUP1 ISZERO PUSH2 0x257 JUMPI PUSH1 0x0 DUP1 REVERT JUMPDEST POP PUSH2 0x272 PUSH1 0x4 DUP1 CALLDATASIZE SUB DUP2 ADD SWAP1 PUSH2 0x26D SWAP2 SWAP1 PUSH2 0xF27 JUMP JUMPDEST PUSH2 0x809 JUMP JUMPDEST STOP JUMPDEST CALLVALUE DUP1 ISZERO PUSH2 0x280 JUMPI PUSH1 0x0 DUP1 REVERT JUMPDEST POP PUSH2 0x289 PUSH2 0x903 JUMP JUMPDEST PUSH1 0x40 MLOAD PUSH2 0x296 SWAP2 SWAP1 PUSH2 0xE69 JUMP JUMPDEST PUSH1 0x40 MLOAD DUP1 SWAP2 SUB SWAP1 RETURN JUMPDEST CALLVALUE DUP1 ISZERO PUSH2 0x2AB JUMPI PUSH1 0x0 DUP1 REVERT JUMPDEST POP PUSH2 0x2B4 PUSH2 0x909 JUMP JUMPDEST PUSH1 0x40 MLOAD PUSH2 0x2C1 SWAP2 SWAP1 PUSH2 0xE69 JUMP JUMPDEST PUSH1 0x40 MLOAD DUP1 SWAP2 SUB SWAP1 RETURN JUMPDEST PUSH2 0x2D2 PUSH2 0x90F JUMP JUMPDEST STOP JUMPDEST CALLVALUE DUP1 ISZERO PUSH2 0x2E0 JUMPI PUSH1 0x0 DUP1 REVERT JUMPDEST POP PUSH2 0x2FB PUSH1 0x4 DUP1 CALLDATASIZE SUB DUP2 ADD SWAP1 PUSH2 0x2F6 SWAP2 SWAP1 PUSH2 0xBB0 JUMP JUMPDEST PUSH2 0x98F JUMP JUMPDEST STOP JUMPDEST PUSH1 0x0 DUP1 SLOAD SWAP1 PUSH2 0x100 EXP SWAP1 DIV PUSH20 0xFFFFFFFFFFFFFFFFFFFFFFFFFFFFFFFFFFFFFFFF AND PUSH20 0xFFFFFFFFFFFFFFFFFFFFFFFFFFFFFFFFFFFFFFFF AND CALLER PUSH20 0xFFFFFFFFFFFFFFFFFFFFFFFFFFFFFFFFFFFFFFFF AND EQ PUSH2 0x355 JUMPI PUSH1 0x0 DUP1 REVERT JUMPDEST PUSH1 0x0 PUSH1 0x7 PUSH1 0x0 DUP4 DUP2 MSTORE PUSH1 0x20 ADD SWAP1 DUP2 MSTORE PUSH1 0x20 ADD PUSH1 0x0 KECCAK256 SWAP1 POP DUP1 PUSH1 0x2 ADD PUSH1 0x14 SWAP1 SLOAD SWAP1 PUSH2 0x100 EXP SWAP1 DIV PUSH1 0xFF AND ISZERO PUSH2 0x388 JUMPI PUSH1 0x0 DUP1 REVERT JUMPDEST PUSH1 0x2 PUSH1 0x5 SLOAD PUSH2 0x397 SWAP2 SWAP1 PUSH2 0xFF9 JUMP JUMPDEST DUP2 PUSH1 0x4 ADD SLOAD GT PUSH2 0x3A6 JUMPI PUSH1 0x0 DUP1 REVERT JUMPDEST DUP1 PUSH1 0x2 ADD PUSH1 0x0 SWAP1 SLOAD SWAP1 PUSH2 0x100 EXP SWAP1 DIV PUSH20 0xFFFFFFFFFFFFFFFFFFFFFFFFFFFFFFFFFFFFFFFF AND PUSH20 0xFFFFFFFFFFFFFFFFFFFFFFFFFFFFFFFFFFFFFFFF AND PUSH2 0x8FC DUP3 PUSH1 0x1 ADD SLOAD SWAP1 DUP2 ISZERO MUL SWAP1 PUSH1 0x40 MLOAD PUSH1 0x0 PUSH1 0x40 MLOAD DUP1 DUP4 SUB DUP2 DUP6 DUP9 DUP9 CALL SWAP4 POP POP POP POP ISZERO DUP1 ISZERO PUSH2 0x414 JUMPI RETURNDATASIZE PUSH1 0x0 DUP1 RETURNDATACOPY RETURNDATASIZE PUSH1 0x0 REVERT JUMPDEST POP PUSH1 0x1 DUP2 PUSH1 0x2 ADD PUSH1 0x14 PUSH2 0x100 EXP DUP2 SLOAD DUP2 PUSH1 0xFF MUL NOT AND SWAP1 DUP4 ISZERO ISZERO MUL OR SWAP1 SSTORE POP POP POP JUMP JUMPDEST PUSH1 0x4 PUSH1 0x20 MSTORE DUP1 PUSH1 0x0 MSTORE PUSH1 0x40 PUSH1 0x0 KECCAK256 PUSH1 0x0 SWAP2 POP SLOAD SWAP1 PUSH2 0x100 EXP SWAP1 DIV PUSH1 0xFF AND DUP2 JUMP JUMPDEST PUSH1 0x2 DUP1 SLOAD PUSH2 0x463 SWAP1 PUSH2 0x1059 JUMP JUMPDEST DUP1 PUSH1 0x1F ADD PUSH1 0x20 DUP1 SWAP2 DIV MUL PUSH1 0x20 ADD PUSH1 0x40 MLOAD SWAP1 DUP2 ADD PUSH1 0x40 MSTORE DUP1 SWAP3 SWAP2 SWAP1 DUP2 DUP2 MSTORE PUSH1 0x20 ADD DUP3 DUP1 SLOAD PUSH2 0x48F SWAP1 PUSH2 0x1059 JUMP JUMPDEST DUP1 ISZERO PUSH2 0x4DC JUMPI DUP1 PUSH1 0x1F LT PUSH2 0x4B1 JUMPI PUSH2 0x100 DUP1 DUP4 SLOAD DIV MUL DUP4 MSTORE SWAP2 PUSH1 0x20 ADD SWAP2 PUSH2 0x4DC JUMP JUMPDEST DUP3 ADD SWAP2 SWAP1 PUSH1 0x0 MSTORE PUSH1 0x20 PUSH1 0x0 KECCAK256 SWAP1 JUMPDEST DUP2 SLOAD DUP2 MSTORE SWAP1 PUSH1 0x1 ADD SWAP1 PUSH1 0x20 ADD DUP1 DUP4 GT PUSH2 0x4BF JUMPI DUP3 SWAP1 SUB PUSH1 0x1F AND DUP3 ADD SWAP2 JUMPDEST POP POP POP POP POP DUP2 JUMP JUMPDEST PUSH1 0x0 PUSH1 0x60 DUP1 PUSH1 0x0 DUP1 PUSH1 0x0 DUP1 PUSH1 0x0 DUP1 SLOAD SWAP1 PUSH2 0x100 EXP SWAP1 DIV PUSH20 0xFFFFFFFFFFFFFFFFFFFFFFFFFFFFFFFFFFFFFFFF AND PUSH1 0x1 PUSH1 0x2 PUSH1 0x3 SLOAD PUSH1 0x5 SLOAD PUSH1 0x6 SLOAD SELFBALANCE DUP6 DUP1 SLOAD PUSH2 0x52A SWAP1 PUSH2 0x1059 JUMP JUMPDEST DUP1 PUSH1 0x1F ADD PUSH1 0x20 DUP1 SWAP2 DIV MUL PUSH1 0x20 ADD PUSH1 0x40 MLOAD SWAP1 DUP2 ADD PUSH1 0x40 MSTORE DUP1 SWAP3 SWAP2 SWAP1 DUP2 DUP2 MSTORE PUSH1 0x20 ADD DUP3 DUP1 SLOAD PUSH2 0x556 SWAP1 PUSH2 0x1059 JUMP JUMPDEST DUP1 ISZERO PUSH2 0x5A3 JUMPI DUP1 PUSH1 0x1F LT PUSH2 0x578 JUMPI PUSH2 0x100 DUP1 DUP4 SLOAD DIV MUL DUP4 MSTORE SWAP2 PUSH1 0x20 ADD SWAP2 PUSH2 0x5A3 JUMP JUMPDEST DUP3 ADD SWAP2 SWAP1 PUSH1 0x0 MSTORE PUSH1 0x20 PUSH1 0x0 KECCAK256 SWAP1 JUMPDEST DUP2 SLOAD DUP2 MSTORE SWAP1 PUSH1 0x1 ADD SWAP1 PUSH1 0x20 ADD DUP1 DUP4 GT PUSH2 0x586 JUMPI DUP3 SWAP1 SUB PUSH1 0x1F AND DUP3 ADD SWAP2 JUMPDEST POP POP POP POP POP SWAP6 POP DUP5 DUP1 SLOAD PUSH2 0x5B6 SWAP1 PUSH2 0x1059 JUMP JUMPDEST DUP1 PUSH1 0x1F ADD PUSH1 0x20 DUP1 SWAP2 DIV MUL PUSH1 0x20 ADD PUSH1 0x40 MLOAD SWAP1 DUP2 ADD PUSH1 0x40 MSTORE DUP1 SWAP3 SWAP2 SWAP1 DUP2 DUP2 MSTORE PUSH1 0x20 ADD DUP3 DUP1 SLOAD PUSH2 0x5E2 SWAP1 PUSH2 0x1059 JUMP JUMPDEST DUP1 ISZERO PUSH2 0x62F JUMPI DUP1 PUSH1 0x1F LT PUSH2 0x604 JUMPI PUSH2 0x100 DUP1 DUP4 SLOAD DIV MUL DUP4 MSTORE SWAP2 PUSH1 0x20 ADD SWAP2 PUSH2 0x62F JUMP JUMPDEST DUP3 ADD SWAP2 SWAP1 PUSH1 0x0 MSTORE PUSH1 0x20 PUSH1 0x0 KECCAK256 SWAP1 JUMPDEST DUP2 SLOAD DUP2 MSTORE SWAP1 PUSH1 0x1 ADD SWAP1 PUSH1 0x20 ADD DUP1 DUP4 GT PUSH2 0x612 JUMPI DUP3 SWAP1 SUB PUSH1 0x1F AND DUP3 ADD SWAP2 JUMPDEST POP POP POP POP POP SWAP5 POP SWAP7 POP SWAP7 POP SWAP7 POP SWAP7 POP SWAP7 POP SWAP7 POP SWAP7 POP SWAP1 SWAP2 SWAP3 SWAP4 SWAP5 SWAP6 SWAP7 JUMP JUMPDEST PUSH1 0x60 PUSH1 0x0 DUP1 PUSH1 0x0 DUP1 PUSH1 0x0 PUSH1 0x7 PUSH1 0x0 DUP9 DUP2 MSTORE PUSH1 0x20 ADD SWAP1 DUP2 MSTORE PUSH1 0x20 ADD PUSH1 0x0 KECCAK256 SWAP1 POP DUP1 PUSH1 0x0 ADD DUP2 PUSH1 0x1 ADD SLOAD DUP3 PUSH1 0x2 ADD PUSH1 0x0 SWAP1 SLOAD SWAP1 PUSH2 0x100 EXP SWAP1 DIV PUSH20 0xFFFFFFFFFFFFFFFFFFFFFFFFFFFFFFFFFFFFFFFF AND DUP4 PUSH1 0x2 ADD PUSH1 0x14 SWAP1 SLOAD SWAP1 PUSH2 0x100 EXP SWAP1 DIV PUSH1 0xFF AND DUP5 PUSH1 0x4 ADD SLOAD DUP5 DUP1 SLOAD PUSH2 0x6BD SWAP1 PUSH2 0x1059 JUMP JUMPDEST DUP1 PUSH1 0x1F ADD PUSH1 0x20 DUP1 SWAP2 DIV MUL PUSH1 0x20 ADD PUSH1 0x40 MLOAD SWAP1 DUP2 ADD PUSH1 0x40 MSTORE DUP1 SWAP3 SWAP2 SWAP1 DUP2 DUP2 MSTORE PUSH1 0x20 ADD DUP3 DUP1 SLOAD PUSH2 0x6E9 SWAP1 PUSH2 0x1059 JUMP JUMPDEST DUP1 ISZERO PUSH2 0x736 JUMPI DUP1 PUSH1 0x1F LT PUSH2 0x70B JUMPI PUSH2 0x100 DUP1 DUP4 SLOAD DIV MUL DUP4 MSTORE SWAP2 PUSH1 0x20 ADD SWAP2 PUSH2 0x736 JUMP JUMPDEST DUP3 ADD SWAP2 SWAP1 PUSH1 0x0 MSTORE PUSH1 0x20 PUSH1 0x0 KECCAK256 SWAP1 JUMPDEST DUP2 SLOAD DUP2 MSTORE SWAP1 PUSH1 0x1 ADD SWAP1 PUSH1 0x20 ADD DUP1 DUP4 GT PUSH2 0x719 JUMPI DUP3 SWAP1 SUB PUSH1 0x1F AND DUP3 ADD SWAP2 JUMPDEST POP POP POP POP POP SWAP5 POP SWAP6 POP SWAP6 POP SWAP6 POP SWAP6 POP SWAP6 POP POP SWAP2 SWAP4 SWAP6 SWAP1 SWAP3 SWAP5 POP JUMP JUMPDEST PUSH1 0x0 DUP1 SLOAD SWAP1 PUSH2 0x100 EXP SWAP1 DIV PUSH20 0xFFFFFFFFFFFFFFFFFFFFFFFFFFFFFFFFFFFFFFFF AND DUP2 JUMP JUMPDEST PUSH1 0x5 SLOAD DUP2 JUMP JUMPDEST PUSH1 0x1 DUP1 SLOAD PUSH2 0x788 SWAP1 PUSH2 0x1059 JUMP JUMPDEST DUP1 PUSH1 0x1F ADD PUSH1 0x20 DUP1 SWAP2 DIV MUL PUSH1 0x20 ADD PUSH1 0x40 MLOAD SWAP1 DUP2 ADD PUSH1 0x40 MSTORE DUP1 SWAP3 SWAP2 SWAP1 DUP2 DUP2 MSTORE PUSH1 0x20 ADD DUP3 DUP1 SLOAD PUSH2 0x7B4 SWAP1 PUSH2 0x1059 JUMP JUMPDEST DUP1 ISZERO PUSH2 0x801 JUMPI DUP1 PUSH1 0x1F LT PUSH2 0x7D6 JUMPI PUSH2 0x100 DUP1 DUP4 SLOAD DIV MUL DUP4 MSTORE SWAP2 PUSH1 0x20 ADD SWAP2 PUSH2 0x801 JUMP JUMPDEST DUP3 ADD SWAP2 SWAP1 PUSH1 0x0 MSTORE PUSH1 0x20 PUSH1 0x0 KECCAK256 SWAP1 JUMPDEST DUP2 SLOAD DUP2 MSTORE SWAP1 PUSH1 0x1 ADD SWAP1 PUSH1 0x20 ADD DUP1 DUP4 GT PUSH2 0x7E4 JUMPI DUP3 SWAP1 SUB PUSH1 0x1F AND DUP3 ADD SWAP2 JUMPDEST POP POP POP POP POP DUP2 JUMP JUMPDEST PUSH1 0x0 DUP1 SLOAD SWAP1 PUSH2 0x100 EXP SWAP1 DIV PUSH20 0xFFFFFFFFFFFFFFFFFFFFFFFFFFFFFFFFFFFFFFFF AND PUSH20 0xFFFFFFFFFFFFFFFFFFFFFFFFFFFFFFFFFFFFFFFF AND CALLER PUSH20 0xFFFFFFFFFFFFFFFFFFFFFFFFFFFFFFFFFFFFFFFF AND EQ PUSH2 0x861 JUMPI PUSH1 0x0 DUP1 REVERT JUMPDEST PUSH1 0x0 PUSH1 0x7 PUSH1 0x0 PUSH1 0x6 SLOAD DUP2 MSTORE PUSH1 0x20 ADD SWAP1 DUP2 MSTORE PUSH1 0x20 ADD PUSH1 0x0 KECCAK256 SWAP1 POP PUSH1 0x6 PUSH1 0x0 DUP2 SLOAD DUP1 SWAP3 SWAP2 SWAP1 PUSH2 0x88D SWAP1 PUSH2 0x108A JUMP JUMPDEST SWAP2 SWAP1 POP SSTORE POP DUP5 DUP5 DUP3 PUSH1 0x0 ADD SWAP2 SWAP1 PUSH2 0x8A5 SWAP3 SWAP2 SWAP1 PUSH2 0xACD JUMP JUMPDEST POP DUP3 DUP2 PUSH1 0x1 ADD DUP2 SWAP1 SSTORE POP DUP2 DUP2 PUSH1 0x2 ADD PUSH1 0x0 PUSH2 0x100 EXP DUP2 SLOAD DUP2 PUSH20 0xFFFFFFFFFFFFFFFFFFFFFFFFFFFFFFFFFFFFFFFF MUL NOT AND SWAP1 DUP4 PUSH20 0xFFFFFFFFFFFFFFFFFFFFFFFFFFFFFFFFFFFFFFFF AND MUL OR SWAP1 SSTORE POP PUSH1 0x0 DUP2 PUSH1 0x4 ADD DUP2 SWAP1 SSTORE POP POP POP POP POP POP JUMP JUMPDEST PUSH1 0x3 SLOAD DUP2 JUMP JUMPDEST PUSH1 0x6 SLOAD DUP2 JUMP JUMPDEST PUSH1 0x3 SLOAD CALLVALUE GT PUSH2 0x91D JUMPI PUSH1 0x0 DUP1 REVERT JUMPDEST PUSH1 0x1 PUSH1 0x4 PUSH1 0x0 CALLER PUSH20 0xFFFFFFFFFFFFFFFFFFFFFFFFFFFFFFFFFFFFFFFF AND PUSH20 0xFFFFFFFFFFFFFFFFFFFFFFFFFFFFFFFFFFFFFFFF AND DUP2 MSTORE PUSH1 0x20 ADD SWAP1 DUP2 MSTORE PUSH1 0x20 ADD PUSH1 0x0 KECCAK256 PUSH1 0x0 PUSH2 0x100 EXP DUP2 SLOAD DUP2 PUSH1 0xFF MUL NOT AND SWAP1 DUP4 ISZERO ISZERO MUL OR SWAP1 SSTORE POP PUSH1 0x5 PUSH1 0x0 DUP2 SLOAD DUP1 SWAP3 SWAP2 SWAP1 PUSH2 0x988 SWAP1 PUSH2 0x108A JUMP JUMPDEST SWAP2 SWAP1 POP SSTORE POP JUMP JUMPDEST PUSH1 0x0 PUSH1 0x7 PUSH1 0x0 DUP4 DUP2 MSTORE PUSH1 0x20 ADD SWAP1 DUP2 MSTORE PUSH1 0x20 ADD PUSH1 0x0 KECCAK256 SWAP1 POP PUSH1 0x4 PUSH1 0x0 CALLER PUSH20 0xFFFFFFFFFFFFFFFFFFFFFFFFFFFFFFFFFFFFFFFF AND PUSH20 0xFFFFFFFFFFFFFFFFFFFFFFFFFFFFFFFFFFFFFFFF AND DUP2 MSTORE PUSH1 0x20 ADD SWAP1 DUP2 MSTORE PUSH1 0x20 ADD PUSH1 0x0 KECCAK256 PUSH1 0x0 SWAP1 SLOAD SWAP1 PUSH2 0x100 EXP SWAP1 DIV PUSH1 0xFF AND PUSH2 0x9FC JUMPI PUSH1 0x0 DUP1 REVERT JUMPDEST DUP1 PUSH1 0x3 ADD PUSH1 0x0 CALLER PUSH20 0xFFFFFFFFFFFFFFFFFFFFFFFFFFFFFFFFFFFFFFFF AND PUSH20 0xFFFFFFFFFFFFFFFFFFFFFFFFFFFFFFFFFFFFFFFF AND DUP2 MSTORE PUSH1 0x20 ADD SWAP1 DUP2 MSTORE PUSH1 0x20 ADD PUSH1 0x0 KECCAK256 PUSH1 0x0 SWAP1 SLOAD SWAP1 PUSH2 0x100 EXP SWAP1 DIV PUSH1 0xFF AND ISZERO PUSH2 0xA55 JUMPI PUSH1 0x0 DUP1 REVERT JUMPDEST PUSH1 0x1 DUP2 PUSH1 0x3 ADD PUSH1 0x0 CALLER PUSH20 0xFFFFFFFFFFFFFFFFFFFFFFFFFFFFFFFFFFFFFFFF AND PUSH20 0xFFFFFFFFFFFFFFFFFFFFFFFFFFFFFFFFFFFFFFFF AND DUP2 MSTORE PUSH1 0x20 ADD SWAP1 DUP2 MSTORE PUSH1 0x20 ADD PUSH1 0x0 KECCAK256 PUSH1 0x0 PUSH2 0x100 EXP DUP2 SLOAD DUP2 PUSH1 0xFF MUL NOT AND SWAP1 DUP4 ISZERO ISZERO MUL OR SWAP1 SSTORE POP DUP1 PUSH1 0x4 ADD PUSH1 0x0 DUP2 SLOAD DUP1 SWAP3 SWAP2 SWAP1 PUSH2 0xAC4 SWAP1 PUSH2 0x108A JUMP JUMPDEST SWAP2 SWAP1 POP SSTORE POP POP POP JUMP JUMPDEST DUP3 DUP1 SLOAD PUSH2 0xAD9 SWAP1 PUSH2 0x1059 JUMP JUMPDEST SWAP1 PUSH1 0x0 MSTORE PUSH1 0x20 PUSH1 0x0 KECCAK256 SWAP1 PUSH1 0x1F ADD PUSH1 0x20 SWAP1 DIV DUP2 ADD SWAP3 DUP3 PUSH2 0xAFB JUMPI PUSH1 0x0 DUP6 SSTORE PUSH2 0xB42 JUMP JUMPDEST DUP3 PUSH1 0x1F LT PUSH2 0xB14 JUMPI DUP1 CALLDATALOAD PUSH1 0xFF NOT AND DUP4 DUP1 ADD OR DUP6 SSTORE PUSH2 0xB42 JUMP JUMPDEST DUP3 DUP1 ADD PUSH1 0x1 ADD DUP6 SSTORE DUP3 ISZERO PUSH2 0xB42 JUMPI SWAP2 DUP3 ADD JUMPDEST DUP3 DUP2 GT ISZERO PUSH2 0xB41 JUMPI DUP3 CALLDATALOAD DUP3 SSTORE SWAP2 PUSH1 0x20 ADD SWAP2 SWAP1 PUSH1 0x1 ADD SWAP1 PUSH2 0xB26 JUMP JUMPDEST JUMPDEST POP SWAP1 POP PUSH2 0xB4F SWAP2 SWAP1 PUSH2 0xB53 JUMP JUMPDEST POP SWAP1 JUMP JUMPDEST JUMPDEST DUP1 DUP3 GT ISZERO PUSH2 0xB6C JUMPI PUSH1 0x0 DUP2 PUSH1 0x0 SWAP1 SSTORE POP PUSH1 0x1 ADD PUSH2 0xB54 JUMP JUMPDEST POP SWAP1 JUMP JUMPDEST PUSH1 0x0 DUP1 REVERT JUMPDEST PUSH1 0x0 DUP1 REVERT JUMPDEST PUSH1 0x0 DUP2 SWAP1 POP SWAP2 SWAP1 POP JUMP JUMPDEST PUSH2 0xB8D DUP2 PUSH2 0xB7A JUMP JUMPDEST DUP2 EQ PUSH2 0xB98 JUMPI PUSH1 0x0 DUP1 REVERT JUMPDEST POP JUMP JUMPDEST PUSH1 0x0 DUP2 CALLDATALOAD SWAP1 POP PUSH2 0xBAA DUP2 PUSH2 0xB84 JUMP JUMPDEST SWAP3 SWAP2 POP POP JUMP JUMPDEST PUSH1 0x0 PUSH1 0x20 DUP3 DUP5 SUB SLT ISZERO PUSH2 0xBC6 JUMPI PUSH2 0xBC5 PUSH2 0xB70 JUMP JUMPDEST JUMPDEST PUSH1 0x0 PUSH2 0xBD4 DUP5 DUP3 DUP6 ADD PUSH2 0xB9B JUMP JUMPDEST SWAP2 POP POP SWAP3 SWAP2 POP POP JUMP JUMPDEST PUSH1 0x0 PUSH20 0xFFFFFFFFFFFFFFFFFFFFFFFFFFFFFFFFFFFFFFFF DUP3 AND SWAP1 POP SWAP2 SWAP1 POP JUMP JUMPDEST PUSH1 0x0 PUSH2 0xC08 DUP3 PUSH2 0xBDD JUMP JUMPDEST SWAP1 POP SWAP2 SWAP1 POP JUMP JUMPDEST PUSH2 0xC18 DUP2 PUSH2 0xBFD JUMP JUMPDEST DUP2 EQ PUSH2 0xC23 JUMPI PUSH1 0x0 DUP1 REVERT JUMPDEST POP JUMP JUMPDEST PUSH1 0x0 DUP2 CALLDATALOAD SWAP1 POP PUSH2 0xC35 DUP2 PUSH2 0xC0F JUMP JUMPDEST SWAP3 SWAP2 POP POP JUMP JUMPDEST PUSH1 0x0 PUSH1 0x20 DUP3 DUP5 SUB SLT ISZERO PUSH2 0xC51 JUMPI PUSH2 0xC50 PUSH2 0xB70 JUMP JUMPDEST JUMPDEST PUSH1 0x0 PUSH2 0xC5F DUP5 DUP3 DUP6 ADD PUSH2 0xC26 JUMP JUMPDEST SWAP2 POP POP SWAP3 SWAP2 POP POP JUMP JUMPDEST PUSH1 0x0 DUP2 ISZERO ISZERO SWAP1 POP SWAP2 SWAP1 POP JUMP JUMPDEST PUSH2 0xC7D DUP2 PUSH2 0xC68 JUMP JUMPDEST DUP3 MSTORE POP POP JUMP JUMPDEST PUSH1 0x0 PUSH1 0x20 DUP3 ADD SWAP1 POP PUSH2 0xC98 PUSH1 0x0 DUP4 ADD DUP5 PUSH2 0xC74 JUMP JUMPDEST SWAP3 SWAP2 POP POP JUMP JUMPDEST PUSH1 0x0 DUP2 MLOAD SWAP1 POP SWAP2 SWAP1 POP JUMP JUMPDEST PUSH1 0x0 DUP3 DUP3 MSTORE PUSH1 0x20 DUP3 ADD SWAP1 POP SWAP3 SWAP2 POP POP JUMP JUMPDEST PUSH1 0x0 JUMPDEST DUP4 DUP2 LT ISZERO PUSH2 0xCD8 JUMPI DUP1 DUP3 ADD MLOAD DUP2 DUP5 ADD MSTORE PUSH1 0x20 DUP2 ADD SWAP1 POP PUSH2 0xCBD JUMP JUMPDEST DUP4 DUP2 GT ISZERO PUSH2 0xCE7 JUMPI PUSH1 0x0 DUP5 DUP5 ADD MSTORE JUMPDEST POP POP POP POP JUMP JUMPDEST PUSH1 0x0 PUSH1 0x1F NOT PUSH1 0x1F DUP4 ADD AND SWAP1 POP SWAP2 SWAP1 POP JUMP JUMPDEST PUSH1 0x0 PUSH2 0xD09 DUP3 PUSH2 0xC9E JUMP JUMPDEST PUSH2 0xD13 DUP2 DUP6 PUSH2 0xCA9 JUMP JUMPDEST SWAP4 POP PUSH2 0xD23 DUP2 DUP6 PUSH1 0x20 DUP7 ADD PUSH2 0xCBA JUMP JUMPDEST PUSH2 0xD2C DUP2 PUSH2 0xCED JUMP JUMPDEST DUP5 ADD SWAP2 POP POP SWAP3 SWAP2 POP POP JUMP JUMPDEST PUSH1 0x0 PUSH1 0x20 DUP3 ADD SWAP1 POP DUP2 DUP2 SUB PUSH1 0x0 DUP4 ADD MSTORE PUSH2 0xD51 DUP2 DUP5 PUSH2 0xCFE JUMP JUMPDEST SWAP1 POP SWAP3 SWAP2 POP POP JUMP JUMPDEST PUSH2 0xD62 DUP2 PUSH2 0xBFD JUMP JUMPDEST DUP3 MSTORE POP POP JUMP JUMPDEST PUSH2 0xD71 DUP2 PUSH2 0xB7A JUMP JUMPDEST DUP3 MSTORE POP POP JUMP JUMPDEST PUSH1 0x0 PUSH1 0xE0 DUP3 ADD SWAP1 POP PUSH2 0xD8C PUSH1 0x0 DUP4 ADD DUP11 PUSH2 0xD59 JUMP JUMPDEST DUP2 DUP2 SUB PUSH1 0x20 DUP4 ADD MSTORE PUSH2 0xD9E DUP2 DUP10 PUSH2 0xCFE JUMP JUMPDEST SWAP1 POP DUP2 DUP2 SUB PUSH1 0x40 DUP4 ADD MSTORE PUSH2 0xDB2 DUP2 DUP9 PUSH2 0xCFE JUMP JUMPDEST SWAP1 POP PUSH2 0xDC1 PUSH1 0x60 DUP4 ADD DUP8 PUSH2 0xD68 JUMP JUMPDEST PUSH2 0xDCE PUSH1 0x80 DUP4 ADD DUP7 PUSH2 0xD68 JUMP JUMPDEST PUSH2 0xDDB PUSH1 0xA0 DUP4 ADD DUP6 PUSH2 0xD68 JUMP JUMPDEST PUSH2 0xDE8 PUSH1 0xC0 DUP4 ADD DUP5 PUSH2 0xD68 JUMP JUMPDEST SWAP9 SWAP8 POP POP POP POP POP POP POP POP JUMP JUMPDEST PUSH1 0x0 PUSH1 0xA0 DUP3 ADD SWAP1 POP DUP2 DUP2 SUB PUSH1 0x0 DUP4 ADD MSTORE PUSH2 0xE0E DUP2 DUP9 PUSH2 0xCFE JUMP JUMPDEST SWAP1 POP PUSH2 0xE1D PUSH1 0x20 DUP4 ADD DUP8 PUSH2 0xD68 JUMP JUMPDEST PUSH2 0xE2A PUSH1 0x40 DUP4 ADD DUP7 PUSH2 0xD59 JUMP JUMPDEST PUSH2 0xE37 PUSH1 0x60 DUP4 ADD DUP6 PUSH2 0xC74 JUMP JUMPDEST PUSH2 0xE44 PUSH1 0x80 DUP4 ADD DUP5 PUSH2 0xD68 JUMP JUMPDEST SWAP7 SWAP6 POP POP POP POP POP POP JUMP JUMPDEST PUSH1 0x0 PUSH1 0x20 DUP3 ADD SWAP1 POP PUSH2 0xE63 PUSH1 0x0 DUP4 ADD DUP5 PUSH2 0xD59 JUMP JUMPDEST SWAP3 SWAP2 POP POP JUMP JUMPDEST PUSH1 0x0 PUSH1 0x20 DUP3 ADD SWAP1 POP PUSH2 0xE7E PUSH1 0x0 DUP4 ADD DUP5 PUSH2 0xD68 JUMP JUMPDEST SWAP3 SWAP2 POP POP JUMP JUMPDEST PUSH1 0x0 DUP1 REVERT JUMPDEST PUSH1 0x0 DUP1 REVERT JUMPDEST PUSH1 0x0 DUP1 REVERT JUMPDEST PUSH1 0x0 DUP1 DUP4 PUSH1 0x1F DUP5 ADD SLT PUSH2 0xEA9 JUMPI PUSH2 0xEA8 PUSH2 0xE84 JUMP JUMPDEST JUMPDEST DUP3 CALLDATALOAD SWAP1 POP PUSH8 0xFFFFFFFFFFFFFFFF DUP2 GT ISZERO PUSH2 0xEC6 JUMPI PUSH2 0xEC5 PUSH2 0xE89 JUMP JUMPDEST JUMPDEST PUSH1 0x20 DUP4 ADD SWAP2 POP DUP4 PUSH1 0x1 DUP3 MUL DUP4 ADD GT ISZERO PUSH2 0xEE2 JUMPI PUSH2 0xEE1 PUSH2 0xE8E JUMP JUMPDEST JUMPDEST SWAP3 POP SWAP3 SWAP1 POP JUMP JUMPDEST PUSH1 0x0 PUSH2 0xEF4 DUP3 PUSH2 0xBDD JUMP JUMPDEST SWAP1 POP SWAP2 SWAP1 POP JUMP JUMPDEST PUSH2 0xF04 DUP2 PUSH2 0xEE9 JUMP JUMPDEST DUP2 EQ PUSH2 0xF0F JUMPI PUSH1 0x0 DUP1 REVERT JUMPDEST POP JUMP JUMPDEST PUSH1 0x0 DUP2 CALLDATALOAD SWAP1 POP PUSH2 0xF21 DUP2 PUSH2 0xEFB JUMP JUMPDEST SWAP3 SWAP2 POP POP JUMP JUMPDEST PUSH1 0x0 DUP1 PUSH1 0x0 DUP1 PUSH1 0x60 DUP6 DUP8 SUB SLT ISZERO PUSH2 0xF41 JUMPI PUSH2 0xF40 PUSH2 0xB70 JUMP JUMPDEST JUMPDEST PUSH1 0x0 DUP6 ADD CALLDATALOAD PUSH8 0xFFFFFFFFFFFFFFFF DUP2 GT ISZERO PUSH2 0xF5F JUMPI PUSH2 0xF5E PUSH2 0xB75 JUMP JUMPDEST JUMPDEST PUSH2 0xF6B DUP8 DUP3 DUP9 ADD PUSH2 0xE93 JUMP JUMPDEST SWAP5 POP SWAP5 POP POP PUSH1 0x20 PUSH2 0xF7E DUP8 DUP3 DUP9 ADD PUSH2 0xB9B JUMP JUMPDEST SWAP3 POP POP PUSH1 0x40 PUSH2 0xF8F DUP8 DUP3 DUP9 ADD PUSH2 0xF12 JUMP JUMPDEST SWAP2 POP POP SWAP3 SWAP6 SWAP2 SWAP5 POP SWAP3 POP JUMP JUMPDEST PUSH32 0x4E487B7100000000000000000000000000000000000000000000000000000000 PUSH1 0x0 MSTORE PUSH1 0x12 PUSH1 0x4 MSTORE PUSH1 0x24 PUSH1 0x0 REVERT JUMPDEST PUSH32 0x4E487B7100000000000000000000000000000000000000000000000000000000 PUSH1 0x0 MSTORE PUSH1 0x11 PUSH1 0x4 MSTORE PUSH1 0x24 PUSH1 0x0 REVERT JUMPDEST PUSH1 0x0 PUSH2 0x1004 DUP3 PUSH2 0xB7A JUMP JUMPDEST SWAP2 POP PUSH2 0x100F DUP4 PUSH2 0xB7A JUMP JUMPDEST SWAP3 POP DUP3 PUSH2 0x101F JUMPI PUSH2 0x101E PUSH2 0xF9B JUMP JUMPDEST JUMPDEST DUP3 DUP3 DIV SWAP1 POP SWAP3 SWAP2 POP POP JUMP JUMPDEST PUSH32 0x4E487B7100000000000000000000000000000000000000000000000000000000 PUSH1 0x0 MSTORE PUSH1 0x22 PUSH1 0x4 MSTORE PUSH1 0x24 PUSH1 0x0 REVERT JUMPDEST PUSH1 0x0 PUSH1 0x2 DUP3 DIV SWAP1 POP PUSH1 0x1 DUP3 AND DUP1 PUSH2 0x1071 JUMPI PUSH1 0x7F DUP3 AND SWAP2 POP JUMPDEST PUSH1 0x20 DUP3 LT DUP2 SUB PUSH2 0x1084 JUMPI PUSH2 0x1083 PUSH2 0x102A JUMP JUMPDEST JUMPDEST POP SWAP2 SWAP1 POP JUMP JUMPDEST PUSH1 0x0 PUSH2 0x1095 DUP3 PUSH2 0xB7A JUMP JUMPDEST SWAP2 POP PUSH32 0xFFFFFFFFFFFFFFFFFFFFFFFFFFFFFFFFFFFFFFFFFFFFFFFFFFFFFFFFFFFFFFFF DUP3 SUB PUSH2 0x10C7 JUMPI PUSH2 0x10C6 PUSH2 0xFCA JUMP JUMPDEST JUMPDEST PUSH1 0x1 DUP3 ADD SWAP1 POP SWAP2 SWAP1 POP JUMP INVALID LOG2 PUSH5 0x6970667358 0x22 SLT KECCAK256 0xC4 0x28 COINBASE STATICCALL MSIZE DUP13 PC CODESIZE DELEGATECALL DUP16 ADDMOD 0xAE DUP4 SWAP5 0xB0 0xA6 0xA7 PUSH7 0xDACE0A94B008E7 0xE5 0xDC EQ SWAP7 NOT 0xC5 0xB3 PUSH5 0x736F6C6343 STOP ADDMOD 0xD STOP CALLER LOG2 PUSH5 0x6970667358 0x22 SLT KECCAK256 0xAF 0xE3 MSIZE 0xC1 0x2A 0xEE JUMP DUP10 0xE9 0xB6 0xE0 PUSH3 0xE4F9 JUMP NOT ORIGIN 0xC4 0xEA 0xA8 0xD5 GASLIMIT PUSH23 0xCAA1C5B6ACEF047264736F6C634300080D003300000000 "},"gasEstimates":{"creation":{"codeDepositCost":"1457600","executionCost":"1520","totalCost":"1459120"},"external":{"createCampaign(string,string,uint256)":"infinite","deployedCampaigns(uint256)":"infinite","getDeployedCampaigns()":"infinite"}},"methodIdentifiers":{"createCampaign(string,string,uint256)":"ffa56a57","deployedCampaigns(uint256)":"339d50a5","getDeployedCampaigns()":"4acb9d4f"}},"storageLayout":{"storage":[{"astId":5,"contract":"Campaign.sol:CampaignFactory","label":"deployedCampaigns","offset":0,"slot":"0","type":"t_array(t_contract(Campaign)343)dyn_storage"}],"types":{"t_array(t_contract(Campaign)343)dyn_storage":{"base":"t_contract(Campaign)343","encoding":"dynamic_array","label":"contract Campaign[]","numberOfBytes":"32"},"t_contract(Campaign)343":{"encoding":"inplace","label":"contract Campaign","numberOfBytes":"20"}}},"userdoc":{"kind":"user","methods":{},"version":1}}